{
  "address": "0x420983A45b30759b266CC6dBcC35ec25044f1EEC",
  "abi": [
    {
      "inputs": [
        {
          "internalType": "address",
          "name": "_zkvContract",
          "type": "address"
        },
        {
          "internalType": "bytes32",
          "name": "_vkHash",
          "type": "bytes32"
        },
        {
          "internalType": "uint256",
          "name": "_chainId",
          "type": "uint256"
        },
        {
          "internalType": "uint256[]",
          "name": "_initialCommitments",
          "type": "uint256[]"
        },
        {
          "internalType": "uint256",
          "name": "_signaturesRequired",
          "type": "uint256"
        }
      ],
      "stateMutability": "nonpayable",
      "type": "constructor"
    },
    {
      "anonymous": false,
      "inputs": [
        {
          "indexed": true,
          "internalType": "address",
          "name": "sender",
          "type": "address"
        },
        {
          "indexed": false,
          "internalType": "uint256",
          "name": "amount",
          "type": "uint256"
        },
        {
          "indexed": false,
          "internalType": "uint256",
          "name": "balance",
          "type": "uint256"
        }
      ],
      "name": "Deposit",
      "type": "event"
    },
    {
      "anonymous": false,
      "inputs": [
        {
          "indexed": true,
          "internalType": "uint256",
          "name": "commitment",
          "type": "uint256"
        },
        {
          "indexed": false,
          "internalType": "bool",
          "name": "isAdded",
          "type": "bool"
        }
      ],
      "name": "Owner",
      "type": "event"
    },
    {
      "anonymous": false,
      "inputs": [
        {
          "indexed": true,
          "internalType": "uint256",
          "name": "txId",
          "type": "uint256"
        },
        {
          "indexed": false,
          "internalType": "uint256",
          "name": "nullifier",
          "type": "uint256"
        }
      ],
      "name": "SignatureSubmitted",
      "type": "event"
    },
    {
      "anonymous": false,
      "inputs": [
        {
          "indexed": true,
          "internalType": "uint256",
          "name": "txId",
          "type": "uint256"
        },
        {
          "indexed": false,
          "internalType": "address",
          "name": "to",
          "type": "address"
        },
        {
          "indexed": false,
          "internalType": "uint256",
          "name": "value",
          "type": "uint256"
        },
        {
          "indexed": false,
          "internalType": "bytes",
          "name": "data",
          "type": "bytes"
        },
        {
          "indexed": false,
          "internalType": "bytes",
          "name": "result",
          "type": "bytes"
        }
      ],
      "name": "TransactionExecuted",
      "type": "event"
    },
    {
      "anonymous": false,
      "inputs": [
        {
          "indexed": true,
          "internalType": "uint256",
          "name": "txId",
          "type": "uint256"
        },
        {
          "indexed": false,
          "internalType": "address",
          "name": "to",
          "type": "address"
        },
        {
          "indexed": false,
          "internalType": "uint256",
          "name": "value",
          "type": "uint256"
        },
        {
          "indexed": false,
          "internalType": "bytes",
          "name": "data",
          "type": "bytes"
        }
      ],
      "name": "TransactionProposed",
      "type": "event"
    },
    {
      "inputs": [],
      "name": "BN254_PRIME",
      "outputs": [
        {
          "internalType": "uint256",
          "name": "",
          "type": "uint256"
        }
      ],
      "stateMutability": "view",
      "type": "function"
    },
    {
      "inputs": [],
      "name": "MAX_SIGNERS",
      "outputs": [
        {
          "internalType": "uint256",
          "name": "",
          "type": "uint256"
        }
      ],
      "stateMutability": "view",
      "type": "function"
    },
    {
      "inputs": [],
      "name": "PROVING_SYSTEM_ID",
      "outputs": [
        {
          "internalType": "bytes32",
          "name": "",
          "type": "bytes32"
        }
      ],
      "stateMutability": "view",
      "type": "function"
    },
    {
      "inputs": [],
      "name": "VERSION_HASH",
      "outputs": [
        {
          "internalType": "bytes32",
          "name": "",
          "type": "bytes32"
        }
      ],
      "stateMutability": "view",
      "type": "function"
    },
    {
      "inputs": [
        {
          "internalType": "uint256",
          "name": "newCommitment",
          "type": "uint256"
        },
        {
          "internalType": "uint256",
          "name": "newSigRequired",
          "type": "uint256"
        }
      ],
      "name": "addSigner",
      "outputs": [],
      "stateMutability": "nonpayable",
      "type": "function"
    },
    {
      "inputs": [],
      "name": "chainId",
      "outputs": [
        {
          "internalType": "uint256",
          "name": "",
          "type": "uint256"
        }
      ],
      "stateMutability": "view",
      "type": "function"
    },
    {
      "inputs": [
        {
          "internalType": "uint256",
          "name": "",
          "type": "uint256"
        }
      ],
      "name": "commitments",
      "outputs": [
        {
          "internalType": "uint256",
          "name": "",
          "type": "uint256"
        }
      ],
      "stateMutability": "view",
      "type": "function"
    },
    {
      "inputs": [
        {
          "internalType": "uint256",
          "name": "txId",
          "type": "uint256"
        }
      ],
      "name": "executeTransaction",
      "outputs": [
        {
          "internalType": "bytes",
          "name": "",
          "type": "bytes"
        }
      ],
      "stateMutability": "nonpayable",
      "type": "function"
    },
    {
      "inputs": [],
      "name": "getCommitments",
      "outputs": [
        {
          "internalType": "uint256[]",
          "name": "",
          "type": "uint256[]"
        }
      ],
      "stateMutability": "view",
      "type": "function"
    },
    {
      "inputs": [
        {
          "internalType": "uint256",
          "name": "txId",
          "type": "uint256"
        }
      ],
      "name": "getPendingTx",
      "outputs": [
        {
          "internalType": "address",
          "name": "to",
          "type": "address"
        },
        {
          "internalType": "uint256",
          "name": "value",
          "type": "uint256"
        },
        {
          "internalType": "bytes",
          "name": "data",
          "type": "bytes"
        },
        {
          "internalType": "uint256",
          "name": "validSignatures",
          "type": "uint256"
        },
        {
          "internalType": "uint256",
          "name": "requiredApprovalsWhenExecuted",
          "type": "uint256"
        },
        {
          "internalType": "bool",
          "name": "executed",
          "type": "bool"
        }
      ],
      "stateMutability": "view",
      "type": "function"
    },
    {
      "inputs": [],
      "name": "getSignersCount",
      "outputs": [
        {
          "internalType": "uint256",
          "name": "",
          "type": "uint256"
        }
      ],
      "stateMutability": "view",
      "type": "function"
    },
    {
      "inputs": [
        {
          "internalType": "uint256",
          "name": "_nonce",
          "type": "uint256"
        },
        {
          "internalType": "address",
          "name": "to",
          "type": "address"
        },
        {
          "internalType": "uint256",
          "name": "value",
          "type": "uint256"
        },
        {
          "internalType": "bytes",
          "name": "data",
          "type": "bytes"
        }
      ],
      "name": "getTransactionHash",
      "outputs": [
        {
          "internalType": "bytes32",
          "name": "",
          "type": "bytes32"
        }
      ],
      "stateMutability": "view",
      "type": "function"
    },
    {
      "inputs": [
        {
          "internalType": "uint256",
          "name": "txId",
          "type": "uint256"
        }
      ],
      "name": "getTxHashFromTxid",
      "outputs": [
        {
          "internalType": "bytes32",
          "name": "",
          "type": "bytes32"
        }
      ],
      "stateMutability": "view",
      "type": "function"
    },
    {
      "inputs": [],
      "name": "merkleRoot",
      "outputs": [
        {
          "internalType": "uint256",
          "name": "",
          "type": "uint256"
        }
      ],
      "stateMutability": "view",
      "type": "function"
    },
    {
      "inputs": [],
      "name": "nonce",
      "outputs": [
        {
          "internalType": "uint256",
          "name": "",
          "type": "uint256"
        }
      ],
      "stateMutability": "view",
      "type": "function"
    },
    {
      "inputs": [
        {
          "internalType": "uint256",
          "name": "",
          "type": "uint256"
        }
      ],
      "name": "pendingTxs",
      "outputs": [
        {
          "internalType": "address",
          "name": "to",
          "type": "address"
        },
        {
          "internalType": "uint256",
          "name": "value",
          "type": "uint256"
        },
        {
          "internalType": "bytes",
          "name": "data",
          "type": "bytes"
        },
        {
          "internalType": "uint256",
          "name": "requiredApprovalsWhenExecuted",
          "type": "uint256"
        },
        {
          "internalType": "uint256",
          "name": "validSignatures",
          "type": "uint256"
        },
        {
          "internalType": "bool",
          "name": "executed",
          "type": "bool"
        }
      ],
      "stateMutability": "view",
      "type": "function"
    },
    {
      "inputs": [
        {
          "internalType": "uint256",
          "name": "a",
          "type": "uint256"
        },
        {
          "internalType": "uint256",
          "name": "b",
          "type": "uint256"
        }
      ],
      "name": "poseidonHash2",
      "outputs": [
        {
          "internalType": "uint256",
          "name": "",
          "type": "uint256"
        }
      ],
      "stateMutability": "view",
      "type": "function"
    },
    {
      "inputs": [
        {
          "internalType": "address",
          "name": "to",
          "type": "address"
        },
        {
          "internalType": "uint256",
          "name": "value",
          "type": "uint256"
        },
        {
          "internalType": "bytes",
          "name": "data",
          "type": "bytes"
        },
        {
          "components": [
            {
              "internalType": "uint256",
              "name": "nullifier",
              "type": "uint256"
            },
            {
              "internalType": "uint256",
              "name": "aggregationId",
              "type": "uint256"
            },
            {
              "internalType": "uint256",
              "name": "domainId",
              "type": "uint256"
            },
            {
              "internalType": "bytes32[]",
              "name": "zkMerklePath",
              "type": "bytes32[]"
            },
            {
              "internalType": "uint256",
              "name": "leafCount",
              "type": "uint256"
            },
            {
              "internalType": "uint256",
              "name": "index",
              "type": "uint256"
            }
          ],
          "internalType": "struct MetaMultiSigWallet.ZkProof",
          "name": "proof",
          "type": "tuple"
        }
      ],
      "name": "proposeTx",
      "outputs": [
        {
          "internalType": "uint256",
          "name": "txId",
          "type": "uint256"
        }
      ],
      "stateMutability": "nonpayable",
      "type": "function"
    },
    {
      "inputs": [
        {
          "internalType": "uint256",
          "name": "commitment",
          "type": "uint256"
        },
        {
          "internalType": "uint256",
          "name": "newSigRequired",
          "type": "uint256"
        }
      ],
      "name": "removeSigner",
      "outputs": [],
      "stateMutability": "nonpayable",
      "type": "function"
    },
    {
      "inputs": [],
      "name": "signaturesRequired",
      "outputs": [
        {
          "internalType": "uint256",
          "name": "",
          "type": "uint256"
        }
      ],
      "stateMutability": "view",
      "type": "function"
    },
    {
      "inputs": [
        {
          "internalType": "uint256",
          "name": "txId",
          "type": "uint256"
        },
        {
          "components": [
            {
              "internalType": "uint256",
              "name": "nullifier",
              "type": "uint256"
            },
            {
              "internalType": "uint256",
              "name": "aggregationId",
              "type": "uint256"
            },
            {
              "internalType": "uint256",
              "name": "domainId",
              "type": "uint256"
            },
            {
              "internalType": "bytes32[]",
              "name": "zkMerklePath",
              "type": "bytes32[]"
            },
            {
              "internalType": "uint256",
              "name": "leafCount",
              "type": "uint256"
            },
            {
              "internalType": "uint256",
              "name": "index",
              "type": "uint256"
            }
          ],
          "internalType": "struct MetaMultiSigWallet.ZkProof",
          "name": "proof",
          "type": "tuple"
        }
      ],
      "name": "submitSignature",
      "outputs": [],
      "stateMutability": "nonpayable",
      "type": "function"
    },
    {
      "inputs": [
        {
          "internalType": "uint256",
          "name": "newSigRequired",
          "type": "uint256"
        }
      ],
      "name": "updateSignaturesRequired",
      "outputs": [],
      "stateMutability": "nonpayable",
      "type": "function"
    },
    {
      "inputs": [
        {
          "internalType": "uint256",
          "name": "",
          "type": "uint256"
        }
      ],
      "name": "usedNullifiers",
      "outputs": [
        {
          "internalType": "bool",
          "name": "",
          "type": "bool"
        }
      ],
      "stateMutability": "view",
      "type": "function"
    },
    {
      "inputs": [],
      "name": "vkHash",
      "outputs": [
        {
          "internalType": "bytes32",
          "name": "",
          "type": "bytes32"
        }
      ],
      "stateMutability": "view",
      "type": "function"
    },
    {
      "inputs": [],
      "name": "zkvContract",
      "outputs": [
        {
          "internalType": "address",
          "name": "",
          "type": "address"
        }
      ],
      "stateMutability": "view",
      "type": "function"
    },
    {
      "stateMutability": "payable",
      "type": "receive"
    }
  ],
  "transactionHash": "0x1db2940652b9dc1386742738f3e20883b44e699cd967903c027c9276984ebbbf",
  "args": [
    "0xEA0A0f1EfB1088F4ff0Def03741Cb2C64F89361E",
    "0x104717314e0c94ef15d6992292b713aa2ffc48c74e0c41f7344a611caa606dde",
    11155111,
    [
      "7777412979265397193925220040726445950599854595059203997869095364409346949110"
    ],
    1
  ],
  "numDeployments": 1,
  "solcInputHash": "b2dc6053a4b1820e8f1423c52106bc37",
  "bytecode": "0x60c06040523480156200001157600080fd5b5060405162002903380380620029038339810160408190526200003491620005b8565b6001600160a01b038516620000905760405162461bcd60e51b815260206004820152601360248201527f496e76616c6964207a6b7620616464726573730000000000000000000000000060448201526064015b60405180910390fd5b60008111620000e25760405162461bcd60e51b815260206004820152601e60248201527f4d757374206265206e6f6e2d7a65726f20736967732072657175697265640000604482015260640162000087565b6000825111620001355760405162461bcd60e51b815260206004820152601660248201527f4e656564206174206c656173742031207369676e657200000000000000000000604482015260640162000087565b8151811115620001885760405162461bcd60e51b815260206004820152601660248201527f5369677320726571756972656420746f6f206869676800000000000000000000604482015260640162000087565b6001600160a01b03851660805260a0849052600083815560028290555b8251811015620002b957828181518110620001c457620001c4620006c3565b6020026020010151600003620002125760405162461bcd60e51b8152602060048201526012602482015271125b9d985b1a590818dbdb5b5a5d1b595b9d60721b604482015260640162000087565b6003838281518110620002295762000229620006c3565b6020908102919091018101518254600181018455600093845291909220015582518390829081106200025f576200025f620006c3565b60200260200101517f33129f9e36e06e860f22ce83276273f4d83d31e9fd4a0d3a4dbac9d2da4f9d0d60016040516200029c911515815260200190565b60405180910390a280620002b081620006ef565b915050620001a5565b50620002c4620002cf565b5050505050620007cc565b6040805160108082526102208201909252600091602082016102008036833701905050905060005b600354811015620003585760038181548110620003185762000318620006c3565b9060005260206000200154828281518110620003385762000338620006c3565b6020908102919091010152806200034f81620006ef565b915050620002f7565b506003545b60108110156200039e5760018282815181106200037e576200037e620006c3565b6020908102919091010152806200039581620006ef565b9150506200035d565b5060105b6001811115620004805760005b620003bc60028362000721565b8110156200046a576200043583620003d683600262000738565b81518110620003e957620003e9620006c3565b60200260200101518483600262000401919062000738565b6200040e90600162000752565b81518110620004215762000421620006c3565b6020026020010151620004a860201b60201c565b8382815181106200044a576200044a620006c3565b6020908102919091010152806200046181620006ef565b915050620003af565b506200047860028262000721565b9050620003a2565b81600081518110620004965762000496620006c3565b60200260200101516004819055505050565b600080620004d77f30644e72e131a029b85045b68181585d2833e84879b9709143e1f593f00000018562000768565b90506000620005077f30644e72e131a029b85045b68181585d2833e84879b9709143e1f593f00000018562000768565b604080518082018252848152602081018390529051632b0aac7f60e11b8152919250733333333C0A88F9BE4fd23ed0536F9B6c427e3B939163561558fe9162000553916004016200077f565b602060405180830381865af415801562000571573d6000803e3d6000fd5b505050506040513d601f19601f82011682018060405250810190620005979190620007b2565b925050505b92915050565b634e487b7160e01b600052604160045260246000fd5b600080600080600060a08688031215620005d157600080fd5b85516001600160a01b0381168114620005e957600080fd5b602087810151604089015160608a01519398509096509450906001600160401b03808211156200061857600080fd5b818901915089601f8301126200062d57600080fd5b815181811115620006425762000642620005a2565b8060051b604051601f19603f830116810181811085821117156200066a576200066a620005a2565b60405291825284820192508381018501918c8311156200068957600080fd5b938501935b82851015620006a9578451845293850193928501926200068e565b809750505050505050608086015190509295509295909350565b634e487b7160e01b600052603260045260246000fd5b634e487b7160e01b600052601160045260246000fd5b600060018201620007045762000704620006d9565b5060010190565b634e487b7160e01b600052601260045260246000fd5b6000826200073357620007336200070b565b500490565b80820281158282048414176200059c576200059c620006d9565b808201808211156200059c576200059c620006d9565b6000826200077a576200077a6200070b565b500690565b60408101818360005b6002811015620007a957815183526020928301929091019060010162000788565b50505092915050565b600060208284031215620007c557600080fd5b5051919050565b60805160a05161210362000800600039600081816102df015261147c015260008181610368015261153301526121036000f3fe60806040526004361061016a5760003560e01c80637ee68373116100d1578063affed0e01161008a578063e4cf5a2c11610064578063e4cf5a2c146104b0578063eaaba559146104e4578063ee22610b14610504578063f1ea66d41461053157600080fd5b8063affed0e014610464578063ce757d291461047a578063d84989f21461049057600080fd5b80637ee68373146103565780639a8a0592146103a25780639e4e7318146103b8578063a0c1deb4146103cd578063a8898a20146103e2578063aad240611461042457600080fd5b806343e9d2521161012357806343e9d2521461028d57806349ce8997146102ad5780634fe840f5146102cd578063545a4a3c1461030157806359ecd657146103215780636a53f98a1461033657600080fd5b80630e66b79b146101b05780631187deef146101d257806316ad6a9b146102055780632eb4a7ab146102255780632ef853441461023b5780633034a7421461026d57600080fd5b366101ab576040805134815247602082015233917f90890809c654f11d6e72a28fa60149770a0d11ec6c92319d6ceb2bb0a4ea1a15910160405180910390a2005b600080fd5b3480156101bc57600080fd5b506101d06101cb3660046117ae565b610553565b005b3480156101de57600080fd5b506101f26101ed366004611811565b610710565b6040519081526020015b60405180910390f35b34801561021157600080fd5b506101d06102203660046118c3565b61096b565b34801561023157600080fd5b506101f260045481565b34801561024757600080fd5b5061025b6102563660046118e5565b610b60565b6040516101fc9695949392919061194e565b34801561027957600080fd5b506101d06102883660046118e5565b610c4e565b34801561029957600080fd5b506101f26102a83660046118e5565b610cb4565b3480156102b957600080fd5b506101f26102c83660046118e5565b610d0d565b3480156102d957600080fd5b506101f27f000000000000000000000000000000000000000000000000000000000000000081565b34801561030d57600080fd5b506101f261031c3660046119ab565b610d2e565b34801561032d57600080fd5b506101f2601081565b34801561034257600080fd5b5061025b6103513660046118e5565b610d6b565b34801561036257600080fd5b5061038a7f000000000000000000000000000000000000000000000000000000000000000081565b6040516001600160a01b0390911681526020016101fc565b3480156103ae57600080fd5b506101f260005481565b3480156103c457600080fd5b506101f2610e37565b3480156103d957600080fd5b506003546101f2565b3480156103ee57600080fd5b506101f260405169756c747261706c6f6e6b60b01b6020820152602a016040516020818303038152906040528051906020012081565b34801561043057600080fd5b5061045461043f3660046118e5565b60066020526000908152604090205460ff1681565b60405190151581526020016101fc565b34801561047057600080fd5b506101f260015481565b34801561048657600080fd5b506101f260025481565b34801561049c57600080fd5b506101d06104ab3660046118c3565b610e97565b3480156104bc57600080fd5b506101f27f30644e72e131a029b85045b68181585d2833e84879b9709143e1f593f000000181565b3480156104f057600080fd5b506101f26104ff3660046118c3565b6110a1565b34801561051057600080fd5b5061052461051f3660046118e5565b611192565b6040516101fc9190611a80565b34801561053d57600080fd5b5061054661139f565b6040516101fc9190611a9a565b600082815260056020526040902080546001600160a01b03166105ac5760405162461bcd60e51b815260206004820152600c60248201526b151e081b9bdd08195e1a5cdd60a21b60448201526064015b60405180910390fd5b600581015460ff16156105f75760405162461bcd60e51b8152602060048201526013602482015272151e08185b1c9958591e48195e1958dd5d1959606a1b60448201526064016105a3565b813560009081526006602052604090205460ff16156106515760405162461bcd60e51b8152602060048201526016602482015275139d5b1b1a599a595c88185b1c9958591e481d5cd95960521b60448201526064016105a3565b600061065c84610cb4565b905061066881846113f7565b6106a45760405162461bcd60e51b815260206004820152600d60248201526c24b73b30b634b210383937b7b360991b60448201526064016105a3565b82356000908152600660205260408120805460ff19166001179055600483018054916106cf83611af4565b90915550506040518335815284907fe74968fca746c9d223b4fe7484b49005880b3377127f35fe73ba7a035f1c54779060200160405180910390a250505050565b600060015490506040518060c00160405280876001600160a01b0316815260200186815260200185858080601f0160208091040260200160405190810160405280939291908181526020018383808284376000920182905250938552505060028054602080860191909152604080860185905260609095018490528684526005815292849020855181546001600160a01b0319166001600160a01b039091161781559285015160018401559284015191928301916107cf915082611b90565b50606082015160038201556080820151600482015560a0909101516005909101805460ff1916911515919091179055813560009081526006602052604090205460ff16156108585760405162461bcd60e51b8152602060048201526016602482015275139d5b1b1a599a595c88185b1c9958591e481d5cd95960521b60448201526064016105a3565b600061086382610cb4565b905061086f81846113f7565b6108ab5760405162461bcd60e51b815260206004820152600d60248201526c24b73b30b634b210383937b7b360991b60448201526064016105a3565b82356000908152600660209081526040808320805460ff19166001908117909155858452600590925282206004018190558054916108e883611af4565b9190505550817f561275eec320a77ef0e4076251bf2ba80573d7b921ecd629f83ea2ee47c9cdfe888888886040516109239493929190611c50565b60405180910390a26040518335815282907fe74968fca746c9d223b4fe7484b49005880b3377127f35fe73ba7a035f1c54779060200160405180910390a25095945050505050565b33301461098a5760405162461bcd60e51b81526004016105a390611c98565b816000036109cf5760405162461bcd60e51b8152602060048201526012602482015271125b9d985b1a590818dbdb5b5a5d1b595b9d60721b60448201526064016105a3565b600354601011610a175760405162461bcd60e51b815260206004820152601360248201527213585e081cda59db995c9cc81c995858da1959606a1b60448201526064016105a3565b60008111610a375760405162461bcd60e51b81526004016105a390611cba565b600354610a45906001611cf1565b811115610a645760405162461bcd60e51b81526004016105a390611d04565b60005b600354811015610ae3578260038281548110610a8557610a85611d34565b906000526020600020015403610ad15760405162461bcd60e51b8152602060048201526011602482015270436f6d6d69746d656e742065786973747360781b60448201526064016105a3565b80610adb81611af4565b915050610a67565b50600380546001810182556000919091527fc2575a0e9e593c00f959f8c92f12db2869c3395a3b0502d05e2516446f71f85b018290556002819055610b266115f2565b6040516001815282907f33129f9e36e06e860f22ce83276273f4d83d31e9fd4a0d3a4dbac9d2da4f9d0d9060200160405180910390a25050565b60008181526005602081905260408220805460018201546004830154600384015494840154600285018054889760609789978897889792966001600160a01b0390921695909490939160ff16908490610bb890611b0d565b80601f0160208091040260200160405190810160405280929190818152602001828054610be490611b0d565b8015610c315780601f10610c0657610100808354040283529160200191610c31565b820191906000526020600020905b815481529060010190602001808311610c1457829003601f168201915b505050505093509650965096509650965096505091939550919395565b333014610c6d5760405162461bcd60e51b81526004016105a390611c98565b60008111610c8d5760405162461bcd60e51b81526004016105a390611cba565b600354811115610caf5760405162461bcd60e51b81526004016105a390611d04565b600255565b600081815260056020908152604080832083548154600183015493519294610cef94309489936001600160a01b031692600289019101611dbd565b60405160208183030381529060405280519060200120915050919050565b60038181548110610d1d57600080fd5b600091825260209091200154905081565b60008054604051610d4b9130918890889088908890602001611e0c565b604051602081830303815290604052805190602001209050949350505050565b6005602052600090815260409020805460018201546002830180546001600160a01b03909316939192610d9d90611b0d565b80601f0160208091040260200160405190810160405280929190818152602001828054610dc990611b0d565b8015610e165780601f10610deb57610100808354040283529160200191610e16565b820191906000526020600020905b815481529060010190602001808311610df957829003601f168201915b50505050600383015460048401546005909401549293909290915060ff1686565b60408051600081526020810191829052600291610e549190611e67565b602060405180830381855afa158015610e71573d6000803e3d6000fd5b5050506040513d601f19601f82011682018060405250810190610e949190611e83565b81565b333014610eb65760405162461bcd60e51b81526004016105a390611c98565b600354600110610f085760405162461bcd60e51b815260206004820152601960248201527f43616e6e6f742072656d6f7665206c617374207369676e65720000000000000060448201526064016105a3565b60008111610f285760405162461bcd60e51b81526004016105a390611cba565b600354610f3790600190611e9c565b811115610f565760405162461bcd60e51b81526004016105a390611d04565b6000805b600354811015611014578360038281548110610f7857610f78611d34565b9060005260206000200154036110025760038054610f9890600190611e9c565b81548110610fa857610fa8611d34565b906000526020600020015460038281548110610fc657610fc6611d34565b6000918252602090912001556003805480610fe357610fe3611eaf565b6001900381819060005260206000200160009055905560019150611014565b8061100c81611af4565b915050610f5a565b50806110595760405162461bcd60e51b815260206004820152601460248201527310dbdb5b5a5d1b595b9d081b9bdd08199bdd5b9960621b60448201526064016105a3565b60028290556110666115f2565b6040516000815283907f33129f9e36e06e860f22ce83276273f4d83d31e9fd4a0d3a4dbac9d2da4f9d0d9060200160405180910390a2505050565b6000806110ce7f30644e72e131a029b85045b68181585d2833e84879b9709143e1f593f000000185611edb565b905060006110fc7f30644e72e131a029b85045b68181585d2833e84879b9709143e1f593f000000185611edb565b604080518082018252848152602081018390529051632b0aac7f60e11b8152919250733333333C0A88F9BE4fd23ed0536F9B6c427e3B939163561558fe9161114691600401611eef565b602060405180830381865af4158015611163573d6000803e3d6000fd5b505050506040513d601f19601f820116820180604052508101906111879190611e83565b925050505b92915050565b60008181526005602052604090208054606091906001600160a01b03166111ea5760405162461bcd60e51b815260206004820152600c60248201526b151e081b9bdd08195e1a5cdd60a21b60448201526064016105a3565b600581015460ff16156112355760405162461bcd60e51b8152602060048201526013602482015272151e08185b1c9958591e48195e1958dd5d1959606a1b60448201526064016105a3565b600254816004015410156112835760405162461bcd60e51b81526020600482015260156024820152744e6f7420656e6f756768207369676e61747572657360581b60448201526064016105a3565b60058101805460ff1916600190811790915560028054600384015582549183015460405160009384936001600160a01b0390911692916112c591870190611f20565b60006040518083038185875af1925050503d8060008114611302576040519150601f19603f3d011682016040523d82523d6000602084013e611307565b606091505b5091509150816113455760405162461bcd60e51b8152602060048201526009602482015268151e0819985a5b195960ba1b60448201526064016105a3565b8254600184015460405187927f1654479f61781d185c419742a20e599a227ae1840317c8a74ceda5eb6166b8269261138f926001600160a01b039092169160028901908790611f2c565b60405180910390a2949350505050565b606060038054806020026020016040519081016040528092919081815260200182805480156113ed57602002820191906000526020600020905b8154815260200190600101908083116113d9575b5050505050905090565b6000806114058460016110a1565b6004546040805160208101849052908101919091528435606082015290915060009060800160408051601f198184030181529082905269756c747261706c6f6e6b60b01b60208301529150600090602a0160408051601f1981840301815282825280516020918201206000845290830191829052917f0000000000000000000000000000000000000000000000000000000000000000916002916114a891611e67565b602060405180830381855afa1580156114c5573d6000803e3d6000fd5b5050506040513d601f19601f820116820180604052508101906114e89190611e83565b8480519060200120604051602001611519949392919093845260208401929092526040830152606082015260800190565b6040516020818303038152906040528051906020012090507f00000000000000000000000000000000000000000000000000000000000000006001600160a01b031663a78f9e36866040013587602001358489806060019061157b9190611fd5565b8b608001358c60a001356040518863ffffffff1660e01b81526004016115a79796959493929190612026565b602060405180830381865afa1580156115c4573d6000803e3d6000fd5b505050506040513d601f19601f820116820180604052508101906115e89190612080565b9695505050505050565b6040805160108082526102208201909252600091602082016102008036833701905050905060005b600354811015611671576003818154811061163757611637611d34565b906000526020600020015482828151811061165457611654611d34565b60209081029190910101528061166981611af4565b91505061161a565b506003545b60108110156116b057600182828151811061169357611693611d34565b6020908102919091010152806116a881611af4565b915050611676565b5060105b60018111156117715760005b6116cb6002836120a2565b81101561175e5761172f836116e18360026120b6565b815181106116f1576116f1611d34565b60200260200101518483600261170791906120b6565b611712906001611cf1565b8151811061172257611722611d34565b60200260200101516110a1565b83828151811061174157611741611d34565b60209081029190910101528061175681611af4565b9150506116c0565b5061176a6002826120a2565b90506116b4565b8160008151811061178457611784611d34565b60200260200101516004819055505050565b600060c082840312156117a857600080fd5b50919050565b600080604083850312156117c157600080fd5b82359150602083013567ffffffffffffffff8111156117df57600080fd5b6117eb85828601611796565b9150509250929050565b80356001600160a01b038116811461180c57600080fd5b919050565b60008060008060006080868803121561182957600080fd5b611832866117f5565b945060208601359350604086013567ffffffffffffffff8082111561185657600080fd5b818801915088601f83011261186a57600080fd5b81358181111561187957600080fd5b89602082850101111561188b57600080fd5b6020830195508094505060608801359150808211156118a957600080fd5b506118b688828901611796565b9150509295509295909350565b600080604083850312156118d657600080fd5b50508035926020909101359150565b6000602082840312156118f757600080fd5b5035919050565b60005b83811015611919578181015183820152602001611901565b50506000910152565b6000815180845261193a8160208601602086016118fe565b601f01601f19169290920160200192915050565b60018060a01b038716815285602082015260c06040820152600061197560c0830187611922565b6060830195909552506080810192909252151560a0909101529392505050565b634e487b7160e01b600052604160045260246000fd5b600080600080608085870312156119c157600080fd5b843593506119d1602086016117f5565b925060408501359150606085013567ffffffffffffffff808211156119f557600080fd5b818701915087601f830112611a0957600080fd5b813581811115611a1b57611a1b611995565b604051601f8201601f19908116603f01168101908382118183101715611a4357611a43611995565b816040528281528a6020848701011115611a5c57600080fd5b82602086016020830137600060208483010152809550505050505092959194509250565b602081526000611a936020830184611922565b9392505050565b6020808252825182820181905260009190848201906040850190845b81811015611ad257835183529284019291840191600101611ab6565b50909695505050505050565b634e487b7160e01b600052601160045260246000fd5b600060018201611b0657611b06611ade565b5060010190565b600181811c90821680611b2157607f821691505b6020821081036117a857634e487b7160e01b600052602260045260246000fd5b601f821115611b8b57600081815260208120601f850160051c81016020861015611b685750805b601f850160051c820191505b81811015611b8757828155600101611b74565b5050505b505050565b815167ffffffffffffffff811115611baa57611baa611995565b611bbe81611bb88454611b0d565b84611b41565b602080601f831160018114611bf35760008415611bdb5750858301515b600019600386901b1c1916600185901b178555611b87565b600085815260208120601f198616915b82811015611c2257888601518255948401946001909101908401611c03565b5085821015611c405787850151600019600388901b60f8161c191681555b5050505050600190811b01905550565b6001600160a01b0385168152602081018490526060604082018190528101829052818360808301376000818301608090810191909152601f909201601f191601019392505050565b6020808252600890820152672737ba1029b2b63360c11b604082015260600190565b6020808252601e908201527f4d757374206265206e6f6e2d7a65726f20736967732072657175697265640000604082015260600190565b8082018082111561118c5761118c611ade565b6020808252601690820152750a6d2cee640e4cae2ead2e4cac840e8dede40d0d2ced60531b604082015260600190565b634e487b7160e01b600052603260045260246000fd5b60008154611d5781611b0d565b60018281168015611d6f5760018114611d8457611db3565b60ff1984168752821515830287019450611db3565b8560005260208060002060005b85811015611daa5781548a820152908401908201611d91565b50505082870194505b5050505092915050565b60006bffffffffffffffffffffffff19808960601b168352876014840152866034840152808660601b16605484015250836068830152611e006088830184611d4a565b98975050505050505050565b60006bffffffffffffffffffffffff19808960601b168352876014840152866034840152808660601b166054840152508360688301528251611e558160888501602087016118fe565b91909101608801979650505050505050565b60008251611e798184602087016118fe565b9190910192915050565b600060208284031215611e9557600080fd5b5051919050565b8181038181111561118c5761118c611ade565b634e487b7160e01b600052603160045260246000fd5b634e487b7160e01b600052601260045260246000fd5b600082611eea57611eea611ec5565b500690565b60408101818360005b6002811015611f17578151835260209283019290910190600101611ef8565b50505092915050565b6000611a938284611d4a565b60018060a01b03851681526000602085818401526080604084015260008554611f5481611b0d565b80608087015260a0600180841660008114611f765760018114611f9057611fbe565b60ff1985168984015283151560051b890183019550611fbe565b8a6000528660002060005b85811015611fb65781548b8201860152908301908801611f9b565b8a0184019650505b50505050508381036060850152611e008186611922565b6000808335601e19843603018112611fec57600080fd5b83018035915067ffffffffffffffff82111561200757600080fd5b6020019150600581901b360382131561201f57600080fd5b9250929050565b87815286602082015285604082015260c060608201528360c0820152600060018060fb1b0385111561205757600080fd5b8460051b808760e085013760808301949094525060a08101919091520160e00195945050505050565b60006020828403121561209257600080fd5b81518015158114611a9357600080fd5b6000826120b1576120b1611ec5565b500490565b808202811582820484141761118c5761118c611ade56fea26469706673582212202bd2e426dc1cc05b9bd2023a588d628ab7c7303615b69a1546aa9f3ffeb8d80564736f6c63430008140033",
  "deployedBytecode": "0x60806040526004361061016a5760003560e01c80637ee68373116100d1578063affed0e01161008a578063e4cf5a2c11610064578063e4cf5a2c146104b0578063eaaba559146104e4578063ee22610b14610504578063f1ea66d41461053157600080fd5b8063affed0e014610464578063ce757d291461047a578063d84989f21461049057600080fd5b80637ee68373146103565780639a8a0592146103a25780639e4e7318146103b8578063a0c1deb4146103cd578063a8898a20146103e2578063aad240611461042457600080fd5b806343e9d2521161012357806343e9d2521461028d57806349ce8997146102ad5780634fe840f5146102cd578063545a4a3c1461030157806359ecd657146103215780636a53f98a1461033657600080fd5b80630e66b79b146101b05780631187deef146101d257806316ad6a9b146102055780632eb4a7ab146102255780632ef853441461023b5780633034a7421461026d57600080fd5b366101ab576040805134815247602082015233917f90890809c654f11d6e72a28fa60149770a0d11ec6c92319d6ceb2bb0a4ea1a15910160405180910390a2005b600080fd5b3480156101bc57600080fd5b506101d06101cb3660046117ae565b610553565b005b3480156101de57600080fd5b506101f26101ed366004611811565b610710565b6040519081526020015b60405180910390f35b34801561021157600080fd5b506101d06102203660046118c3565b61096b565b34801561023157600080fd5b506101f260045481565b34801561024757600080fd5b5061025b6102563660046118e5565b610b60565b6040516101fc9695949392919061194e565b34801561027957600080fd5b506101d06102883660046118e5565b610c4e565b34801561029957600080fd5b506101f26102a83660046118e5565b610cb4565b3480156102b957600080fd5b506101f26102c83660046118e5565b610d0d565b3480156102d957600080fd5b506101f27f000000000000000000000000000000000000000000000000000000000000000081565b34801561030d57600080fd5b506101f261031c3660046119ab565b610d2e565b34801561032d57600080fd5b506101f2601081565b34801561034257600080fd5b5061025b6103513660046118e5565b610d6b565b34801561036257600080fd5b5061038a7f000000000000000000000000000000000000000000000000000000000000000081565b6040516001600160a01b0390911681526020016101fc565b3480156103ae57600080fd5b506101f260005481565b3480156103c457600080fd5b506101f2610e37565b3480156103d957600080fd5b506003546101f2565b3480156103ee57600080fd5b506101f260405169756c747261706c6f6e6b60b01b6020820152602a016040516020818303038152906040528051906020012081565b34801561043057600080fd5b5061045461043f3660046118e5565b60066020526000908152604090205460ff1681565b60405190151581526020016101fc565b34801561047057600080fd5b506101f260015481565b34801561048657600080fd5b506101f260025481565b34801561049c57600080fd5b506101d06104ab3660046118c3565b610e97565b3480156104bc57600080fd5b506101f27f30644e72e131a029b85045b68181585d2833e84879b9709143e1f593f000000181565b3480156104f057600080fd5b506101f26104ff3660046118c3565b6110a1565b34801561051057600080fd5b5061052461051f3660046118e5565b611192565b6040516101fc9190611a80565b34801561053d57600080fd5b5061054661139f565b6040516101fc9190611a9a565b600082815260056020526040902080546001600160a01b03166105ac5760405162461bcd60e51b815260206004820152600c60248201526b151e081b9bdd08195e1a5cdd60a21b60448201526064015b60405180910390fd5b600581015460ff16156105f75760405162461bcd60e51b8152602060048201526013602482015272151e08185b1c9958591e48195e1958dd5d1959606a1b60448201526064016105a3565b813560009081526006602052604090205460ff16156106515760405162461bcd60e51b8152602060048201526016602482015275139d5b1b1a599a595c88185b1c9958591e481d5cd95960521b60448201526064016105a3565b600061065c84610cb4565b905061066881846113f7565b6106a45760405162461bcd60e51b815260206004820152600d60248201526c24b73b30b634b210383937b7b360991b60448201526064016105a3565b82356000908152600660205260408120805460ff19166001179055600483018054916106cf83611af4565b90915550506040518335815284907fe74968fca746c9d223b4fe7484b49005880b3377127f35fe73ba7a035f1c54779060200160405180910390a250505050565b600060015490506040518060c00160405280876001600160a01b0316815260200186815260200185858080601f0160208091040260200160405190810160405280939291908181526020018383808284376000920182905250938552505060028054602080860191909152604080860185905260609095018490528684526005815292849020855181546001600160a01b0319166001600160a01b039091161781559285015160018401559284015191928301916107cf915082611b90565b50606082015160038201556080820151600482015560a0909101516005909101805460ff1916911515919091179055813560009081526006602052604090205460ff16156108585760405162461bcd60e51b8152602060048201526016602482015275139d5b1b1a599a595c88185b1c9958591e481d5cd95960521b60448201526064016105a3565b600061086382610cb4565b905061086f81846113f7565b6108ab5760405162461bcd60e51b815260206004820152600d60248201526c24b73b30b634b210383937b7b360991b60448201526064016105a3565b82356000908152600660209081526040808320805460ff19166001908117909155858452600590925282206004018190558054916108e883611af4565b9190505550817f561275eec320a77ef0e4076251bf2ba80573d7b921ecd629f83ea2ee47c9cdfe888888886040516109239493929190611c50565b60405180910390a26040518335815282907fe74968fca746c9d223b4fe7484b49005880b3377127f35fe73ba7a035f1c54779060200160405180910390a25095945050505050565b33301461098a5760405162461bcd60e51b81526004016105a390611c98565b816000036109cf5760405162461bcd60e51b8152602060048201526012602482015271125b9d985b1a590818dbdb5b5a5d1b595b9d60721b60448201526064016105a3565b600354601011610a175760405162461bcd60e51b815260206004820152601360248201527213585e081cda59db995c9cc81c995858da1959606a1b60448201526064016105a3565b60008111610a375760405162461bcd60e51b81526004016105a390611cba565b600354610a45906001611cf1565b811115610a645760405162461bcd60e51b81526004016105a390611d04565b60005b600354811015610ae3578260038281548110610a8557610a85611d34565b906000526020600020015403610ad15760405162461bcd60e51b8152602060048201526011602482015270436f6d6d69746d656e742065786973747360781b60448201526064016105a3565b80610adb81611af4565b915050610a67565b50600380546001810182556000919091527fc2575a0e9e593c00f959f8c92f12db2869c3395a3b0502d05e2516446f71f85b018290556002819055610b266115f2565b6040516001815282907f33129f9e36e06e860f22ce83276273f4d83d31e9fd4a0d3a4dbac9d2da4f9d0d9060200160405180910390a25050565b60008181526005602081905260408220805460018201546004830154600384015494840154600285018054889760609789978897889792966001600160a01b0390921695909490939160ff16908490610bb890611b0d565b80601f0160208091040260200160405190810160405280929190818152602001828054610be490611b0d565b8015610c315780601f10610c0657610100808354040283529160200191610c31565b820191906000526020600020905b815481529060010190602001808311610c1457829003601f168201915b505050505093509650965096509650965096505091939550919395565b333014610c6d5760405162461bcd60e51b81526004016105a390611c98565b60008111610c8d5760405162461bcd60e51b81526004016105a390611cba565b600354811115610caf5760405162461bcd60e51b81526004016105a390611d04565b600255565b600081815260056020908152604080832083548154600183015493519294610cef94309489936001600160a01b031692600289019101611dbd565b60405160208183030381529060405280519060200120915050919050565b60038181548110610d1d57600080fd5b600091825260209091200154905081565b60008054604051610d4b9130918890889088908890602001611e0c565b604051602081830303815290604052805190602001209050949350505050565b6005602052600090815260409020805460018201546002830180546001600160a01b03909316939192610d9d90611b0d565b80601f0160208091040260200160405190810160405280929190818152602001828054610dc990611b0d565b8015610e165780601f10610deb57610100808354040283529160200191610e16565b820191906000526020600020905b815481529060010190602001808311610df957829003601f168201915b50505050600383015460048401546005909401549293909290915060ff1686565b60408051600081526020810191829052600291610e549190611e67565b602060405180830381855afa158015610e71573d6000803e3d6000fd5b5050506040513d601f19601f82011682018060405250810190610e949190611e83565b81565b333014610eb65760405162461bcd60e51b81526004016105a390611c98565b600354600110610f085760405162461bcd60e51b815260206004820152601960248201527f43616e6e6f742072656d6f7665206c617374207369676e65720000000000000060448201526064016105a3565b60008111610f285760405162461bcd60e51b81526004016105a390611cba565b600354610f3790600190611e9c565b811115610f565760405162461bcd60e51b81526004016105a390611d04565b6000805b600354811015611014578360038281548110610f7857610f78611d34565b9060005260206000200154036110025760038054610f9890600190611e9c565b81548110610fa857610fa8611d34565b906000526020600020015460038281548110610fc657610fc6611d34565b6000918252602090912001556003805480610fe357610fe3611eaf565b6001900381819060005260206000200160009055905560019150611014565b8061100c81611af4565b915050610f5a565b50806110595760405162461bcd60e51b815260206004820152601460248201527310dbdb5b5a5d1b595b9d081b9bdd08199bdd5b9960621b60448201526064016105a3565b60028290556110666115f2565b6040516000815283907f33129f9e36e06e860f22ce83276273f4d83d31e9fd4a0d3a4dbac9d2da4f9d0d9060200160405180910390a2505050565b6000806110ce7f30644e72e131a029b85045b68181585d2833e84879b9709143e1f593f000000185611edb565b905060006110fc7f30644e72e131a029b85045b68181585d2833e84879b9709143e1f593f000000185611edb565b604080518082018252848152602081018390529051632b0aac7f60e11b815291925073__$75f79a42d9bcbdbb69ad79ebd80f556f39$__9163561558fe9161114691600401611eef565b602060405180830381865af4158015611163573d6000803e3d6000fd5b505050506040513d601f19601f820116820180604052508101906111879190611e83565b925050505b92915050565b60008181526005602052604090208054606091906001600160a01b03166111ea5760405162461bcd60e51b815260206004820152600c60248201526b151e081b9bdd08195e1a5cdd60a21b60448201526064016105a3565b600581015460ff16156112355760405162461bcd60e51b8152602060048201526013602482015272151e08185b1c9958591e48195e1958dd5d1959606a1b60448201526064016105a3565b600254816004015410156112835760405162461bcd60e51b81526020600482015260156024820152744e6f7420656e6f756768207369676e61747572657360581b60448201526064016105a3565b60058101805460ff1916600190811790915560028054600384015582549183015460405160009384936001600160a01b0390911692916112c591870190611f20565b60006040518083038185875af1925050503d8060008114611302576040519150601f19603f3d011682016040523d82523d6000602084013e611307565b606091505b5091509150816113455760405162461bcd60e51b8152602060048201526009602482015268151e0819985a5b195960ba1b60448201526064016105a3565b8254600184015460405187927f1654479f61781d185c419742a20e599a227ae1840317c8a74ceda5eb6166b8269261138f926001600160a01b039092169160028901908790611f2c565b60405180910390a2949350505050565b606060038054806020026020016040519081016040528092919081815260200182805480156113ed57602002820191906000526020600020905b8154815260200190600101908083116113d9575b5050505050905090565b6000806114058460016110a1565b6004546040805160208101849052908101919091528435606082015290915060009060800160408051601f198184030181529082905269756c747261706c6f6e6b60b01b60208301529150600090602a0160408051601f1981840301815282825280516020918201206000845290830191829052917f0000000000000000000000000000000000000000000000000000000000000000916002916114a891611e67565b602060405180830381855afa1580156114c5573d6000803e3d6000fd5b5050506040513d601f19601f820116820180604052508101906114e89190611e83565b8480519060200120604051602001611519949392919093845260208401929092526040830152606082015260800190565b6040516020818303038152906040528051906020012090507f00000000000000000000000000000000000000000000000000000000000000006001600160a01b031663a78f9e36866040013587602001358489806060019061157b9190611fd5565b8b608001358c60a001356040518863ffffffff1660e01b81526004016115a79796959493929190612026565b602060405180830381865afa1580156115c4573d6000803e3d6000fd5b505050506040513d601f19601f820116820180604052508101906115e89190612080565b9695505050505050565b6040805160108082526102208201909252600091602082016102008036833701905050905060005b600354811015611671576003818154811061163757611637611d34565b906000526020600020015482828151811061165457611654611d34565b60209081029190910101528061166981611af4565b91505061161a565b506003545b60108110156116b057600182828151811061169357611693611d34565b6020908102919091010152806116a881611af4565b915050611676565b5060105b60018111156117715760005b6116cb6002836120a2565b81101561175e5761172f836116e18360026120b6565b815181106116f1576116f1611d34565b60200260200101518483600261170791906120b6565b611712906001611cf1565b8151811061172257611722611d34565b60200260200101516110a1565b83828151811061174157611741611d34565b60209081029190910101528061175681611af4565b9150506116c0565b5061176a6002826120a2565b90506116b4565b8160008151811061178457611784611d34565b60200260200101516004819055505050565b600060c082840312156117a857600080fd5b50919050565b600080604083850312156117c157600080fd5b82359150602083013567ffffffffffffffff8111156117df57600080fd5b6117eb85828601611796565b9150509250929050565b80356001600160a01b038116811461180c57600080fd5b919050565b60008060008060006080868803121561182957600080fd5b611832866117f5565b945060208601359350604086013567ffffffffffffffff8082111561185657600080fd5b818801915088601f83011261186a57600080fd5b81358181111561187957600080fd5b89602082850101111561188b57600080fd5b6020830195508094505060608801359150808211156118a957600080fd5b506118b688828901611796565b9150509295509295909350565b600080604083850312156118d657600080fd5b50508035926020909101359150565b6000602082840312156118f757600080fd5b5035919050565b60005b83811015611919578181015183820152602001611901565b50506000910152565b6000815180845261193a8160208601602086016118fe565b601f01601f19169290920160200192915050565b60018060a01b038716815285602082015260c06040820152600061197560c0830187611922565b6060830195909552506080810192909252151560a0909101529392505050565b634e487b7160e01b600052604160045260246000fd5b600080600080608085870312156119c157600080fd5b843593506119d1602086016117f5565b925060408501359150606085013567ffffffffffffffff808211156119f557600080fd5b818701915087601f830112611a0957600080fd5b813581811115611a1b57611a1b611995565b604051601f8201601f19908116603f01168101908382118183101715611a4357611a43611995565b816040528281528a6020848701011115611a5c57600080fd5b82602086016020830137600060208483010152809550505050505092959194509250565b602081526000611a936020830184611922565b9392505050565b6020808252825182820181905260009190848201906040850190845b81811015611ad257835183529284019291840191600101611ab6565b50909695505050505050565b634e487b7160e01b600052601160045260246000fd5b600060018201611b0657611b06611ade565b5060010190565b600181811c90821680611b2157607f821691505b6020821081036117a857634e487b7160e01b600052602260045260246000fd5b601f821115611b8b57600081815260208120601f850160051c81016020861015611b685750805b601f850160051c820191505b81811015611b8757828155600101611b74565b5050505b505050565b815167ffffffffffffffff811115611baa57611baa611995565b611bbe81611bb88454611b0d565b84611b41565b602080601f831160018114611bf35760008415611bdb5750858301515b600019600386901b1c1916600185901b178555611b87565b600085815260208120601f198616915b82811015611c2257888601518255948401946001909101908401611c03565b5085821015611c405787850151600019600388901b60f8161c191681555b5050505050600190811b01905550565b6001600160a01b0385168152602081018490526060604082018190528101829052818360808301376000818301608090810191909152601f909201601f191601019392505050565b6020808252600890820152672737ba1029b2b63360c11b604082015260600190565b6020808252601e908201527f4d757374206265206e6f6e2d7a65726f20736967732072657175697265640000604082015260600190565b8082018082111561118c5761118c611ade565b6020808252601690820152750a6d2cee640e4cae2ead2e4cac840e8dede40d0d2ced60531b604082015260600190565b634e487b7160e01b600052603260045260246000fd5b60008154611d5781611b0d565b60018281168015611d6f5760018114611d8457611db3565b60ff1984168752821515830287019450611db3565b8560005260208060002060005b85811015611daa5781548a820152908401908201611d91565b50505082870194505b5050505092915050565b60006bffffffffffffffffffffffff19808960601b168352876014840152866034840152808660601b16605484015250836068830152611e006088830184611d4a565b98975050505050505050565b60006bffffffffffffffffffffffff19808960601b168352876014840152866034840152808660601b166054840152508360688301528251611e558160888501602087016118fe565b91909101608801979650505050505050565b60008251611e798184602087016118fe565b9190910192915050565b600060208284031215611e9557600080fd5b5051919050565b8181038181111561118c5761118c611ade565b634e487b7160e01b600052603160045260246000fd5b634e487b7160e01b600052601260045260246000fd5b600082611eea57611eea611ec5565b500690565b60408101818360005b6002811015611f17578151835260209283019290910190600101611ef8565b50505092915050565b6000611a938284611d4a565b60018060a01b03851681526000602085818401526080604084015260008554611f5481611b0d565b80608087015260a0600180841660008114611f765760018114611f9057611fbe565b60ff1985168984015283151560051b890183019550611fbe565b8a6000528660002060005b85811015611fb65781548b8201860152908301908801611f9b565b8a0184019650505b50505050508381036060850152611e008186611922565b6000808335601e19843603018112611fec57600080fd5b83018035915067ffffffffffffffff82111561200757600080fd5b6020019150600581901b360382131561201f57600080fd5b9250929050565b87815286602082015285604082015260c060608201528360c0820152600060018060fb1b0385111561205757600080fd5b8460051b808760e085013760808301949094525060a08101919091520160e00195945050505050565b60006020828403121561209257600080fd5b81518015158114611a9357600080fd5b6000826120b1576120b1611ec5565b500490565b808202811582820484141761118c5761118c611ade56fea26469706673582212202bd2e426dc1cc05b9bd2023a588d628ab7c7303615b69a1546aa9f3ffeb8d80564736f6c63430008140033",
  "libraries": {
    "PoseidonT3": "0x3333333C0A88F9BE4fd23ed0536F9B6c427e3B93"
  },
  "devdoc": {
    "kind": "dev",
    "methods": {},
    "version": 1
  },
  "userdoc": {
    "kind": "user",
    "methods": {},
    "version": 1
  },
  "storageLayout": {
    "storage": [
      {
        "astId": 118,
        "contract": "contracts/MetaMultiSigWallet.sol:MetaMultiSigWallet",
        "label": "chainId",
        "offset": 0,
        "slot": "0",
        "type": "t_uint256"
      },
      {
        "astId": 120,
        "contract": "contracts/MetaMultiSigWallet.sol:MetaMultiSigWallet",
        "label": "nonce",
        "offset": 0,
        "slot": "1",
        "type": "t_uint256"
      },
      {
        "astId": 122,
        "contract": "contracts/MetaMultiSigWallet.sol:MetaMultiSigWallet",
        "label": "signaturesRequired",
        "offset": 0,
        "slot": "2",
        "type": "t_uint256"
      },
      {
        "astId": 125,
        "contract": "contracts/MetaMultiSigWallet.sol:MetaMultiSigWallet",
        "label": "commitments",
        "offset": 0,
        "slot": "3",
        "type": "t_array(t_uint256)dyn_storage"
      },
      {
        "astId": 127,
        "contract": "contracts/MetaMultiSigWallet.sol:MetaMultiSigWallet",
        "label": "merkleRoot",
        "offset": 0,
        "slot": "4",
        "type": "t_uint256"
      },
      {
        "astId": 132,
        "contract": "contracts/MetaMultiSigWallet.sol:MetaMultiSigWallet",
        "label": "pendingTxs",
        "offset": 0,
        "slot": "5",
        "type": "t_mapping(t_uint256,t_struct(PendingTx)112_storage)"
      },
      {
        "astId": 136,
        "contract": "contracts/MetaMultiSigWallet.sol:MetaMultiSigWallet",
        "label": "usedNullifiers",
        "offset": 0,
        "slot": "6",
        "type": "t_mapping(t_uint256,t_bool)"
      }
    ],
    "types": {
      "t_address": {
        "encoding": "inplace",
        "label": "address",
        "numberOfBytes": "20"
      },
      "t_array(t_uint256)dyn_storage": {
        "base": "t_uint256",
        "encoding": "dynamic_array",
        "label": "uint256[]",
        "numberOfBytes": "32"
      },
      "t_bool": {
        "encoding": "inplace",
        "label": "bool",
        "numberOfBytes": "1"
      },
      "t_bytes_storage": {
        "encoding": "bytes",
        "label": "bytes",
        "numberOfBytes": "32"
      },
      "t_mapping(t_uint256,t_bool)": {
        "encoding": "mapping",
        "key": "t_uint256",
        "label": "mapping(uint256 => bool)",
        "numberOfBytes": "32",
        "value": "t_bool"
      },
      "t_mapping(t_uint256,t_struct(PendingTx)112_storage)": {
        "encoding": "mapping",
        "key": "t_uint256",
        "label": "mapping(uint256 => struct MetaMultiSigWallet.PendingTx)",
        "numberOfBytes": "32",
        "value": "t_struct(PendingTx)112_storage"
      },
      "t_struct(PendingTx)112_storage": {
        "encoding": "inplace",
        "label": "struct MetaMultiSigWallet.PendingTx",
        "members": [
          {
            "astId": 101,
            "contract": "contracts/MetaMultiSigWallet.sol:MetaMultiSigWallet",
            "label": "to",
            "offset": 0,
            "slot": "0",
            "type": "t_address"
          },
          {
            "astId": 103,
            "contract": "contracts/MetaMultiSigWallet.sol:MetaMultiSigWallet",
            "label": "value",
            "offset": 0,
            "slot": "1",
            "type": "t_uint256"
          },
          {
            "astId": 105,
            "contract": "contracts/MetaMultiSigWallet.sol:MetaMultiSigWallet",
            "label": "data",
            "offset": 0,
            "slot": "2",
            "type": "t_bytes_storage"
          },
          {
            "astId": 107,
            "contract": "contracts/MetaMultiSigWallet.sol:MetaMultiSigWallet",
            "label": "requiredApprovalsWhenExecuted",
            "offset": 0,
            "slot": "3",
            "type": "t_uint256"
          },
          {
            "astId": 109,
            "contract": "contracts/MetaMultiSigWallet.sol:MetaMultiSigWallet",
            "label": "validSignatures",
            "offset": 0,
            "slot": "4",
            "type": "t_uint256"
          },
          {
            "astId": 111,
            "contract": "contracts/MetaMultiSigWallet.sol:MetaMultiSigWallet",
            "label": "executed",
            "offset": 0,
            "slot": "5",
            "type": "t_bool"
          }
        ],
        "numberOfBytes": "192"
      },
      "t_uint256": {
        "encoding": "inplace",
        "label": "uint256",
        "numberOfBytes": "32"
      }
    }
  }
}