{
  "address": "0xE146bA86fef4056566D7EE9dBB9fFaCf8A994AC2",
  "abi": [
    {
      "inputs": [
        {
          "internalType": "address",
          "name": "_zkvContract",
          "type": "address"
        },
        {
          "internalType": "bytes32",
          "name": "_vkHash",
          "type": "bytes32"
        },
        {
          "internalType": "bytes32[]",
          "name": "_allowedPoolIds",
          "type": "bytes32[]"
        }
      ],
      "stateMutability": "nonpayable",
      "type": "constructor"
    },
    {
      "inputs": [
        {
          "internalType": "address",
          "name": "target",
          "type": "address"
        }
      ],
      "name": "AddressEmptyCode",
      "type": "error"
    },
    {
      "inputs": [
        {
          "internalType": "address",
          "name": "account",
          "type": "address"
        }
      ],
      "name": "AddressInsufficientBalance",
      "type": "error"
    },
    {
      "inputs": [],
      "name": "FailedInnerCall",
      "type": "error"
    },
    {
      "inputs": [],
      "name": "ReentrancyGuardReentrantCall",
      "type": "error"
    },
    {
      "inputs": [
        {
          "internalType": "address",
          "name": "token",
          "type": "address"
        }
      ],
      "name": "SafeERC20FailedOperation",
      "type": "error"
    },
    {
      "anonymous": false,
      "inputs": [
        {
          "indexed": true,
          "internalType": "bytes32",
          "name": "commitment",
          "type": "bytes32"
        },
        {
          "indexed": false,
          "internalType": "uint256",
          "name": "leafIndex",
          "type": "uint256"
        },
        {
          "indexed": false,
          "internalType": "uint256",
          "name": "timestamp",
          "type": "uint256"
        },
        {
          "indexed": true,
          "internalType": "address",
          "name": "token",
          "type": "address"
        },
        {
          "indexed": false,
          "internalType": "uint256",
          "name": "denomination",
          "type": "uint256"
        }
      ],
      "name": "Deposit",
      "type": "event"
    },
    {
      "anonymous": false,
      "inputs": [
        {
          "indexed": true,
          "internalType": "address",
          "name": "recipient",
          "type": "address"
        },
        {
          "indexed": false,
          "internalType": "bytes32",
          "name": "nullifierHash",
          "type": "bytes32"
        },
        {
          "indexed": true,
          "internalType": "address",
          "name": "token",
          "type": "address"
        },
        {
          "indexed": false,
          "internalType": "uint256",
          "name": "denomination",
          "type": "uint256"
        },
        {
          "indexed": false,
          "internalType": "uint256",
          "name": "timestamp",
          "type": "uint256"
        }
      ],
      "name": "Withdrawal",
      "type": "event"
    },
    {
      "inputs": [],
      "name": "BN254_PRIME",
      "outputs": [
        {
          "internalType": "uint256",
          "name": "",
          "type": "uint256"
        }
      ],
      "stateMutability": "view",
      "type": "function"
    },
    {
      "inputs": [],
      "name": "PROVING_SYSTEM_ID",
      "outputs": [
        {
          "internalType": "bytes32",
          "name": "",
          "type": "bytes32"
        }
      ],
      "stateMutability": "view",
      "type": "function"
    },
    {
      "inputs": [],
      "name": "ROOT_HISTORY_SIZE",
      "outputs": [
        {
          "internalType": "uint256",
          "name": "",
          "type": "uint256"
        }
      ],
      "stateMutability": "view",
      "type": "function"
    },
    {
      "inputs": [],
      "name": "TREE_DEPTH",
      "outputs": [
        {
          "internalType": "uint256",
          "name": "",
          "type": "uint256"
        }
      ],
      "stateMutability": "view",
      "type": "function"
    },
    {
      "inputs": [],
      "name": "VERSION_HASH",
      "outputs": [
        {
          "internalType": "bytes32",
          "name": "",
          "type": "bytes32"
        }
      ],
      "stateMutability": "view",
      "type": "function"
    },
    {
      "inputs": [
        {
          "internalType": "bytes32",
          "name": "",
          "type": "bytes32"
        }
      ],
      "name": "allowedDenominations",
      "outputs": [
        {
          "internalType": "bool",
          "name": "",
          "type": "bool"
        }
      ],
      "stateMutability": "view",
      "type": "function"
    },
    {
      "inputs": [
        {
          "internalType": "bytes32",
          "name": "",
          "type": "bytes32"
        }
      ],
      "name": "commitmentUsed",
      "outputs": [
        {
          "internalType": "bool",
          "name": "",
          "type": "bool"
        }
      ],
      "stateMutability": "view",
      "type": "function"
    },
    {
      "inputs": [
        {
          "internalType": "address",
          "name": "token",
          "type": "address"
        },
        {
          "internalType": "uint256",
          "name": "denomination",
          "type": "uint256"
        },
        {
          "internalType": "bytes32",
          "name": "commitment",
          "type": "bytes32"
        }
      ],
      "name": "deposit",
      "outputs": [],
      "stateMutability": "payable",
      "type": "function"
    },
    {
      "inputs": [
        {
          "internalType": "uint256",
          "name": "level",
          "type": "uint256"
        }
      ],
      "name": "getZeroHash",
      "outputs": [
        {
          "internalType": "bytes32",
          "name": "",
          "type": "bytes32"
        }
      ],
      "stateMutability": "view",
      "type": "function"
    },
    {
      "inputs": [
        {
          "internalType": "bytes32",
          "name": "poolId",
          "type": "bytes32"
        },
        {
          "internalType": "bytes32",
          "name": "root",
          "type": "bytes32"
        }
      ],
      "name": "isKnownRoot",
      "outputs": [
        {
          "internalType": "bool",
          "name": "",
          "type": "bool"
        }
      ],
      "stateMutability": "view",
      "type": "function"
    },
    {
      "inputs": [
        {
          "internalType": "bytes32",
          "name": "",
          "type": "bytes32"
        },
        {
          "internalType": "bytes32",
          "name": "",
          "type": "bytes32"
        }
      ],
      "name": "nullifierUsed",
      "outputs": [
        {
          "internalType": "bool",
          "name": "",
          "type": "bool"
        }
      ],
      "stateMutability": "view",
      "type": "function"
    },
    {
      "inputs": [
        {
          "internalType": "bytes32",
          "name": "",
          "type": "bytes32"
        },
        {
          "internalType": "uint256",
          "name": "",
          "type": "uint256"
        }
      ],
      "name": "rootHistory",
      "outputs": [
        {
          "internalType": "bytes32",
          "name": "",
          "type": "bytes32"
        }
      ],
      "stateMutability": "view",
      "type": "function"
    },
    {
      "inputs": [
        {
          "internalType": "bytes32",
          "name": "",
          "type": "bytes32"
        }
      ],
      "name": "rootHistoryIndex",
      "outputs": [
        {
          "internalType": "uint256",
          "name": "",
          "type": "uint256"
        }
      ],
      "stateMutability": "view",
      "type": "function"
    },
    {
      "inputs": [
        {
          "internalType": "bytes32",
          "name": "",
          "type": "bytes32"
        }
      ],
      "name": "trees",
      "outputs": [
        {
          "internalType": "uint256",
          "name": "nextIndex",
          "type": "uint256"
        }
      ],
      "stateMutability": "view",
      "type": "function"
    },
    {
      "inputs": [],
      "name": "vkHash",
      "outputs": [
        {
          "internalType": "bytes32",
          "name": "",
          "type": "bytes32"
        }
      ],
      "stateMutability": "view",
      "type": "function"
    },
    {
      "inputs": [
        {
          "internalType": "address",
          "name": "token",
          "type": "address"
        },
        {
          "internalType": "uint256",
          "name": "denomination",
          "type": "uint256"
        },
        {
          "internalType": "address",
          "name": "recipient",
          "type": "address"
        },
        {
          "internalType": "bytes32",
          "name": "nullifierHash",
          "type": "bytes32"
        },
        {
          "internalType": "bytes32",
          "name": "root",
          "type": "bytes32"
        },
        {
          "components": [
            {
              "internalType": "uint256",
              "name": "aggregationId",
              "type": "uint256"
            },
            {
              "internalType": "uint256",
              "name": "domainId",
              "type": "uint256"
            },
            {
              "internalType": "bytes32[]",
              "name": "zkMerklePath",
              "type": "bytes32[]"
            },
            {
              "internalType": "uint256",
              "name": "leafCount",
              "type": "uint256"
            },
            {
              "internalType": "uint256",
              "name": "index",
              "type": "uint256"
            }
          ],
          "internalType": "struct Mixer.MixerProof",
          "name": "proof",
          "type": "tuple"
        }
      ],
      "name": "withdraw",
      "outputs": [],
      "stateMutability": "nonpayable",
      "type": "function"
    },
    {
      "inputs": [],
      "name": "zkvContract",
      "outputs": [
        {
          "internalType": "address",
          "name": "",
          "type": "address"
        }
      ],
      "stateMutability": "view",
      "type": "function"
    },
    {
      "stateMutability": "payable",
      "type": "receive"
    }
  ],
  "transactionHash": "0x8300ac3ea5442848bfa8daada542f53425c84934d2f0f1c39a482bc0d6d1b3c3",
  "args": [
    "0x0807C544D38aE7729f8798388d89Be6502A1e8A8",
    "0x29236cc027580a6be3e581d9625a48710d39eb92e2c68e7b5e42841d11affe00",
    [
      "0xe904c2b027ada6080c203c94ae7a6948682023cdbf53aef00dbc800ef97a132e",
      "0x73a9f33d373b966d8ef30721adda93c14785f3be5d60a65981b922edad5917c6",
      "0xe9cb62a4a45543a0c652e488f81c3baa93c972fd0c6059a7897348da7ed660ce",
      "0x8d7b16505c134c1e5e8fd93278eb58ceee3024f49e92ca2fecda1b0d6c3fd449",
      "0x5ee833cd9dfc512c28212e4c4d86d6ced1e2b7e9bf00e059622aa0da2453866f",
      "0x00af3e20b42328efaed5840434b4640c292ec4e2bf58e0f26a68a950ec0a3230",
      "0x14e2f9fed2893099970ec49b29265bf80214911000fa9ac8a6dde6622fd3d096",
      "0x52a7eac5043ec2f665ba834640a521ca90d6f3c78855d0d8be97b9f1c60e49b3",
      "0x6b3f5a37d6af77d440225f4966b11834b98790dd1695f4945cd699864274b13d",
      "0x30f37af7a18689c55d9e61755c02bacd01e2b95e70a960fc574b85e9aa572e30",
      "0x6cd8db6810315a1313f8efc36e034ed2c17d63c46a13a1293ab0ee068e9278ae",
      "0xcff23118d44901d505f3292b10fee5be8f27483b8d33f49cad2352425973a4e3",
      "0x16e60ccd514ceaa2e7a82e076aede6d01181e7422b479ed39cfc5d0ce6e11e0a"
    ]
  ],
  "numDeployments": 2,
  "solcInputHash": "7f0373dedc61097daaf6a7dfc1f19d7a",
  "bytecode": "0x60c06040523480156200001157600080fd5b506040516200189f3803806200189f8339810160408190526200003491620002b6565b60016000556001600160a01b038316620000825760405162461bcd60e51b815260206004820152600b60248201526a24b73b30b634b2103d35bb60a91b604482015260640160405180910390fd5b6001600160a01b03831660805260a082905260005b8151811015620000ff57600160056000848481518110620000bc57620000bc620003ac565b6020026020010151815260200190815260200160002060006101000a81548160ff0219169083151502179055508080620000f690620003d8565b91505062000097565b506200010a62000113565b5050506200047a565b600060075560015b60148111620001a35762000176600762000137600184620003f4565b601581106200014a576200014a620003ac565b015460076200015b600185620003f4565b601581106200016e576200016e620003ac565b0154620001a6565b600782601581106200018c576200018c620003ac565b0155806200019a81620003d8565b9150506200011b565b50565b600080620001d57f30644e72e131a029b85045b68181585d2833e84879b9709143e1f593f0000001856200040a565b90506000620002057f30644e72e131a029b85045b68181585d2833e84879b9709143e1f593f0000001856200040a565b604080518082018252848152602081018390529051632b0aac7f60e11b8152919250733333333C0A88F9BE4fd23ed0536F9B6c427e3B939163561558fe9162000251916004016200042d565b602060405180830381865af41580156200026f573d6000803e3d6000fd5b505050506040513d601f19601f8201168201806040525081019062000295919062000460565b925050505b92915050565b634e487b7160e01b600052604160045260246000fd5b600080600060608486031215620002cc57600080fd5b83516001600160a01b0381168114620002e457600080fd5b60208581015160408701519295509350906001600160401b03808211156200030b57600080fd5b818701915087601f8301126200032057600080fd5b815181811115620003355762000335620002a0565b8060051b604051601f19603f830116810181811085821117156200035d576200035d620002a0565b60405291825284820192508381018501918a8311156200037c57600080fd5b938501935b828510156200039c5784518452938501939285019262000381565b8096505050505050509250925092565b634e487b7160e01b600052603260045260246000fd5b634e487b7160e01b600052601160045260246000fd5b600060018201620003ed57620003ed620003c2565b5060010190565b818103818111156200029a576200029a620003c2565b6000826200042857634e487b7160e01b600052601260045260246000fd5b500690565b60408101818360005b60028110156200045757815183526020928301929091019060010162000436565b50505092915050565b6000602082840312156200047357600080fd5b5051919050565b60805160a0516113f1620004ae600039600081816101f50152610dac0152600081816102640152610e6301526113f16000f3fe6080604052600436106101025760003560e01c80637fb345f211610095578063d523228311610064578063d523228314610337578063dc85085e14610357578063e4cf5a2c14610387578063efac630d146103bb578063f1650536146103db57600080fd5b80637fb345f21461029e5780639e4e7318146102cb578063a8898a20146102e0578063cd87a3b41461032257600080fd5b80632f5b27d4116100d15780632f5b27d4146101c35780634fe840f5146101e35780637d2fbc97146102175780637ee683731461025257600080fd5b806305977f941461010e578063156428ba1461014357806326b3293f14610173578063276f22c31461018857600080fd5b3661010957005b600080fd5b34801561011a57600080fd5b5061012e6101293660046110f0565b6103f0565b60405190151581526020015b60405180910390f35b34801561014f57600080fd5b5061012e61015e366004611112565b60066020526000908152604090205460ff1681565b610186610181366004611147565b6104ad565b005b34801561019457600080fd5b506101b56101a3366004611112565b60036020526000908152604090205481565b60405190815260200161013a565b3480156101cf57600080fd5b506101b56101de3660046110f0565b6107ca565b3480156101ef57600080fd5b506101b57f000000000000000000000000000000000000000000000000000000000000000081565b34801561022357600080fd5b5061012e6102323660046110f0565b600460209081526000928352604080842090915290825290205460ff1681565b34801561025e57600080fd5b506102867f000000000000000000000000000000000000000000000000000000000000000081565b6040516001600160a01b03909116815260200161013a565b3480156102aa57600080fd5b506101b56102b9366004611112565b60016020526000908152604090205481565b3480156102d757600080fd5b506101b56107ef565b3480156102ec57600080fd5b506101b560405169756c747261706c6f6e6b60b01b6020820152602a016040516020818303038152906040528051906020012081565b34801561032e57600080fd5b506101b5601e81565b34801561034357600080fd5b506101b5610352366004611112565b61084f565b34801561036357600080fd5b5061012e610372366004611112565b60056020526000908152604090205460ff1681565b34801561039357600080fd5b506101b57f30644e72e131a029b85045b68181585d2833e84879b9709143e1f593f000000181565b3480156103c757600080fd5b506101866103d636600461117a565b6108a5565b3480156103e757600080fd5b506101b5601481565b6000828152600360205260408120548082036104105760009150506104a7565b6000601e821061042157601e610423565b815b905060005b8181101561049f576000601e82610440600187611211565b61044a9190611211565b6104549190611224565b6000888152600260205260409020909150869082601e811061047857610478611246565b01540361048c5760019450505050506104a7565b50806104978161125c565b915050610428565b506000925050505b92915050565b6104b5610b56565b60006104c18484610b80565b60008181526005602052604090205490915060ff166105225760405162461bcd60e51b815260206004820152601860248201527711195b9bdb5a5b985d1a5bdb881b9bdd08185b1b1bddd95960421b60448201526064015b60405180910390fd5b60008281526006602052604090205460ff16156105815760405162461bcd60e51b815260206004820152601760248201527f436f6d6d69746d656e7420616c726561647920757365640000000000000000006044820152606401610519565b6001600160a01b0384166105d8578234146105d35760405162461bcd60e51b815260206004820152601260248201527108aa89040ecc2d8eaca40dad2e6dac2e8c6d60731b6044820152606401610519565b610625565b34156106195760405162461bcd60e51b815260206004820152601060248201526f04e6f2045544820666f722045524332360841b6044820152606401610519565b61062584333086610bc7565b600081815260016020526040812080548492819083906106448361125c565b9091555083905060005b60148110156106dd57610664600284831c611224565b6000036106a8578184600101826014811061068157610681611246565b01556106a1826007836015811061069a5761069a611246565b0154610c34565b91506106cb565b6106c88460010182601481106106c0576106c0611246565b015483610c34565b91505b806106d58161125c565b91505061064e565b506000858152600360205260408120548291906106fc90601e90611224565b6000888152600260205260409020909150829082601e811061072057610720611246565b0155600087815260036020526040812080549161073c8361125c565b90915550506000888152600660205260409020805460ff1916600190811790915585546001600160a01b038c16918a917f37235aaed27c6ea9003b3d12ae63de9ab2f9db2242f47c277af4595c457dc52c9161079791611211565b6040805191825242602083015281018d905260600160405180910390a3505050505050506107c56001600055565b505050565b600260205281600052604060002081601e81106107e657600080fd5b01549150829050565b6040805160008152602081019182905260029161080c9190611275565b602060405180830381855afa158015610829573d6000803e3d6000fd5b5050506040513d601f19601f8201168201806040525081019061084c91906112a4565b81565b6000601482111561088a5760405162461bcd60e51b81526020600482015260056024820152641b195d995b60da1b6044820152606401610519565b6007826015811061089d5761089d611246565b015492915050565b6108ad610b56565b60006108b98787610b80565b60008181526005602052604090205490915060ff166109155760405162461bcd60e51b815260206004820152601860248201527711195b9bdb5a5b985d1a5bdb881b9bdd08185b1b1bddd95960421b6044820152606401610519565b61091f81846103f0565b61095a5760405162461bcd60e51b815260206004820152600c60248201526b155b9adb9bdddb881c9bdbdd60a21b6044820152606401610519565b600081815260046020908152604080832087845290915290205460ff16156109bd5760405162461bcd60e51b8152602060048201526016602482015275139d5b1b1a599a595c88185b1c9958591e481d5cd95960521b6044820152606401610519565b6109cb8385878a8a87610d23565b610a075760405162461bcd60e51b815260206004820152600d60248201526c24b73b30b634b210383937b7b360991b6044820152606401610519565b60008181526004602090815260408083208784529091529020805460ff191660011790556001600160a01b038716610ad8576000856001600160a01b03168760405160006040518083038185875af1925050503d8060008114610a86576040519150601f19603f3d011682016040523d82523d6000602084013e610a8b565b606091505b5050905080610ad25760405162461bcd60e51b8152602060048201526013602482015272115512081d1c985b9cd9995c8819985a5b1959606a1b6044820152606401610519565b50610ae3565b610ae3878688610f25565b866001600160a01b0316856001600160a01b03167f6d7aac54bd3d1c91db3b1fd7b8d6cb45324ad6b5e373c0f0ea4d7b2606c4c2c8868942604051610b3b939291909283526020830191909152604082015260600190565b60405180910390a350610b4e6001600055565b505050505050565b600260005403610b7957604051633ee5aeb560e01b815260040160405180910390fd5b6002600055565b6040516bffffffffffffffffffffffff19606084901b1660208201526034810182905260009060540160405160208183030381529060405280519060200120905092915050565b6040516001600160a01b038481166024830152838116604483015260648201839052610c2e9186918216906323b872dd906084015b604051602081830303815290604052915060e01b6020820180516001600160e01b038381831617835250505050610f56565b50505050565b600080610c617f30644e72e131a029b85045b68181585d2833e84879b9709143e1f593f000000185611224565b90506000610c8f7f30644e72e131a029b85045b68181585d2833e84879b9709143e1f593f000000185611224565b604080518082018252848152602081018390529051632b0aac7f60e11b8152919250733333333C0A88F9BE4fd23ed0536F9B6c427e3B939163561558fe91610cd9916004016112bd565b602060405180830381865af4158015610cf6573d6000803e3d6000fd5b505050506040513d601f19601f82011682018060405250810190610d1a91906112a4565b95945050505050565b60408051602081018890529081018690526001600160a01b0380861660608301528416608082015260a08101839052600090819060c00160408051601f198184030181529082905269756c747261706c6f6e6b60b01b60208301529150600090602a0160408051601f1981840301815282825280516020918201206000845290830191829052917f000000000000000000000000000000000000000000000000000000000000000091600291610dd891611275565b602060405180830381855afa158015610df5573d6000803e3d6000fd5b5050506040513d601f19601f82011682018060405250810190610e1891906112a4565b8480519060200120604051602001610e49949392919093845260208401929092526040830152606082015260800190565b6040516020818303038152906040528051906020012090507f00000000000000000000000000000000000000000000000000000000000000006001600160a01b031663a78f9e368560200135866000013584888060400190610eab91906112ee565b8a606001358b608001356040518863ffffffff1660e01b8152600401610ed7979695949392919061133f565b602060405180830381865afa158015610ef4573d6000803e3d6000fd5b505050506040513d601f19601f82011682018060405250810190610f189190611399565b9998505050505050505050565b6040516001600160a01b038381166024830152604482018390526107c591859182169063a9059cbb90606401610bfc565b6000610f6b6001600160a01b03841683610fb9565b90508051600014158015610f90575080806020019051810190610f8e9190611399565b155b156107c557604051635274afe760e01b81526001600160a01b0384166004820152602401610519565b6060610fc783836000610fce565b9392505050565b606081471015610ff35760405163cd78605960e01b8152306004820152602401610519565b600080856001600160a01b0316848660405161100f9190611275565b60006040518083038185875af1925050503d806000811461104c576040519150601f19603f3d011682016040523d82523d6000602084013e611051565b606091505b509150915061106186838361106b565b9695505050505050565b6060826110805761107b826110c7565b610fc7565b815115801561109757506001600160a01b0384163b155b156110c057604051639996b31560e01b81526001600160a01b0385166004820152602401610519565b5080610fc7565b8051156110d75780518082602001fd5b604051630a12f52160e11b815260040160405180910390fd5b6000806040838503121561110357600080fd5b50508035926020909101359150565b60006020828403121561112457600080fd5b5035919050565b80356001600160a01b038116811461114257600080fd5b919050565b60008060006060848603121561115c57600080fd5b6111658461112b565b95602085013595506040909401359392505050565b60008060008060008060c0878903121561119357600080fd5b61119c8761112b565b9550602087013594506111b16040880161112b565b9350606087013592506080870135915060a087013567ffffffffffffffff8111156111db57600080fd5b870160a0818a0312156111ed57600080fd5b809150509295509295509295565b634e487b7160e01b600052601160045260246000fd5b818103818111156104a7576104a76111fb565b60008261124157634e487b7160e01b600052601260045260246000fd5b500690565b634e487b7160e01b600052603260045260246000fd5b60006001820161126e5761126e6111fb565b5060010190565b6000825160005b81811015611296576020818601810151858301520161127c565b506000920191825250919050565b6000602082840312156112b657600080fd5b5051919050565b60408101818360005b60028110156112e55781518352602092830192909101906001016112c6565b50505092915050565b6000808335601e1984360301811261130557600080fd5b83018035915067ffffffffffffffff82111561132057600080fd5b6020019150600581901b360382131561133857600080fd5b9250929050565b87815286602082015285604082015260c060608201528360c0820152600060018060fb1b0385111561137057600080fd5b8460051b808760e085013760808301949094525060a08101919091520160e00195945050505050565b6000602082840312156113ab57600080fd5b81518015158114610fc757600080fdfea26469706673582212205b6c653d320576218795ead72bf25b07f8c2f07e6f2a235b2112f008e4a38fbb64736f6c63430008140033",
  "deployedBytecode": "0x6080604052600436106101025760003560e01c80637fb345f211610095578063d523228311610064578063d523228314610337578063dc85085e14610357578063e4cf5a2c14610387578063efac630d146103bb578063f1650536146103db57600080fd5b80637fb345f21461029e5780639e4e7318146102cb578063a8898a20146102e0578063cd87a3b41461032257600080fd5b80632f5b27d4116100d15780632f5b27d4146101c35780634fe840f5146101e35780637d2fbc97146102175780637ee683731461025257600080fd5b806305977f941461010e578063156428ba1461014357806326b3293f14610173578063276f22c31461018857600080fd5b3661010957005b600080fd5b34801561011a57600080fd5b5061012e6101293660046110f0565b6103f0565b60405190151581526020015b60405180910390f35b34801561014f57600080fd5b5061012e61015e366004611112565b60066020526000908152604090205460ff1681565b610186610181366004611147565b6104ad565b005b34801561019457600080fd5b506101b56101a3366004611112565b60036020526000908152604090205481565b60405190815260200161013a565b3480156101cf57600080fd5b506101b56101de3660046110f0565b6107ca565b3480156101ef57600080fd5b506101b57f000000000000000000000000000000000000000000000000000000000000000081565b34801561022357600080fd5b5061012e6102323660046110f0565b600460209081526000928352604080842090915290825290205460ff1681565b34801561025e57600080fd5b506102867f000000000000000000000000000000000000000000000000000000000000000081565b6040516001600160a01b03909116815260200161013a565b3480156102aa57600080fd5b506101b56102b9366004611112565b60016020526000908152604090205481565b3480156102d757600080fd5b506101b56107ef565b3480156102ec57600080fd5b506101b560405169756c747261706c6f6e6b60b01b6020820152602a016040516020818303038152906040528051906020012081565b34801561032e57600080fd5b506101b5601e81565b34801561034357600080fd5b506101b5610352366004611112565b61084f565b34801561036357600080fd5b5061012e610372366004611112565b60056020526000908152604090205460ff1681565b34801561039357600080fd5b506101b57f30644e72e131a029b85045b68181585d2833e84879b9709143e1f593f000000181565b3480156103c757600080fd5b506101866103d636600461117a565b6108a5565b3480156103e757600080fd5b506101b5601481565b6000828152600360205260408120548082036104105760009150506104a7565b6000601e821061042157601e610423565b815b905060005b8181101561049f576000601e82610440600187611211565b61044a9190611211565b6104549190611224565b6000888152600260205260409020909150869082601e811061047857610478611246565b01540361048c5760019450505050506104a7565b50806104978161125c565b915050610428565b506000925050505b92915050565b6104b5610b56565b60006104c18484610b80565b60008181526005602052604090205490915060ff166105225760405162461bcd60e51b815260206004820152601860248201527711195b9bdb5a5b985d1a5bdb881b9bdd08185b1b1bddd95960421b60448201526064015b60405180910390fd5b60008281526006602052604090205460ff16156105815760405162461bcd60e51b815260206004820152601760248201527f436f6d6d69746d656e7420616c726561647920757365640000000000000000006044820152606401610519565b6001600160a01b0384166105d8578234146105d35760405162461bcd60e51b815260206004820152601260248201527108aa89040ecc2d8eaca40dad2e6dac2e8c6d60731b6044820152606401610519565b610625565b34156106195760405162461bcd60e51b815260206004820152601060248201526f04e6f2045544820666f722045524332360841b6044820152606401610519565b61062584333086610bc7565b600081815260016020526040812080548492819083906106448361125c565b9091555083905060005b60148110156106dd57610664600284831c611224565b6000036106a8578184600101826014811061068157610681611246565b01556106a1826007836015811061069a5761069a611246565b0154610c34565b91506106cb565b6106c88460010182601481106106c0576106c0611246565b015483610c34565b91505b806106d58161125c565b91505061064e565b506000858152600360205260408120548291906106fc90601e90611224565b6000888152600260205260409020909150829082601e811061072057610720611246565b0155600087815260036020526040812080549161073c8361125c565b90915550506000888152600660205260409020805460ff1916600190811790915585546001600160a01b038c16918a917f37235aaed27c6ea9003b3d12ae63de9ab2f9db2242f47c277af4595c457dc52c9161079791611211565b6040805191825242602083015281018d905260600160405180910390a3505050505050506107c56001600055565b505050565b600260205281600052604060002081601e81106107e657600080fd5b01549150829050565b6040805160008152602081019182905260029161080c9190611275565b602060405180830381855afa158015610829573d6000803e3d6000fd5b5050506040513d601f19601f8201168201806040525081019061084c91906112a4565b81565b6000601482111561088a5760405162461bcd60e51b81526020600482015260056024820152641b195d995b60da1b6044820152606401610519565b6007826015811061089d5761089d611246565b015492915050565b6108ad610b56565b60006108b98787610b80565b60008181526005602052604090205490915060ff166109155760405162461bcd60e51b815260206004820152601860248201527711195b9bdb5a5b985d1a5bdb881b9bdd08185b1b1bddd95960421b6044820152606401610519565b61091f81846103f0565b61095a5760405162461bcd60e51b815260206004820152600c60248201526b155b9adb9bdddb881c9bdbdd60a21b6044820152606401610519565b600081815260046020908152604080832087845290915290205460ff16156109bd5760405162461bcd60e51b8152602060048201526016602482015275139d5b1b1a599a595c88185b1c9958591e481d5cd95960521b6044820152606401610519565b6109cb8385878a8a87610d23565b610a075760405162461bcd60e51b815260206004820152600d60248201526c24b73b30b634b210383937b7b360991b6044820152606401610519565b60008181526004602090815260408083208784529091529020805460ff191660011790556001600160a01b038716610ad8576000856001600160a01b03168760405160006040518083038185875af1925050503d8060008114610a86576040519150601f19603f3d011682016040523d82523d6000602084013e610a8b565b606091505b5050905080610ad25760405162461bcd60e51b8152602060048201526013602482015272115512081d1c985b9cd9995c8819985a5b1959606a1b6044820152606401610519565b50610ae3565b610ae3878688610f25565b866001600160a01b0316856001600160a01b03167f6d7aac54bd3d1c91db3b1fd7b8d6cb45324ad6b5e373c0f0ea4d7b2606c4c2c8868942604051610b3b939291909283526020830191909152604082015260600190565b60405180910390a350610b4e6001600055565b505050505050565b600260005403610b7957604051633ee5aeb560e01b815260040160405180910390fd5b6002600055565b6040516bffffffffffffffffffffffff19606084901b1660208201526034810182905260009060540160405160208183030381529060405280519060200120905092915050565b6040516001600160a01b038481166024830152838116604483015260648201839052610c2e9186918216906323b872dd906084015b604051602081830303815290604052915060e01b6020820180516001600160e01b038381831617835250505050610f56565b50505050565b600080610c617f30644e72e131a029b85045b68181585d2833e84879b9709143e1f593f000000185611224565b90506000610c8f7f30644e72e131a029b85045b68181585d2833e84879b9709143e1f593f000000185611224565b604080518082018252848152602081018390529051632b0aac7f60e11b815291925073__$75f79a42d9bcbdbb69ad79ebd80f556f39$__9163561558fe91610cd9916004016112bd565b602060405180830381865af4158015610cf6573d6000803e3d6000fd5b505050506040513d601f19601f82011682018060405250810190610d1a91906112a4565b95945050505050565b60408051602081018890529081018690526001600160a01b0380861660608301528416608082015260a08101839052600090819060c00160408051601f198184030181529082905269756c747261706c6f6e6b60b01b60208301529150600090602a0160408051601f1981840301815282825280516020918201206000845290830191829052917f000000000000000000000000000000000000000000000000000000000000000091600291610dd891611275565b602060405180830381855afa158015610df5573d6000803e3d6000fd5b5050506040513d601f19601f82011682018060405250810190610e1891906112a4565b8480519060200120604051602001610e49949392919093845260208401929092526040830152606082015260800190565b6040516020818303038152906040528051906020012090507f00000000000000000000000000000000000000000000000000000000000000006001600160a01b031663a78f9e368560200135866000013584888060400190610eab91906112ee565b8a606001358b608001356040518863ffffffff1660e01b8152600401610ed7979695949392919061133f565b602060405180830381865afa158015610ef4573d6000803e3d6000fd5b505050506040513d601f19601f82011682018060405250810190610f189190611399565b9998505050505050505050565b6040516001600160a01b038381166024830152604482018390526107c591859182169063a9059cbb90606401610bfc565b6000610f6b6001600160a01b03841683610fb9565b90508051600014158015610f90575080806020019051810190610f8e9190611399565b155b156107c557604051635274afe760e01b81526001600160a01b0384166004820152602401610519565b6060610fc783836000610fce565b9392505050565b606081471015610ff35760405163cd78605960e01b8152306004820152602401610519565b600080856001600160a01b0316848660405161100f9190611275565b60006040518083038185875af1925050503d806000811461104c576040519150601f19603f3d011682016040523d82523d6000602084013e611051565b606091505b509150915061106186838361106b565b9695505050505050565b6060826110805761107b826110c7565b610fc7565b815115801561109757506001600160a01b0384163b155b156110c057604051639996b31560e01b81526001600160a01b0385166004820152602401610519565b5080610fc7565b8051156110d75780518082602001fd5b604051630a12f52160e11b815260040160405180910390fd5b6000806040838503121561110357600080fd5b50508035926020909101359150565b60006020828403121561112457600080fd5b5035919050565b80356001600160a01b038116811461114257600080fd5b919050565b60008060006060848603121561115c57600080fd5b6111658461112b565b95602085013595506040909401359392505050565b60008060008060008060c0878903121561119357600080fd5b61119c8761112b565b9550602087013594506111b16040880161112b565b9350606087013592506080870135915060a087013567ffffffffffffffff8111156111db57600080fd5b870160a0818a0312156111ed57600080fd5b809150509295509295509295565b634e487b7160e01b600052601160045260246000fd5b818103818111156104a7576104a76111fb565b60008261124157634e487b7160e01b600052601260045260246000fd5b500690565b634e487b7160e01b600052603260045260246000fd5b60006001820161126e5761126e6111fb565b5060010190565b6000825160005b81811015611296576020818601810151858301520161127c565b506000920191825250919050565b6000602082840312156112b657600080fd5b5051919050565b60408101818360005b60028110156112e55781518352602092830192909101906001016112c6565b50505092915050565b6000808335601e1984360301811261130557600080fd5b83018035915067ffffffffffffffff82111561132057600080fd5b6020019150600581901b360382131561133857600080fd5b9250929050565b87815286602082015285604082015260c060608201528360c0820152600060018060fb1b0385111561137057600080fd5b8460051b808760e085013760808301949094525060a08101919091520160e00195945050505050565b6000602082840312156113ab57600080fd5b81518015158114610fc757600080fdfea26469706673582212205b6c653d320576218795ead72bf25b07f8c2f07e6f2a235b2112f008e4a38fbb64736f6c63430008140033",
  "libraries": {
    "PoseidonT3": "0x3333333C0A88F9BE4fd23ed0536F9B6c427e3B93"
  },
  "devdoc": {
    "errors": {
      "AddressEmptyCode(address)": [
        {
          "details": "There's no code at `target` (it is not a contract)."
        }
      ],
      "AddressInsufficientBalance(address)": [
        {
          "details": "The ETH balance of the account is not enough to perform the operation."
        }
      ],
      "FailedInnerCall()": [
        {
          "details": "A call to an address target failed. The target may have reverted."
        }
      ],
      "ReentrancyGuardReentrantCall()": [
        {
          "details": "Unauthorized reentrant call."
        }
      ],
      "SafeERC20FailedOperation(address)": [
        {
          "details": "An operation with an ERC20 token failed."
        }
      ]
    },
    "kind": "dev",
    "methods": {
      "getZeroHash(uint256)": {
        "details": "Exposed for Poseidon/zero-hash consistency tests (JS vs Solidity)"
      }
    },
    "version": 1
  },
  "userdoc": {
    "kind": "user",
    "methods": {},
    "version": 1
  },
  "storageLayout": {
    "storage": [
      {
        "astId": 667,
        "contract": "contracts/Mixer.sol:Mixer",
        "label": "_status",
        "offset": 0,
        "slot": "0",
        "type": "t_uint256"
      },
      {
        "astId": 805,
        "contract": "contracts/Mixer.sol:Mixer",
        "label": "trees",
        "offset": 0,
        "slot": "1",
        "type": "t_mapping(t_bytes32,t_struct(MerkleTree)788_storage)"
      },
      {
        "astId": 811,
        "contract": "contracts/Mixer.sol:Mixer",
        "label": "rootHistory",
        "offset": 0,
        "slot": "2",
        "type": "t_mapping(t_bytes32,t_array(t_bytes32)30_storage)"
      },
      {
        "astId": 815,
        "contract": "contracts/Mixer.sol:Mixer",
        "label": "rootHistoryIndex",
        "offset": 0,
        "slot": "3",
        "type": "t_mapping(t_bytes32,t_uint256)"
      },
      {
        "astId": 821,
        "contract": "contracts/Mixer.sol:Mixer",
        "label": "nullifierUsed",
        "offset": 0,
        "slot": "4",
        "type": "t_mapping(t_bytes32,t_mapping(t_bytes32,t_bool))"
      },
      {
        "astId": 825,
        "contract": "contracts/Mixer.sol:Mixer",
        "label": "allowedDenominations",
        "offset": 0,
        "slot": "5",
        "type": "t_mapping(t_bytes32,t_bool)"
      },
      {
        "astId": 829,
        "contract": "contracts/Mixer.sol:Mixer",
        "label": "commitmentUsed",
        "offset": 0,
        "slot": "6",
        "type": "t_mapping(t_bytes32,t_bool)"
      },
      {
        "astId": 835,
        "contract": "contracts/Mixer.sol:Mixer",
        "label": "zeroHashes",
        "offset": 0,
        "slot": "7",
        "type": "t_array(t_uint256)21_storage"
      }
    ],
    "types": {
      "t_array(t_bytes32)30_storage": {
        "base": "t_bytes32",
        "encoding": "inplace",
        "label": "bytes32[30]",
        "numberOfBytes": "960"
      },
      "t_array(t_uint256)20_storage": {
        "base": "t_uint256",
        "encoding": "inplace",
        "label": "uint256[20]",
        "numberOfBytes": "640"
      },
      "t_array(t_uint256)21_storage": {
        "base": "t_uint256",
        "encoding": "inplace",
        "label": "uint256[21]",
        "numberOfBytes": "672"
      },
      "t_bool": {
        "encoding": "inplace",
        "label": "bool",
        "numberOfBytes": "1"
      },
      "t_bytes32": {
        "encoding": "inplace",
        "label": "bytes32",
        "numberOfBytes": "32"
      },
      "t_mapping(t_bytes32,t_array(t_bytes32)30_storage)": {
        "encoding": "mapping",
        "key": "t_bytes32",
        "label": "mapping(bytes32 => bytes32[30])",
        "numberOfBytes": "32",
        "value": "t_array(t_bytes32)30_storage"
      },
      "t_mapping(t_bytes32,t_bool)": {
        "encoding": "mapping",
        "key": "t_bytes32",
        "label": "mapping(bytes32 => bool)",
        "numberOfBytes": "32",
        "value": "t_bool"
      },
      "t_mapping(t_bytes32,t_mapping(t_bytes32,t_bool))": {
        "encoding": "mapping",
        "key": "t_bytes32",
        "label": "mapping(bytes32 => mapping(bytes32 => bool))",
        "numberOfBytes": "32",
        "value": "t_mapping(t_bytes32,t_bool)"
      },
      "t_mapping(t_bytes32,t_struct(MerkleTree)788_storage)": {
        "encoding": "mapping",
        "key": "t_bytes32",
        "label": "mapping(bytes32 => struct Mixer.MerkleTree)",
        "numberOfBytes": "32",
        "value": "t_struct(MerkleTree)788_storage"
      },
      "t_mapping(t_bytes32,t_uint256)": {
        "encoding": "mapping",
        "key": "t_bytes32",
        "label": "mapping(bytes32 => uint256)",
        "numberOfBytes": "32",
        "value": "t_uint256"
      },
      "t_struct(MerkleTree)788_storage": {
        "encoding": "inplace",
        "label": "struct Mixer.MerkleTree",
        "members": [
          {
            "astId": 783,
            "contract": "contracts/Mixer.sol:Mixer",
            "label": "nextIndex",
            "offset": 0,
            "slot": "0",
            "type": "t_uint256"
          },
          {
            "astId": 787,
            "contract": "contracts/Mixer.sol:Mixer",
            "label": "filledSubtrees",
            "offset": 0,
            "slot": "1",
            "type": "t_array(t_uint256)20_storage"
          }
        ],
        "numberOfBytes": "672"
      },
      "t_uint256": {
        "encoding": "inplace",
        "label": "uint256",
        "numberOfBytes": "32"
      }
    }
  }
}