{
  "address": "0x3c57e227ca5264ac0378800fA6E11FF112dB8538",
  "abi": [
    {
      "inputs": [
        {
          "internalType": "address",
          "name": "_zkvContract",
          "type": "address"
        },
        {
          "internalType": "bytes32",
          "name": "_vkHash",
          "type": "bytes32"
        },
        {
          "internalType": "uint256",
          "name": "_chainId",
          "type": "uint256"
        },
        {
          "internalType": "uint256[]",
          "name": "_initialCommitments",
          "type": "uint256[]"
        },
        {
          "internalType": "uint256",
          "name": "_signaturesRequired",
          "type": "uint256"
        }
      ],
      "stateMutability": "nonpayable",
      "type": "constructor"
    },
    {
      "anonymous": false,
      "inputs": [
        {
          "indexed": true,
          "internalType": "address",
          "name": "sender",
          "type": "address"
        },
        {
          "indexed": false,
          "internalType": "uint256",
          "name": "amount",
          "type": "uint256"
        },
        {
          "indexed": false,
          "internalType": "uint256",
          "name": "balance",
          "type": "uint256"
        }
      ],
      "name": "Deposit",
      "type": "event"
    },
    {
      "anonymous": false,
      "inputs": [
        {
          "indexed": true,
          "internalType": "uint256",
          "name": "commitment",
          "type": "uint256"
        },
        {
          "indexed": false,
          "internalType": "bool",
          "name": "isAdded",
          "type": "bool"
        }
      ],
      "name": "Owner",
      "type": "event"
    },
    {
      "anonymous": false,
      "inputs": [
        {
          "indexed": true,
          "internalType": "uint256",
          "name": "nonce",
          "type": "uint256"
        },
        {
          "indexed": false,
          "internalType": "address",
          "name": "to",
          "type": "address"
        },
        {
          "indexed": false,
          "internalType": "uint256",
          "name": "value",
          "type": "uint256"
        },
        {
          "indexed": false,
          "internalType": "bytes",
          "name": "data",
          "type": "bytes"
        },
        {
          "indexed": false,
          "internalType": "bytes",
          "name": "result",
          "type": "bytes"
        }
      ],
      "name": "TransactionExecuted",
      "type": "event"
    },
    {
      "inputs": [],
      "name": "BN254_PRIME",
      "outputs": [
        {
          "internalType": "uint256",
          "name": "",
          "type": "uint256"
        }
      ],
      "stateMutability": "view",
      "type": "function"
    },
    {
      "inputs": [],
      "name": "PROVING_SYSTEM_ID",
      "outputs": [
        {
          "internalType": "bytes32",
          "name": "",
          "type": "bytes32"
        }
      ],
      "stateMutability": "view",
      "type": "function"
    },
    {
      "inputs": [],
      "name": "VERSION_HASH",
      "outputs": [
        {
          "internalType": "bytes32",
          "name": "",
          "type": "bytes32"
        }
      ],
      "stateMutability": "view",
      "type": "function"
    },
    {
      "inputs": [
        {
          "internalType": "uint256[]",
          "name": "newCommitments",
          "type": "uint256[]"
        },
        {
          "internalType": "uint256",
          "name": "newSigRequired",
          "type": "uint256"
        }
      ],
      "name": "addSigners",
      "outputs": [],
      "stateMutability": "nonpayable",
      "type": "function"
    },
    {
      "inputs": [
        {
          "internalType": "address",
          "name": "token",
          "type": "address"
        },
        {
          "internalType": "address",
          "name": "spender",
          "type": "address"
        },
        {
          "internalType": "uint256",
          "name": "approveAmount",
          "type": "uint256"
        },
        {
          "internalType": "address",
          "name": "callTarget",
          "type": "address"
        },
        {
          "internalType": "uint256",
          "name": "callValue",
          "type": "uint256"
        },
        {
          "internalType": "bytes",
          "name": "callData",
          "type": "bytes"
        }
      ],
      "name": "approveAndCall",
      "outputs": [],
      "stateMutability": "nonpayable",
      "type": "function"
    },
    {
      "inputs": [
        {
          "internalType": "address[]",
          "name": "recipients",
          "type": "address[]"
        },
        {
          "internalType": "uint256[]",
          "name": "amounts",
          "type": "uint256[]"
        }
      ],
      "name": "batchTransfer",
      "outputs": [],
      "stateMutability": "nonpayable",
      "type": "function"
    },
    {
      "inputs": [
        {
          "internalType": "address[]",
          "name": "recipients",
          "type": "address[]"
        },
        {
          "internalType": "uint256[]",
          "name": "amounts",
          "type": "uint256[]"
        },
        {
          "internalType": "address[]",
          "name": "tokenAddresses",
          "type": "address[]"
        }
      ],
      "name": "batchTransferMulti",
      "outputs": [],
      "stateMutability": "nonpayable",
      "type": "function"
    },
    {
      "inputs": [],
      "name": "chainId",
      "outputs": [
        {
          "internalType": "uint256",
          "name": "",
          "type": "uint256"
        }
      ],
      "stateMutability": "view",
      "type": "function"
    },
    {
      "inputs": [
        {
          "internalType": "uint256",
          "name": "",
          "type": "uint256"
        }
      ],
      "name": "commitments",
      "outputs": [
        {
          "internalType": "uint256",
          "name": "",
          "type": "uint256"
        }
      ],
      "stateMutability": "view",
      "type": "function"
    },
    {
      "inputs": [
        {
          "internalType": "uint256",
          "name": "_nonce",
          "type": "uint256"
        },
        {
          "internalType": "address",
          "name": "to",
          "type": "address"
        },
        {
          "internalType": "uint256",
          "name": "value",
          "type": "uint256"
        },
        {
          "internalType": "bytes",
          "name": "data",
          "type": "bytes"
        },
        {
          "components": [
            {
              "internalType": "uint256",
              "name": "commitment",
              "type": "uint256"
            },
            {
              "internalType": "uint256",
              "name": "nullifier",
              "type": "uint256"
            },
            {
              "internalType": "uint256",
              "name": "aggregationId",
              "type": "uint256"
            },
            {
              "internalType": "uint256",
              "name": "domainId",
              "type": "uint256"
            },
            {
              "internalType": "bytes32[]",
              "name": "zkMerklePath",
              "type": "bytes32[]"
            },
            {
              "internalType": "uint256",
              "name": "leafCount",
              "type": "uint256"
            },
            {
              "internalType": "uint256",
              "name": "index",
              "type": "uint256"
            }
          ],
          "internalType": "struct MetaMultiSigWallet.ZkProof[]",
          "name": "proofs",
          "type": "tuple[]"
        }
      ],
      "name": "execute",
      "outputs": [
        {
          "internalType": "bytes",
          "name": "",
          "type": "bytes"
        }
      ],
      "stateMutability": "nonpayable",
      "type": "function"
    },
    {
      "inputs": [],
      "name": "getCommitments",
      "outputs": [
        {
          "internalType": "uint256[]",
          "name": "",
          "type": "uint256[]"
        }
      ],
      "stateMutability": "view",
      "type": "function"
    },
    {
      "inputs": [],
      "name": "getSignersCount",
      "outputs": [
        {
          "internalType": "uint256",
          "name": "",
          "type": "uint256"
        }
      ],
      "stateMutability": "view",
      "type": "function"
    },
    {
      "inputs": [
        {
          "internalType": "uint256",
          "name": "_nonce",
          "type": "uint256"
        },
        {
          "internalType": "address",
          "name": "to",
          "type": "address"
        },
        {
          "internalType": "uint256",
          "name": "value",
          "type": "uint256"
        },
        {
          "internalType": "bytes",
          "name": "data",
          "type": "bytes"
        }
      ],
      "name": "getTransactionHash",
      "outputs": [
        {
          "internalType": "bytes32",
          "name": "",
          "type": "bytes32"
        }
      ],
      "stateMutability": "view",
      "type": "function"
    },
    {
      "inputs": [
        {
          "internalType": "uint256",
          "name": "a",
          "type": "uint256"
        },
        {
          "internalType": "uint256",
          "name": "b",
          "type": "uint256"
        }
      ],
      "name": "poseidonHash2",
      "outputs": [
        {
          "internalType": "uint256",
          "name": "",
          "type": "uint256"
        }
      ],
      "stateMutability": "pure",
      "type": "function"
    },
    {
      "inputs": [
        {
          "internalType": "uint256[]",
          "name": "commitmentsToRemove",
          "type": "uint256[]"
        },
        {
          "internalType": "uint256",
          "name": "newSigRequired",
          "type": "uint256"
        }
      ],
      "name": "removeSigners",
      "outputs": [],
      "stateMutability": "nonpayable",
      "type": "function"
    },
    {
      "inputs": [],
      "name": "signaturesRequired",
      "outputs": [
        {
          "internalType": "uint256",
          "name": "",
          "type": "uint256"
        }
      ],
      "stateMutability": "view",
      "type": "function"
    },
    {
      "inputs": [
        {
          "internalType": "uint256",
          "name": "newSigRequired",
          "type": "uint256"
        }
      ],
      "name": "updateSignaturesRequired",
      "outputs": [],
      "stateMutability": "nonpayable",
      "type": "function"
    },
    {
      "inputs": [
        {
          "internalType": "uint256",
          "name": "",
          "type": "uint256"
        }
      ],
      "name": "usedNonces",
      "outputs": [
        {
          "internalType": "bool",
          "name": "",
          "type": "bool"
        }
      ],
      "stateMutability": "view",
      "type": "function"
    },
    {
      "inputs": [
        {
          "internalType": "uint256",
          "name": "",
          "type": "uint256"
        }
      ],
      "name": "usedNullifiers",
      "outputs": [
        {
          "internalType": "bool",
          "name": "",
          "type": "bool"
        }
      ],
      "stateMutability": "view",
      "type": "function"
    },
    {
      "inputs": [],
      "name": "vkHash",
      "outputs": [
        {
          "internalType": "bytes32",
          "name": "",
          "type": "bytes32"
        }
      ],
      "stateMutability": "view",
      "type": "function"
    },
    {
      "inputs": [],
      "name": "zkvContract",
      "outputs": [
        {
          "internalType": "address",
          "name": "",
          "type": "address"
        }
      ],
      "stateMutability": "view",
      "type": "function"
    },
    {
      "stateMutability": "payable",
      "type": "receive"
    }
  ],
  "transactionHash": "0xf5253a002a414ff1d424c89d3649558f8dd2fb1e2da9c3e22b5e5cc6a54e0957",
  "args": [
    "0xCC02D0A54F3184dF4c88811E5b9FAb7ff8131e4a",
    "0x104717314e0c94ef15d6992292b713aa2ffc48c74e0c41f7344a611caa606dde",
    2651420,
    [
      "7777412979265397193925220040726445950599854595059203997869095364409346949110",
      "3893960714193187677642727159938790123674441621624357680276520538080166792249"
    ],
    2
  ],
  "numDeployments": 2,
  "solcInputHash": "6b4f1b22cbd21b116f152fb4a836f175",
  "bytecode": "0x60c06040523480156200001157600080fd5b5060405162002721380380620027218339810160408190526200003491620002db565b6001600160a01b038516620000905760405162461bcd60e51b815260206004820152601360248201527f496e76616c6964207a6b7620616464726573730000000000000000000000000060448201526064015b60405180910390fd5b60008111620000e25760405162461bcd60e51b815260206004820152601e60248201527f4d757374206265206e6f6e2d7a65726f20736967732072657175697265640000604482015260640162000087565b6000825111620001355760405162461bcd60e51b815260206004820152601660248201527f4e656564206174206c656173742031207369676e657200000000000000000000604482015260640162000087565b8151811115620001885760405162461bcd60e51b815260206004820152601660248201527f5369677320726571756972656420746f6f206869676800000000000000000000604482015260640162000087565b6001600160a01b03851660805260a0849052600083815560018290555b8251811015620002b957828181518110620001c457620001c4620003e6565b6020026020010151600003620002125760405162461bcd60e51b8152602060048201526012602482015271125b9d985b1a590818dbdb5b5a5d1b595b9d60721b604482015260640162000087565b6002838281518110620002295762000229620003e6565b6020908102919091018101518254600181018455600093845291909220015582518390829081106200025f576200025f620003e6565b60200260200101517f33129f9e36e06e860f22ce83276273f4d83d31e9fd4a0d3a4dbac9d2da4f9d0d60016040516200029c911515815260200190565b60405180910390a280620002b081620003fc565b915050620001a5565b50505050505062000424565b634e487b7160e01b600052604160045260246000fd5b600080600080600060a08688031215620002f457600080fd5b85516001600160a01b03811681146200030c57600080fd5b602087810151604089015160608a01519398509096509450906001600160401b03808211156200033b57600080fd5b818901915089601f8301126200035057600080fd5b815181811115620003655762000365620002c5565b8060051b604051601f19603f830116810181811085821117156200038d576200038d620002c5565b60405291825284820192508381018501918c831115620003ac57600080fd5b938501935b82851015620003cc57845184529385019392850192620003b1565b809750505050505050608086015190509295509295909350565b634e487b7160e01b600052603260045260246000fd5b6000600182016200041d57634e487b7160e01b600052601160045260246000fd5b5060010190565b60805160a0516122c9620004586000396000818161024c0152611872015260008181610300015261192a01526122c96000f3fe60806040526004361061012e5760003560e01c806388d695b2116100ab578063a8d2c8521161006f578063a8d2c852146103dc578063aad24061146103fc578063ce757d291461042c578063e4cf5a2c14610442578063eaaba55914610476578063f1ea66d41461049657600080fd5b806388d695b21461033a5780639a8a05921461035a5780639e4e731814610370578063a0c1deb414610385578063a8898a201461039a57600080fd5b80634fe840f5116100f25780634fe840f51461023a578063545a4a3c1461026e578063644512121461028e5780636717e41c146102ae5780637ee68373146102ee57600080fd5b80631b108c07146101745780633034a742146101aa5780633a624581146101cc5780634791ca34146101ec57806349ce89971461020c57600080fd5b3661016f576040805134815247602082015233917f90890809c654f11d6e72a28fa60149770a0d11ec6c92319d6ceb2bb0a4ea1a15910160405180910390a2005b600080fd5b34801561018057600080fd5b5061019461018f366004611a93565b6104b8565b6040516101a19190611b77565b60405180910390f35b3480156101b657600080fd5b506101ca6101c5366004611b91565b610860565b005b3480156101d857600080fd5b506101ca6101e7366004611baa565b6108c6565b3480156101f857600080fd5b506101ca610207366004611c20565b610a92565b34801561021857600080fd5b5061022c610227366004611b91565b610d20565b6040519081526020016101a1565b34801561024657600080fd5b5061022c7f000000000000000000000000000000000000000000000000000000000000000081565b34801561027a57600080fd5b5061022c610289366004611c82565b610d41565b34801561029a57600080fd5b506101ca6102a9366004611d57565b610d7e565b3480156102ba57600080fd5b506102de6102c9366004611b91565b60036020526000908152604090205460ff1681565b60405190151581526020016101a1565b3480156102fa57600080fd5b506103227f000000000000000000000000000000000000000000000000000000000000000081565b6040516001600160a01b0390911681526020016101a1565b34801561034657600080fd5b506101ca610355366004611df1565b61113b565b34801561036657600080fd5b5061022c60005481565b34801561037c57600080fd5b5061022c61131f565b34801561039157600080fd5b5060025461022c565b3480156103a657600080fd5b5061022c60405169756c747261706c6f6e6b60b01b6020820152602a016040516020818303038152906040528051906020012081565b3480156103e857600080fd5b506101ca6103f7366004611c20565b61137f565b34801561040857600080fd5b506102de610417366004611b91565b60046020526000908152604090205460ff1681565b34801561043857600080fd5b5061022c60015481565b34801561044e57600080fd5b5061022c7f30644e72e131a029b85045b68181585d2833e84879b9709143e1f593f000000181565b34801561048257600080fd5b5061022c610491366004611e5d565b611655565b3480156104a257600080fd5b506104ab611746565b6040516101a19190611e7f565b60008781526003602052604090205460609060ff16156105145760405162461bcd60e51b8152602060048201526012602482015271139bdb98d948185b1c9958591e481d5cd95960721b60448201526064015b60405180910390fd5b60015482101561055a5760405162461bcd60e51b81526020600482015260116024820152704e6f7420656e6f7567682070726f6f667360781b604482015260640161050b565b600080546040516105799130918c908c908c908c908c90602001611ec3565b60405160208183030381529060405280519060200120905060005b8381101561075a57600460008686848181106105b2576105b2611f15565b90506020028101906105c49190611f2b565b60209081013582528101919091526040016000205460ff16156106225760405162461bcd60e51b8152602060048201526016602482015275139d5b1b1a599a595c88185b1c9958591e481d5cd95960521b604482015260640161050b565b61064f85858381811061063757610637611f15565b90506020028101906106499190611f2b565b3561179e565b6106925760405162461bcd60e51b81526020600482015260146024820152732737ba10309031bab93932b73a1039b4b3b732b960611b604482015260640161050b565b6106bf828686848181106106a8576106a8611f15565b90506020028101906106ba9190611f2b565b6117f4565b6106fb5760405162461bcd60e51b815260206004820152600d60248201526c24b73b30b634b210383937b7b360991b604482015260640161050b565b60016004600087878581811061071357610713611f15565b90506020028101906107259190611f2b565b6020908101358252810191909152604001600020805460ff19169115159190911790558061075281611f61565b915050610594565b50600089815260036020526040808220805460ff191660011790555181906001600160a01b038b16908a90610792908b908b90611f7a565b60006040518083038185875af1925050503d80600081146107cf576040519150601f19603f3d011682016040523d82523d6000602084013e6107d4565b606091505b5091509150816108125760405162461bcd60e51b8152602060048201526009602482015268151e0819985a5b195960ba1b604482015260640161050b565b8a7f1654479f61781d185c419742a20e599a227ae1840317c8a74ceda5eb6166b8268b8b8b8b8660405161084a959493929190611f8a565b60405180910390a29a9950505050505050505050565b33301461087f5760405162461bcd60e51b815260040161050b90611feb565b6000811161089f5760405162461bcd60e51b815260040161050b9061200d565b6002548111156108c15760405162461bcd60e51b815260040161050b90612044565b600155565b3330146108e55760405162461bcd60e51b815260040161050b90611feb565b6040516001600160a01b0387811660248301526044820187905260009182918a169060640160408051601f198184030181529181526020820180516001600160e01b031663095ea7b360e01b1790525161093f9190612074565b6000604051808303816000865af19150503d806000811461097c576040519150601f19603f3d011682016040523d82523d6000602084013e610981565b606091505b50915091508180156109ab5750805115806109ab5750808060200190518101906109ab9190612086565b6109e85760405162461bcd60e51b815260206004820152600e60248201526d105c1c1c9bdd994819985a5b195960921b604482015260640161050b565b6000866001600160a01b0316868686604051610a05929190611f7a565b60006040518083038185875af1925050503d8060008114610a42576040519150601f19603f3d011682016040523d82523d6000602084013e610a47565b606091505b5050905080610a865760405162461bcd60e51b815260206004820152600b60248201526a10d85b1b0819985a5b195960aa1b604482015260640161050b565b50505050505050505050565b333014610ab15760405162461bcd60e51b815260040161050b90611feb565b81610aec5760405162461bcd60e51b815260206004820152600b60248201526a456d70747920617272617960a81b604482015260640161050b565b6002548210610b3d5760405162461bcd60e51b815260206004820152601960248201527f43616e6e6f742072656d6f766520616c6c207369676e65727300000000000000604482015260640161050b565b60008111610b5d5760405162461bcd60e51b815260040161050b9061200d565b600254610b6b9083906120a8565b811115610b8a5760405162461bcd60e51b815260040161050b90612044565b60005b82811015610d18576000805b600254811015610cc057858584818110610bb557610bb5611f15565b9050602002013560028281548110610bcf57610bcf611f15565b906000526020600020015403610cae5760028054610bef906001906120a8565b81548110610bff57610bff611f15565b906000526020600020015460028281548110610c1d57610c1d611f15565b6000918252602090912001556002805480610c3a57610c3a6120bb565b6001900381819060005260206000200160009055905560019150858584818110610c6657610c66611f15565b905060200201357f33129f9e36e06e860f22ce83276273f4d83d31e9fd4a0d3a4dbac9d2da4f9d0d6000604051610ca1911515815260200190565b60405180910390a2610cc0565b80610cb881611f61565b915050610b99565b5080610d055760405162461bcd60e51b815260206004820152601460248201527310dbdb5b5a5d1b595b9d081b9bdd08199bdd5b9960621b604482015260640161050b565b5080610d1081611f61565b915050610b8d565b506001555050565b60028181548110610d3057600080fd5b600091825260209091200154905081565b60008054604051610d5e91309188908890889088906020016120d1565b604051602081830303815290604052805190602001209050949350505050565b333014610d9d5760405162461bcd60e51b815260040161050b90611feb565b848314610dbc5760405162461bcd60e51b815260040161050b9061212c565b848114610ddb5760405162461bcd60e51b815260040161050b9061212c565b84610e165760405162461bcd60e51b815260206004820152600b60248201526a08adae0e8f240c4c2e8c6d60ab1b604482015260640161050b565b60005b85811015611132576000878783818110610e3557610e35611f15565b9050602002016020810190610e4a9190612155565b6001600160a01b031603610e945760405162461bcd60e51b8152602060048201526011602482015270125b9d985b1a59081c9958da5c1a595b9d607a1b604482015260640161050b565b6000838383818110610ea857610ea8611f15565b9050602002016020810190610ebd9190612155565b6001600160a01b031603610fa8576000878783818110610edf57610edf611f15565b9050602002016020810190610ef49190612155565b6001600160a01b0316868684818110610f0f57610f0f611f15565b9050602002013560405160006040518083038185875af1925050503d8060008114610f56576040519150601f19603f3d011682016040523d82523d6000602084013e610f5b565b606091505b5050905080610fa25760405162461bcd60e51b8152602060048201526013602482015272115512081d1c985b9cd9995c8819985a5b1959606a1b604482015260640161050b565b50611120565b600080848484818110610fbd57610fbd611f15565b9050602002016020810190610fd29190612155565b6001600160a01b0316898985818110610fed57610fed611f15565b90506020020160208101906110029190612155565b88888681811061101457611014611f15565b6040516001600160a01b039094166024850152602002919091013560448301525060640160408051601f198184030181529181526020820180516001600160e01b031663a9059cbb60e01b1790525161106d9190612074565b6000604051808303816000865af19150503d80600081146110aa576040519150601f19603f3d011682016040523d82523d6000602084013e6110af565b606091505b50915091508180156110d95750805115806110d95750808060200190518101906110d99190612086565b61111d5760405162461bcd60e51b8152602060048201526015602482015274115490cc8c081d1c985b9cd9995c8819985a5b1959605a1b604482015260640161050b565b50505b8061112a81611f61565b915050610e19565b50505050505050565b33301461115a5760405162461bcd60e51b815260040161050b90611feb565b8281146111795760405162461bcd60e51b815260040161050b9061212c565b826111b45760405162461bcd60e51b815260206004820152600b60248201526a08adae0e8f240c4c2e8c6d60ab1b604482015260640161050b565b60005b838110156113185760008585838181106111d3576111d3611f15565b90506020020160208101906111e89190612155565b6001600160a01b0316036112325760405162461bcd60e51b8152602060048201526011602482015270125b9d985b1a59081c9958da5c1a595b9d607a1b604482015260640161050b565b600085858381811061124657611246611f15565b905060200201602081019061125b9190612155565b6001600160a01b031684848481811061127657611276611f15565b9050602002013560405160006040518083038185875af1925050503d80600081146112bd576040519150601f19603f3d011682016040523d82523d6000602084013e6112c2565b606091505b50509050806113055760405162461bcd60e51b815260206004820152600f60248201526e151c985b9cd9995c8819985a5b1959608a1b604482015260640161050b565b508061131081611f61565b9150506111b7565b5050505050565b6040805160008152602081019182905260029161133c9190612074565b602060405180830381855afa158015611359573d6000803e3d6000fd5b5050506040513d601f19601f8201168201806040525081019061137c9190612170565b81565b33301461139e5760405162461bcd60e51b815260040161050b90611feb565b816113d95760405162461bcd60e51b815260206004820152600b60248201526a456d70747920617272617960a81b604482015260640161050b565b600081116113f95760405162461bcd60e51b815260040161050b9061200d565b600254611407908390612189565b8111156114265760405162461bcd60e51b815260040161050b90612044565b60005b82811015610d185783838281811061144357611443611f15565b9050602002013560000361148e5760405162461bcd60e51b8152602060048201526012602482015271125b9d985b1a590818dbdb5b5a5d1b595b9d60721b604482015260640161050b565b60005b600254811015611525578484838181106114ad576114ad611f15565b90506020020135600282815481106114c7576114c7611f15565b9060005260206000200154036115135760405162461bcd60e51b8152602060048201526011602482015270436f6d6d69746d656e742065786973747360781b604482015260640161050b565b8061151d81611f61565b915050611491565b5060005b818110156115b75784848381811061154357611543611f15565b9050602002013585858381811061155c5761155c611f15565b90506020020135036115a55760405162461bcd60e51b8152602060048201526012602482015271111d5c1b1a58d85d19481a5b881a5b9c1d5d60721b604482015260640161050b565b806115af81611f61565b915050611529565b5060028484838181106115cc576115cc611f15565b8354600181018555600094855260209485902091909402929092013591909201555083838281811061160057611600611f15565b905060200201357f33129f9e36e06e860f22ce83276273f4d83d31e9fd4a0d3a4dbac9d2da4f9d0d600160405161163b911515815260200190565b60405180910390a28061164d81611f61565b915050611429565b6000806116827f30644e72e131a029b85045b68181585d2833e84879b9709143e1f593f00000018561219c565b905060006116b07f30644e72e131a029b85045b68181585d2833e84879b9709143e1f593f00000018561219c565b604080518082018252848152602081018390529051632b0aac7f60e11b8152919250733333333C0A88F9BE4fd23ed0536F9B6c427e3B939163561558fe916116fa916004016121be565b602060405180830381865af4158015611717573d6000803e3d6000fd5b505050506040513d601f19601f8201168201806040525081019061173b9190612170565b925050505b92915050565b6060600280548060200260200160405190810160405280929190818152602001828054801561179457602002820191906000526020600020905b815481526020019060010190808311611780575b5050505050905090565b6000805b6002548110156117eb5782600282815481106117c0576117c0611f15565b9060005260206000200154036117d95750600192915050565b806117e381611f61565b9150506117a2565b50600092915050565b600080611802846001611655565b604080516020808201849052863582840152868101356060808401919091528351808403909101815260808301845269756c747261706c6f6e6b60b01b60a08401528351608a81850301815260aa840180865281519190930120600080845260ca909401948590529495509391927f00000000000000000000000000000000000000000000000000000000000000009160029161189f9190612074565b602060405180830381855afa1580156118bc573d6000803e3d6000fd5b5050506040513d601f19601f820116820180604052508101906118df9190612170565b8480519060200120604051602001611910949392919093845260208401929092526040830152606082015260800190565b6040516020818303038152906040528051906020012090507f00000000000000000000000000000000000000000000000000000000000000006001600160a01b031663a78f9e36866060013587604001358489806080019061197291906121ef565b8b60a001358c60c001356040518863ffffffff1660e01b815260040161199e9796959493929190612239565b602060405180830381865afa1580156119bb573d6000803e3d6000fd5b505050506040513d601f19601f820116820180604052508101906119df9190612086565b9695505050505050565b80356001600160a01b0381168114611a0057600080fd5b919050565b60008083601f840112611a1757600080fd5b50813567ffffffffffffffff811115611a2f57600080fd5b602083019150836020828501011115611a4757600080fd5b9250929050565b60008083601f840112611a6057600080fd5b50813567ffffffffffffffff811115611a7857600080fd5b6020830191508360208260051b8501011115611a4757600080fd5b600080600080600080600060a0888a031215611aae57600080fd5b87359650611abe602089016119e9565b955060408801359450606088013567ffffffffffffffff80821115611ae257600080fd5b611aee8b838c01611a05565b909650945060808a0135915080821115611b0757600080fd5b50611b148a828b01611a4e565b989b979a50959850939692959293505050565b60005b83811015611b42578181015183820152602001611b2a565b50506000910152565b60008151808452611b63816020860160208601611b27565b601f01601f19169290920160200192915050565b602081526000611b8a6020830184611b4b565b9392505050565b600060208284031215611ba357600080fd5b5035919050565b600080600080600080600060c0888a031215611bc557600080fd5b611bce886119e9565b9650611bdc602089016119e9565b955060408801359450611bf1606089016119e9565b93506080880135925060a088013567ffffffffffffffff811115611c1457600080fd5b611b148a828b01611a05565b600080600060408486031215611c3557600080fd5b833567ffffffffffffffff811115611c4c57600080fd5b611c5886828701611a4e565b909790965060209590950135949350505050565b634e487b7160e01b600052604160045260246000fd5b60008060008060808587031215611c9857600080fd5b84359350611ca8602086016119e9565b925060408501359150606085013567ffffffffffffffff80821115611ccc57600080fd5b818701915087601f830112611ce057600080fd5b813581811115611cf257611cf2611c6c565b604051601f8201601f19908116603f01168101908382118183101715611d1a57611d1a611c6c565b816040528281528a6020848701011115611d3357600080fd5b82602086016020830137600060208483010152809550505050505092959194509250565b60008060008060008060608789031215611d7057600080fd5b863567ffffffffffffffff80821115611d8857600080fd5b611d948a838b01611a4e565b90985096506020890135915080821115611dad57600080fd5b611db98a838b01611a4e565b90965094506040890135915080821115611dd257600080fd5b50611ddf89828a01611a4e565b979a9699509497509295939492505050565b60008060008060408587031215611e0757600080fd5b843567ffffffffffffffff80821115611e1f57600080fd5b611e2b88838901611a4e565b90965094506020870135915080821115611e4457600080fd5b50611e5187828801611a4e565b95989497509550505050565b60008060408385031215611e7057600080fd5b50508035926020909101359150565b6020808252825182820181905260009190848201906040850190845b81811015611eb757835183529284019291840191600101611e9b565b50909695505050505050565b60006bffffffffffffffffffffffff19808a60601b168352886014840152876034840152808760601b166054840152508460688301528284608884013750600091016088019081529695505050505050565b634e487b7160e01b600052603260045260246000fd5b6000823560de19833603018112611f4157600080fd5b9190910192915050565b634e487b7160e01b600052601160045260246000fd5b600060018201611f7357611f73611f4b565b5060010190565b8183823760009101908152919050565b6001600160a01b0386168152602081018590526080604082018190528101839052828460a0830137600060a084830101526000601f19601f850116820160a0838203016060840152611fdf60a0820185611b4b565b98975050505050505050565b6020808252600890820152672737ba1029b2b63360c11b604082015260600190565b6020808252601e908201527f4d757374206265206e6f6e2d7a65726f20736967732072657175697265640000604082015260600190565b6020808252601690820152750a6d2cee640e4cae2ead2e4cac840e8dede40d0d2ced60531b604082015260600190565b60008251611f41818460208701611b27565b60006020828403121561209857600080fd5b81518015158114611b8a57600080fd5b8181038181111561174057611740611f4b565b634e487b7160e01b600052603160045260246000fd5b60006bffffffffffffffffffffffff19808960601b168352876014840152866034840152808660601b16605484015250836068830152825161211a816088850160208701611b27565b91909101608801979650505050505050565b6020808252600f908201526e098cadccee8d040dad2e6dac2e8c6d608b1b604082015260600190565b60006020828403121561216757600080fd5b611b8a826119e9565b60006020828403121561218257600080fd5b5051919050565b8082018082111561174057611740611f4b565b6000826121b957634e487b7160e01b600052601260045260246000fd5b500690565b60408101818360005b60028110156121e65781518352602092830192909101906001016121c7565b50505092915050565b6000808335601e1984360301811261220657600080fd5b83018035915067ffffffffffffffff82111561222157600080fd5b6020019150600581901b3603821315611a4757600080fd5b87815286602082015285604082015260c060608201528360c0820152600060018060fb1b0385111561226a57600080fd5b8460051b808760e085013760808301949094525060a08101919091520160e0019594505050505056fea2646970667358221220addee73ee726353c6fb61be647551027bfa7622664ea8abd7c75b400a386170364736f6c63430008140033",
  "deployedBytecode": "0x60806040526004361061012e5760003560e01c806388d695b2116100ab578063a8d2c8521161006f578063a8d2c852146103dc578063aad24061146103fc578063ce757d291461042c578063e4cf5a2c14610442578063eaaba55914610476578063f1ea66d41461049657600080fd5b806388d695b21461033a5780639a8a05921461035a5780639e4e731814610370578063a0c1deb414610385578063a8898a201461039a57600080fd5b80634fe840f5116100f25780634fe840f51461023a578063545a4a3c1461026e578063644512121461028e5780636717e41c146102ae5780637ee68373146102ee57600080fd5b80631b108c07146101745780633034a742146101aa5780633a624581146101cc5780634791ca34146101ec57806349ce89971461020c57600080fd5b3661016f576040805134815247602082015233917f90890809c654f11d6e72a28fa60149770a0d11ec6c92319d6ceb2bb0a4ea1a15910160405180910390a2005b600080fd5b34801561018057600080fd5b5061019461018f366004611a93565b6104b8565b6040516101a19190611b77565b60405180910390f35b3480156101b657600080fd5b506101ca6101c5366004611b91565b610860565b005b3480156101d857600080fd5b506101ca6101e7366004611baa565b6108c6565b3480156101f857600080fd5b506101ca610207366004611c20565b610a92565b34801561021857600080fd5b5061022c610227366004611b91565b610d20565b6040519081526020016101a1565b34801561024657600080fd5b5061022c7f000000000000000000000000000000000000000000000000000000000000000081565b34801561027a57600080fd5b5061022c610289366004611c82565b610d41565b34801561029a57600080fd5b506101ca6102a9366004611d57565b610d7e565b3480156102ba57600080fd5b506102de6102c9366004611b91565b60036020526000908152604090205460ff1681565b60405190151581526020016101a1565b3480156102fa57600080fd5b506103227f000000000000000000000000000000000000000000000000000000000000000081565b6040516001600160a01b0390911681526020016101a1565b34801561034657600080fd5b506101ca610355366004611df1565b61113b565b34801561036657600080fd5b5061022c60005481565b34801561037c57600080fd5b5061022c61131f565b34801561039157600080fd5b5060025461022c565b3480156103a657600080fd5b5061022c60405169756c747261706c6f6e6b60b01b6020820152602a016040516020818303038152906040528051906020012081565b3480156103e857600080fd5b506101ca6103f7366004611c20565b61137f565b34801561040857600080fd5b506102de610417366004611b91565b60046020526000908152604090205460ff1681565b34801561043857600080fd5b5061022c60015481565b34801561044e57600080fd5b5061022c7f30644e72e131a029b85045b68181585d2833e84879b9709143e1f593f000000181565b34801561048257600080fd5b5061022c610491366004611e5d565b611655565b3480156104a257600080fd5b506104ab611746565b6040516101a19190611e7f565b60008781526003602052604090205460609060ff16156105145760405162461bcd60e51b8152602060048201526012602482015271139bdb98d948185b1c9958591e481d5cd95960721b60448201526064015b60405180910390fd5b60015482101561055a5760405162461bcd60e51b81526020600482015260116024820152704e6f7420656e6f7567682070726f6f667360781b604482015260640161050b565b600080546040516105799130918c908c908c908c908c90602001611ec3565b60405160208183030381529060405280519060200120905060005b8381101561075a57600460008686848181106105b2576105b2611f15565b90506020028101906105c49190611f2b565b60209081013582528101919091526040016000205460ff16156106225760405162461bcd60e51b8152602060048201526016602482015275139d5b1b1a599a595c88185b1c9958591e481d5cd95960521b604482015260640161050b565b61064f85858381811061063757610637611f15565b90506020028101906106499190611f2b565b3561179e565b6106925760405162461bcd60e51b81526020600482015260146024820152732737ba10309031bab93932b73a1039b4b3b732b960611b604482015260640161050b565b6106bf828686848181106106a8576106a8611f15565b90506020028101906106ba9190611f2b565b6117f4565b6106fb5760405162461bcd60e51b815260206004820152600d60248201526c24b73b30b634b210383937b7b360991b604482015260640161050b565b60016004600087878581811061071357610713611f15565b90506020028101906107259190611f2b565b6020908101358252810191909152604001600020805460ff19169115159190911790558061075281611f61565b915050610594565b50600089815260036020526040808220805460ff191660011790555181906001600160a01b038b16908a90610792908b908b90611f7a565b60006040518083038185875af1925050503d80600081146107cf576040519150601f19603f3d011682016040523d82523d6000602084013e6107d4565b606091505b5091509150816108125760405162461bcd60e51b8152602060048201526009602482015268151e0819985a5b195960ba1b604482015260640161050b565b8a7f1654479f61781d185c419742a20e599a227ae1840317c8a74ceda5eb6166b8268b8b8b8b8660405161084a959493929190611f8a565b60405180910390a29a9950505050505050505050565b33301461087f5760405162461bcd60e51b815260040161050b90611feb565b6000811161089f5760405162461bcd60e51b815260040161050b9061200d565b6002548111156108c15760405162461bcd60e51b815260040161050b90612044565b600155565b3330146108e55760405162461bcd60e51b815260040161050b90611feb565b6040516001600160a01b0387811660248301526044820187905260009182918a169060640160408051601f198184030181529181526020820180516001600160e01b031663095ea7b360e01b1790525161093f9190612074565b6000604051808303816000865af19150503d806000811461097c576040519150601f19603f3d011682016040523d82523d6000602084013e610981565b606091505b50915091508180156109ab5750805115806109ab5750808060200190518101906109ab9190612086565b6109e85760405162461bcd60e51b815260206004820152600e60248201526d105c1c1c9bdd994819985a5b195960921b604482015260640161050b565b6000866001600160a01b0316868686604051610a05929190611f7a565b60006040518083038185875af1925050503d8060008114610a42576040519150601f19603f3d011682016040523d82523d6000602084013e610a47565b606091505b5050905080610a865760405162461bcd60e51b815260206004820152600b60248201526a10d85b1b0819985a5b195960aa1b604482015260640161050b565b50505050505050505050565b333014610ab15760405162461bcd60e51b815260040161050b90611feb565b81610aec5760405162461bcd60e51b815260206004820152600b60248201526a456d70747920617272617960a81b604482015260640161050b565b6002548210610b3d5760405162461bcd60e51b815260206004820152601960248201527f43616e6e6f742072656d6f766520616c6c207369676e65727300000000000000604482015260640161050b565b60008111610b5d5760405162461bcd60e51b815260040161050b9061200d565b600254610b6b9083906120a8565b811115610b8a5760405162461bcd60e51b815260040161050b90612044565b60005b82811015610d18576000805b600254811015610cc057858584818110610bb557610bb5611f15565b9050602002013560028281548110610bcf57610bcf611f15565b906000526020600020015403610cae5760028054610bef906001906120a8565b81548110610bff57610bff611f15565b906000526020600020015460028281548110610c1d57610c1d611f15565b6000918252602090912001556002805480610c3a57610c3a6120bb565b6001900381819060005260206000200160009055905560019150858584818110610c6657610c66611f15565b905060200201357f33129f9e36e06e860f22ce83276273f4d83d31e9fd4a0d3a4dbac9d2da4f9d0d6000604051610ca1911515815260200190565b60405180910390a2610cc0565b80610cb881611f61565b915050610b99565b5080610d055760405162461bcd60e51b815260206004820152601460248201527310dbdb5b5a5d1b595b9d081b9bdd08199bdd5b9960621b604482015260640161050b565b5080610d1081611f61565b915050610b8d565b506001555050565b60028181548110610d3057600080fd5b600091825260209091200154905081565b60008054604051610d5e91309188908890889088906020016120d1565b604051602081830303815290604052805190602001209050949350505050565b333014610d9d5760405162461bcd60e51b815260040161050b90611feb565b848314610dbc5760405162461bcd60e51b815260040161050b9061212c565b848114610ddb5760405162461bcd60e51b815260040161050b9061212c565b84610e165760405162461bcd60e51b815260206004820152600b60248201526a08adae0e8f240c4c2e8c6d60ab1b604482015260640161050b565b60005b85811015611132576000878783818110610e3557610e35611f15565b9050602002016020810190610e4a9190612155565b6001600160a01b031603610e945760405162461bcd60e51b8152602060048201526011602482015270125b9d985b1a59081c9958da5c1a595b9d607a1b604482015260640161050b565b6000838383818110610ea857610ea8611f15565b9050602002016020810190610ebd9190612155565b6001600160a01b031603610fa8576000878783818110610edf57610edf611f15565b9050602002016020810190610ef49190612155565b6001600160a01b0316868684818110610f0f57610f0f611f15565b9050602002013560405160006040518083038185875af1925050503d8060008114610f56576040519150601f19603f3d011682016040523d82523d6000602084013e610f5b565b606091505b5050905080610fa25760405162461bcd60e51b8152602060048201526013602482015272115512081d1c985b9cd9995c8819985a5b1959606a1b604482015260640161050b565b50611120565b600080848484818110610fbd57610fbd611f15565b9050602002016020810190610fd29190612155565b6001600160a01b0316898985818110610fed57610fed611f15565b90506020020160208101906110029190612155565b88888681811061101457611014611f15565b6040516001600160a01b039094166024850152602002919091013560448301525060640160408051601f198184030181529181526020820180516001600160e01b031663a9059cbb60e01b1790525161106d9190612074565b6000604051808303816000865af19150503d80600081146110aa576040519150601f19603f3d011682016040523d82523d6000602084013e6110af565b606091505b50915091508180156110d95750805115806110d95750808060200190518101906110d99190612086565b61111d5760405162461bcd60e51b8152602060048201526015602482015274115490cc8c081d1c985b9cd9995c8819985a5b1959605a1b604482015260640161050b565b50505b8061112a81611f61565b915050610e19565b50505050505050565b33301461115a5760405162461bcd60e51b815260040161050b90611feb565b8281146111795760405162461bcd60e51b815260040161050b9061212c565b826111b45760405162461bcd60e51b815260206004820152600b60248201526a08adae0e8f240c4c2e8c6d60ab1b604482015260640161050b565b60005b838110156113185760008585838181106111d3576111d3611f15565b90506020020160208101906111e89190612155565b6001600160a01b0316036112325760405162461bcd60e51b8152602060048201526011602482015270125b9d985b1a59081c9958da5c1a595b9d607a1b604482015260640161050b565b600085858381811061124657611246611f15565b905060200201602081019061125b9190612155565b6001600160a01b031684848481811061127657611276611f15565b9050602002013560405160006040518083038185875af1925050503d80600081146112bd576040519150601f19603f3d011682016040523d82523d6000602084013e6112c2565b606091505b50509050806113055760405162461bcd60e51b815260206004820152600f60248201526e151c985b9cd9995c8819985a5b1959608a1b604482015260640161050b565b508061131081611f61565b9150506111b7565b5050505050565b6040805160008152602081019182905260029161133c9190612074565b602060405180830381855afa158015611359573d6000803e3d6000fd5b5050506040513d601f19601f8201168201806040525081019061137c9190612170565b81565b33301461139e5760405162461bcd60e51b815260040161050b90611feb565b816113d95760405162461bcd60e51b815260206004820152600b60248201526a456d70747920617272617960a81b604482015260640161050b565b600081116113f95760405162461bcd60e51b815260040161050b9061200d565b600254611407908390612189565b8111156114265760405162461bcd60e51b815260040161050b90612044565b60005b82811015610d185783838281811061144357611443611f15565b9050602002013560000361148e5760405162461bcd60e51b8152602060048201526012602482015271125b9d985b1a590818dbdb5b5a5d1b595b9d60721b604482015260640161050b565b60005b600254811015611525578484838181106114ad576114ad611f15565b90506020020135600282815481106114c7576114c7611f15565b9060005260206000200154036115135760405162461bcd60e51b8152602060048201526011602482015270436f6d6d69746d656e742065786973747360781b604482015260640161050b565b8061151d81611f61565b915050611491565b5060005b818110156115b75784848381811061154357611543611f15565b9050602002013585858381811061155c5761155c611f15565b90506020020135036115a55760405162461bcd60e51b8152602060048201526012602482015271111d5c1b1a58d85d19481a5b881a5b9c1d5d60721b604482015260640161050b565b806115af81611f61565b915050611529565b5060028484838181106115cc576115cc611f15565b8354600181018555600094855260209485902091909402929092013591909201555083838281811061160057611600611f15565b905060200201357f33129f9e36e06e860f22ce83276273f4d83d31e9fd4a0d3a4dbac9d2da4f9d0d600160405161163b911515815260200190565b60405180910390a28061164d81611f61565b915050611429565b6000806116827f30644e72e131a029b85045b68181585d2833e84879b9709143e1f593f00000018561219c565b905060006116b07f30644e72e131a029b85045b68181585d2833e84879b9709143e1f593f00000018561219c565b604080518082018252848152602081018390529051632b0aac7f60e11b815291925073__$75f79a42d9bcbdbb69ad79ebd80f556f39$__9163561558fe916116fa916004016121be565b602060405180830381865af4158015611717573d6000803e3d6000fd5b505050506040513d601f19601f8201168201806040525081019061173b9190612170565b925050505b92915050565b6060600280548060200260200160405190810160405280929190818152602001828054801561179457602002820191906000526020600020905b815481526020019060010190808311611780575b5050505050905090565b6000805b6002548110156117eb5782600282815481106117c0576117c0611f15565b9060005260206000200154036117d95750600192915050565b806117e381611f61565b9150506117a2565b50600092915050565b600080611802846001611655565b604080516020808201849052863582840152868101356060808401919091528351808403909101815260808301845269756c747261706c6f6e6b60b01b60a08401528351608a81850301815260aa840180865281519190930120600080845260ca909401948590529495509391927f00000000000000000000000000000000000000000000000000000000000000009160029161189f9190612074565b602060405180830381855afa1580156118bc573d6000803e3d6000fd5b5050506040513d601f19601f820116820180604052508101906118df9190612170565b8480519060200120604051602001611910949392919093845260208401929092526040830152606082015260800190565b6040516020818303038152906040528051906020012090507f00000000000000000000000000000000000000000000000000000000000000006001600160a01b031663a78f9e36866060013587604001358489806080019061197291906121ef565b8b60a001358c60c001356040518863ffffffff1660e01b815260040161199e9796959493929190612239565b602060405180830381865afa1580156119bb573d6000803e3d6000fd5b505050506040513d601f19601f820116820180604052508101906119df9190612086565b9695505050505050565b80356001600160a01b0381168114611a0057600080fd5b919050565b60008083601f840112611a1757600080fd5b50813567ffffffffffffffff811115611a2f57600080fd5b602083019150836020828501011115611a4757600080fd5b9250929050565b60008083601f840112611a6057600080fd5b50813567ffffffffffffffff811115611a7857600080fd5b6020830191508360208260051b8501011115611a4757600080fd5b600080600080600080600060a0888a031215611aae57600080fd5b87359650611abe602089016119e9565b955060408801359450606088013567ffffffffffffffff80821115611ae257600080fd5b611aee8b838c01611a05565b909650945060808a0135915080821115611b0757600080fd5b50611b148a828b01611a4e565b989b979a50959850939692959293505050565b60005b83811015611b42578181015183820152602001611b2a565b50506000910152565b60008151808452611b63816020860160208601611b27565b601f01601f19169290920160200192915050565b602081526000611b8a6020830184611b4b565b9392505050565b600060208284031215611ba357600080fd5b5035919050565b600080600080600080600060c0888a031215611bc557600080fd5b611bce886119e9565b9650611bdc602089016119e9565b955060408801359450611bf1606089016119e9565b93506080880135925060a088013567ffffffffffffffff811115611c1457600080fd5b611b148a828b01611a05565b600080600060408486031215611c3557600080fd5b833567ffffffffffffffff811115611c4c57600080fd5b611c5886828701611a4e565b909790965060209590950135949350505050565b634e487b7160e01b600052604160045260246000fd5b60008060008060808587031215611c9857600080fd5b84359350611ca8602086016119e9565b925060408501359150606085013567ffffffffffffffff80821115611ccc57600080fd5b818701915087601f830112611ce057600080fd5b813581811115611cf257611cf2611c6c565b604051601f8201601f19908116603f01168101908382118183101715611d1a57611d1a611c6c565b816040528281528a6020848701011115611d3357600080fd5b82602086016020830137600060208483010152809550505050505092959194509250565b60008060008060008060608789031215611d7057600080fd5b863567ffffffffffffffff80821115611d8857600080fd5b611d948a838b01611a4e565b90985096506020890135915080821115611dad57600080fd5b611db98a838b01611a4e565b90965094506040890135915080821115611dd257600080fd5b50611ddf89828a01611a4e565b979a9699509497509295939492505050565b60008060008060408587031215611e0757600080fd5b843567ffffffffffffffff80821115611e1f57600080fd5b611e2b88838901611a4e565b90965094506020870135915080821115611e4457600080fd5b50611e5187828801611a4e565b95989497509550505050565b60008060408385031215611e7057600080fd5b50508035926020909101359150565b6020808252825182820181905260009190848201906040850190845b81811015611eb757835183529284019291840191600101611e9b565b50909695505050505050565b60006bffffffffffffffffffffffff19808a60601b168352886014840152876034840152808760601b166054840152508460688301528284608884013750600091016088019081529695505050505050565b634e487b7160e01b600052603260045260246000fd5b6000823560de19833603018112611f4157600080fd5b9190910192915050565b634e487b7160e01b600052601160045260246000fd5b600060018201611f7357611f73611f4b565b5060010190565b8183823760009101908152919050565b6001600160a01b0386168152602081018590526080604082018190528101839052828460a0830137600060a084830101526000601f19601f850116820160a0838203016060840152611fdf60a0820185611b4b565b98975050505050505050565b6020808252600890820152672737ba1029b2b63360c11b604082015260600190565b6020808252601e908201527f4d757374206265206e6f6e2d7a65726f20736967732072657175697265640000604082015260600190565b6020808252601690820152750a6d2cee640e4cae2ead2e4cac840e8dede40d0d2ced60531b604082015260600190565b60008251611f41818460208701611b27565b60006020828403121561209857600080fd5b81518015158114611b8a57600080fd5b8181038181111561174057611740611f4b565b634e487b7160e01b600052603160045260246000fd5b60006bffffffffffffffffffffffff19808960601b168352876014840152866034840152808660601b16605484015250836068830152825161211a816088850160208701611b27565b91909101608801979650505050505050565b6020808252600f908201526e098cadccee8d040dad2e6dac2e8c6d608b1b604082015260600190565b60006020828403121561216757600080fd5b611b8a826119e9565b60006020828403121561218257600080fd5b5051919050565b8082018082111561174057611740611f4b565b6000826121b957634e487b7160e01b600052601260045260246000fd5b500690565b60408101818360005b60028110156121e65781518352602092830192909101906001016121c7565b50505092915050565b6000808335601e1984360301811261220657600080fd5b83018035915067ffffffffffffffff82111561222157600080fd5b6020019150600581901b3603821315611a4757600080fd5b87815286602082015285604082015260c060608201528360c0820152600060018060fb1b0385111561226a57600080fd5b8460051b808760e085013760808301949094525060a08101919091520160e0019594505050505056fea2646970667358221220addee73ee726353c6fb61be647551027bfa7622664ea8abd7c75b400a386170364736f6c63430008140033",
  "libraries": {
    "PoseidonT3": "0x3333333C0A88F9BE4fd23ed0536F9B6c427e3B93"
  },
  "devdoc": {
    "kind": "dev",
    "methods": {
      "approveAndCall(address,address,uint256,address,uint256,bytes)": {
        "params": {
          "approveAmount": "Amount to approve",
          "callData": "Encoded function call for the target",
          "callTarget": "Contract to call after approval",
          "callValue": "Native ETH to send with the call (e.g. LayerZero fee)",
          "spender": "Address to approve spending",
          "token": "ERC20 token to approve"
        }
      },
      "batchTransfer(address[],uint256[])": {
        "params": {
          "amounts": "Array of amounts to send",
          "recipients": "Array of recipient addresses"
        }
      },
      "batchTransferMulti(address[],uint256[],address[])": {
        "params": {
          "amounts": "Array of amounts to send",
          "recipients": "Array of recipient addresses",
          "tokenAddresses": "Array of token addresses (address(0) = native ETH)"
        }
      }
    },
    "version": 1
  },
  "userdoc": {
    "kind": "user",
    "methods": {
      "approveAndCall(address,address,uint256,address,uint256,bytes)": {
        "notice": "Approve an ERC20 token and call a target contract in one atomic operation.         Used for cross-chain bridge flows (e.g. OFT Adapter: approve + send)."
      },
      "batchTransfer(address[],uint256[])": {
        "notice": "Execute multiple transfers in one transaction"
      },
      "batchTransferMulti(address[],uint256[],address[])": {
        "notice": "Execute multiple transfers with mixed token types"
      }
    },
    "version": 1
  },
  "storageLayout": {
    "storage": [
      {
        "astId": 88,
        "contract": "contracts/MetaMultiSigWallet.sol:MetaMultiSigWallet",
        "label": "chainId",
        "offset": 0,
        "slot": "0",
        "type": "t_uint256"
      },
      {
        "astId": 90,
        "contract": "contracts/MetaMultiSigWallet.sol:MetaMultiSigWallet",
        "label": "signaturesRequired",
        "offset": 0,
        "slot": "1",
        "type": "t_uint256"
      },
      {
        "astId": 93,
        "contract": "contracts/MetaMultiSigWallet.sol:MetaMultiSigWallet",
        "label": "commitments",
        "offset": 0,
        "slot": "2",
        "type": "t_array(t_uint256)dyn_storage"
      },
      {
        "astId": 97,
        "contract": "contracts/MetaMultiSigWallet.sol:MetaMultiSigWallet",
        "label": "usedNonces",
        "offset": 0,
        "slot": "3",
        "type": "t_mapping(t_uint256,t_bool)"
      },
      {
        "astId": 101,
        "contract": "contracts/MetaMultiSigWallet.sol:MetaMultiSigWallet",
        "label": "usedNullifiers",
        "offset": 0,
        "slot": "4",
        "type": "t_mapping(t_uint256,t_bool)"
      }
    ],
    "types": {
      "t_array(t_uint256)dyn_storage": {
        "base": "t_uint256",
        "encoding": "dynamic_array",
        "label": "uint256[]",
        "numberOfBytes": "32"
      },
      "t_bool": {
        "encoding": "inplace",
        "label": "bool",
        "numberOfBytes": "1"
      },
      "t_mapping(t_uint256,t_bool)": {
        "encoding": "mapping",
        "key": "t_uint256",
        "label": "mapping(uint256 => bool)",
        "numberOfBytes": "32",
        "value": "t_bool"
      },
      "t_uint256": {
        "encoding": "inplace",
        "label": "uint256",
        "numberOfBytes": "32"
      }
    }
  }
}