{
  "address": "0x0b68dd63118E521a2aDEa40f362cAd4E2B46C5a1",
  "abi": [
    {
      "inputs": [
        {
          "internalType": "address",
          "name": "_zkvContract",
          "type": "address"
        },
        {
          "internalType": "bytes32",
          "name": "_vkHash",
          "type": "bytes32"
        },
        {
          "internalType": "uint256",
          "name": "_chainId",
          "type": "uint256"
        },
        {
          "internalType": "uint256[]",
          "name": "_initialCommitments",
          "type": "uint256[]"
        },
        {
          "internalType": "uint256",
          "name": "_signaturesRequired",
          "type": "uint256"
        }
      ],
      "stateMutability": "nonpayable",
      "type": "constructor"
    },
    {
      "anonymous": false,
      "inputs": [
        {
          "indexed": true,
          "internalType": "address",
          "name": "sender",
          "type": "address"
        },
        {
          "indexed": false,
          "internalType": "uint256",
          "name": "amount",
          "type": "uint256"
        },
        {
          "indexed": false,
          "internalType": "uint256",
          "name": "balance",
          "type": "uint256"
        }
      ],
      "name": "Deposit",
      "type": "event"
    },
    {
      "anonymous": false,
      "inputs": [
        {
          "indexed": true,
          "internalType": "uint256",
          "name": "commitment",
          "type": "uint256"
        },
        {
          "indexed": false,
          "internalType": "bool",
          "name": "isAdded",
          "type": "bool"
        }
      ],
      "name": "Owner",
      "type": "event"
    },
    {
      "anonymous": false,
      "inputs": [
        {
          "indexed": true,
          "internalType": "uint256",
          "name": "nonce",
          "type": "uint256"
        },
        {
          "indexed": false,
          "internalType": "address",
          "name": "to",
          "type": "address"
        },
        {
          "indexed": false,
          "internalType": "uint256",
          "name": "value",
          "type": "uint256"
        },
        {
          "indexed": false,
          "internalType": "bytes",
          "name": "data",
          "type": "bytes"
        },
        {
          "indexed": false,
          "internalType": "bytes",
          "name": "result",
          "type": "bytes"
        }
      ],
      "name": "TransactionExecuted",
      "type": "event"
    },
    {
      "inputs": [],
      "name": "BN254_PRIME",
      "outputs": [
        {
          "internalType": "uint256",
          "name": "",
          "type": "uint256"
        }
      ],
      "stateMutability": "view",
      "type": "function"
    },
    {
      "inputs": [],
      "name": "MAX_SIGNERS",
      "outputs": [
        {
          "internalType": "uint256",
          "name": "",
          "type": "uint256"
        }
      ],
      "stateMutability": "view",
      "type": "function"
    },
    {
      "inputs": [],
      "name": "PROVING_SYSTEM_ID",
      "outputs": [
        {
          "internalType": "bytes32",
          "name": "",
          "type": "bytes32"
        }
      ],
      "stateMutability": "view",
      "type": "function"
    },
    {
      "inputs": [],
      "name": "VERSION_HASH",
      "outputs": [
        {
          "internalType": "bytes32",
          "name": "",
          "type": "bytes32"
        }
      ],
      "stateMutability": "view",
      "type": "function"
    },
    {
      "inputs": [
        {
          "internalType": "uint256",
          "name": "newCommitment",
          "type": "uint256"
        },
        {
          "internalType": "uint256",
          "name": "newSigRequired",
          "type": "uint256"
        }
      ],
      "name": "addSigner",
      "outputs": [],
      "stateMutability": "nonpayable",
      "type": "function"
    },
    {
      "inputs": [
        {
          "internalType": "address[]",
          "name": "recipients",
          "type": "address[]"
        },
        {
          "internalType": "uint256[]",
          "name": "amounts",
          "type": "uint256[]"
        }
      ],
      "name": "batchTransfer",
      "outputs": [],
      "stateMutability": "nonpayable",
      "type": "function"
    },
    {
      "inputs": [],
      "name": "chainId",
      "outputs": [
        {
          "internalType": "uint256",
          "name": "",
          "type": "uint256"
        }
      ],
      "stateMutability": "view",
      "type": "function"
    },
    {
      "inputs": [
        {
          "internalType": "uint256",
          "name": "",
          "type": "uint256"
        }
      ],
      "name": "commitments",
      "outputs": [
        {
          "internalType": "uint256",
          "name": "",
          "type": "uint256"
        }
      ],
      "stateMutability": "view",
      "type": "function"
    },
    {
      "inputs": [
        {
          "internalType": "address",
          "name": "to",
          "type": "address"
        },
        {
          "internalType": "uint256",
          "name": "value",
          "type": "uint256"
        },
        {
          "internalType": "bytes",
          "name": "data",
          "type": "bytes"
        },
        {
          "components": [
            {
              "internalType": "uint256",
              "name": "nullifier",
              "type": "uint256"
            },
            {
              "internalType": "uint256",
              "name": "aggregationId",
              "type": "uint256"
            },
            {
              "internalType": "uint256",
              "name": "domainId",
              "type": "uint256"
            },
            {
              "internalType": "bytes32[]",
              "name": "zkMerklePath",
              "type": "bytes32[]"
            },
            {
              "internalType": "uint256",
              "name": "leafCount",
              "type": "uint256"
            },
            {
              "internalType": "uint256",
              "name": "index",
              "type": "uint256"
            }
          ],
          "internalType": "struct MetaMultiSigWallet.ZkProof[]",
          "name": "proofs",
          "type": "tuple[]"
        }
      ],
      "name": "execute",
      "outputs": [
        {
          "internalType": "bytes",
          "name": "",
          "type": "bytes"
        }
      ],
      "stateMutability": "nonpayable",
      "type": "function"
    },
    {
      "inputs": [],
      "name": "getCommitments",
      "outputs": [
        {
          "internalType": "uint256[]",
          "name": "",
          "type": "uint256[]"
        }
      ],
      "stateMutability": "view",
      "type": "function"
    },
    {
      "inputs": [],
      "name": "getSignersCount",
      "outputs": [
        {
          "internalType": "uint256",
          "name": "",
          "type": "uint256"
        }
      ],
      "stateMutability": "view",
      "type": "function"
    },
    {
      "inputs": [
        {
          "internalType": "uint256",
          "name": "_nonce",
          "type": "uint256"
        },
        {
          "internalType": "address",
          "name": "to",
          "type": "address"
        },
        {
          "internalType": "uint256",
          "name": "value",
          "type": "uint256"
        },
        {
          "internalType": "bytes",
          "name": "data",
          "type": "bytes"
        }
      ],
      "name": "getTransactionHash",
      "outputs": [
        {
          "internalType": "bytes32",
          "name": "",
          "type": "bytes32"
        }
      ],
      "stateMutability": "view",
      "type": "function"
    },
    {
      "inputs": [],
      "name": "merkleRoot",
      "outputs": [
        {
          "internalType": "uint256",
          "name": "",
          "type": "uint256"
        }
      ],
      "stateMutability": "view",
      "type": "function"
    },
    {
      "inputs": [],
      "name": "nonce",
      "outputs": [
        {
          "internalType": "uint256",
          "name": "",
          "type": "uint256"
        }
      ],
      "stateMutability": "view",
      "type": "function"
    },
    {
      "inputs": [
        {
          "internalType": "uint256",
          "name": "a",
          "type": "uint256"
        },
        {
          "internalType": "uint256",
          "name": "b",
          "type": "uint256"
        }
      ],
      "name": "poseidonHash2",
      "outputs": [
        {
          "internalType": "uint256",
          "name": "",
          "type": "uint256"
        }
      ],
      "stateMutability": "pure",
      "type": "function"
    },
    {
      "inputs": [
        {
          "internalType": "uint256",
          "name": "commitment",
          "type": "uint256"
        },
        {
          "internalType": "uint256",
          "name": "newSigRequired",
          "type": "uint256"
        }
      ],
      "name": "removeSigner",
      "outputs": [],
      "stateMutability": "nonpayable",
      "type": "function"
    },
    {
      "inputs": [],
      "name": "signaturesRequired",
      "outputs": [
        {
          "internalType": "uint256",
          "name": "",
          "type": "uint256"
        }
      ],
      "stateMutability": "view",
      "type": "function"
    },
    {
      "inputs": [
        {
          "internalType": "uint256",
          "name": "newSigRequired",
          "type": "uint256"
        }
      ],
      "name": "updateSignaturesRequired",
      "outputs": [],
      "stateMutability": "nonpayable",
      "type": "function"
    },
    {
      "inputs": [
        {
          "internalType": "uint256",
          "name": "",
          "type": "uint256"
        }
      ],
      "name": "usedNullifiers",
      "outputs": [
        {
          "internalType": "bool",
          "name": "",
          "type": "bool"
        }
      ],
      "stateMutability": "view",
      "type": "function"
    },
    {
      "inputs": [],
      "name": "vkHash",
      "outputs": [
        {
          "internalType": "bytes32",
          "name": "",
          "type": "bytes32"
        }
      ],
      "stateMutability": "view",
      "type": "function"
    },
    {
      "inputs": [],
      "name": "zkvContract",
      "outputs": [
        {
          "internalType": "address",
          "name": "",
          "type": "address"
        }
      ],
      "stateMutability": "view",
      "type": "function"
    },
    {
      "stateMutability": "payable",
      "type": "receive"
    }
  ],
  "transactionHash": "0x9ffbc421819b3cafd02acd33e93fb0283a9138608a98cbc75189edfe41aa1aea",
  "args": [
    "0xCC02D0A54F3184dF4c88811E5b9FAb7ff8131e4a",
    "0x104717314e0c94ef15d6992292b713aa2ffc48c74e0c41f7344a611caa606dde",
    2651420,
    [
      "7777412979265397193925220040726445950599854595059203997869095364409346949110",
      "3893960714193187677642727159938790123674441621624357680276520538080166792249"
    ],
    2
  ],
  "numDeployments": 1,
  "solcInputHash": "b217ccc804351eb7d6150f3cf0148ca4",
  "bytecode": "0x60c06040523480156200001157600080fd5b50604051620022e7380380620022e78339810160408190526200003491620005b8565b6001600160a01b038516620000905760405162461bcd60e51b815260206004820152601360248201527f496e76616c6964207a6b7620616464726573730000000000000000000000000060448201526064015b60405180910390fd5b60008111620000e25760405162461bcd60e51b815260206004820152601e60248201527f4d757374206265206e6f6e2d7a65726f20736967732072657175697265640000604482015260640162000087565b6000825111620001355760405162461bcd60e51b815260206004820152601660248201527f4e656564206174206c656173742031207369676e657200000000000000000000604482015260640162000087565b8151811115620001885760405162461bcd60e51b815260206004820152601660248201527f5369677320726571756972656420746f6f206869676800000000000000000000604482015260640162000087565b6001600160a01b03851660805260a0849052600083815560028290555b8251811015620002b957828181518110620001c457620001c4620006c3565b6020026020010151600003620002125760405162461bcd60e51b8152602060048201526012602482015271125b9d985b1a590818dbdb5b5a5d1b595b9d60721b604482015260640162000087565b6003838281518110620002295762000229620006c3565b6020908102919091018101518254600181018455600093845291909220015582518390829081106200025f576200025f620006c3565b60200260200101517f33129f9e36e06e860f22ce83276273f4d83d31e9fd4a0d3a4dbac9d2da4f9d0d60016040516200029c911515815260200190565b60405180910390a280620002b081620006ef565b915050620001a5565b50620002c4620002cf565b5050505050620007cc565b6040805160108082526102208201909252600091602082016102008036833701905050905060005b600354811015620003585760038181548110620003185762000318620006c3565b9060005260206000200154828281518110620003385762000338620006c3565b6020908102919091010152806200034f81620006ef565b915050620002f7565b506003545b60108110156200039e5760018282815181106200037e576200037e620006c3565b6020908102919091010152806200039581620006ef565b9150506200035d565b5060105b6001811115620004805760005b620003bc60028362000721565b8110156200046a576200043583620003d683600262000738565b81518110620003e957620003e9620006c3565b60200260200101518483600262000401919062000738565b6200040e90600162000752565b81518110620004215762000421620006c3565b6020026020010151620004a860201b60201c565b8382815181106200044a576200044a620006c3565b6020908102919091010152806200046181620006ef565b915050620003af565b506200047860028262000721565b9050620003a2565b81600081518110620004965762000496620006c3565b60200260200101516004819055505050565b600080620004d77f30644e72e131a029b85045b68181585d2833e84879b9709143e1f593f00000018562000768565b90506000620005077f30644e72e131a029b85045b68181585d2833e84879b9709143e1f593f00000018562000768565b604080518082018252848152602081018390529051632b0aac7f60e11b8152919250733333333C0A88F9BE4fd23ed0536F9B6c427e3B939163561558fe9162000553916004016200077f565b602060405180830381865af415801562000571573d6000803e3d6000fd5b505050506040513d601f19601f82011682018060405250810190620005979190620007b2565b925050505b92915050565b634e487b7160e01b600052604160045260246000fd5b600080600080600060a08688031215620005d157600080fd5b85516001600160a01b0381168114620005e957600080fd5b602087810151604089015160608a01519398509096509450906001600160401b03808211156200061857600080fd5b818901915089601f8301126200062d57600080fd5b815181811115620006425762000642620005a2565b8060051b604051601f19603f830116810181811085821117156200066a576200066a620005a2565b60405291825284820192508381018501918c8311156200068957600080fd5b938501935b82851015620006a9578451845293850193928501926200068e565b809750505050505050608086015190509295509295909350565b634e487b7160e01b600052603260045260246000fd5b634e487b7160e01b600052601160045260246000fd5b600060018201620007045762000704620006d9565b5060010190565b634e487b7160e01b600052601260045260246000fd5b6000826200073357620007336200070b565b500490565b80820281158282048414176200059c576200059c620006d9565b808201808211156200059c576200059c620006d9565b6000826200077a576200077a6200070b565b500690565b60408101818360005b6002811015620007a957815183526020928301929091019060010162000788565b50505092915050565b600060208284031215620007c557600080fd5b5051919050565b60805160a051611ae76200080060003960008181610211015261120101526000818161027a01526112b80152611ae76000f3fe60806040526004361061012e5760003560e01c80639e4e7318116100ab578063c903fe971161006f578063c903fe97146103ac578063ce757d29146103d9578063d84989f2146103ef578063e4cf5a2c1461040f578063eaaba55914610443578063f1ea66d41461046357600080fd5b80639e4e7318146102ea578063a0c1deb4146102ff578063a8898a2014610314578063aad2406114610356578063affed0e01461039657600080fd5b8063545a4a3c116100f2578063545a4a3c1461023357806359ecd657146102535780637ee683731461026857806388d695b2146102b45780639a8a0592146102d457600080fd5b806316ad6a9b146101745780632eb4a7ab146101965780633034a742146101bf57806349ce8997146101df5780634fe840f5146101ff57600080fd5b3661016f576040805134815247602082015233917f90890809c654f11d6e72a28fa60149770a0d11ec6c92319d6ceb2bb0a4ea1a15910160405180910390a2005b600080fd5b34801561018057600080fd5b5061019461018f366004611377565b610485565b005b3480156101a257600080fd5b506101ac60045481565b6040519081526020015b60405180910390f35b3480156101cb57600080fd5b506101946101da366004611399565b610683565b3480156101eb57600080fd5b506101ac6101fa366004611399565b6106e9565b34801561020b57600080fd5b506101ac7f000000000000000000000000000000000000000000000000000000000000000081565b34801561023f57600080fd5b506101ac61024e3660046113e4565b61070a565b34801561025f57600080fd5b506101ac601081565b34801561027457600080fd5b5061029c7f000000000000000000000000000000000000000000000000000000000000000081565b6040516001600160a01b0390911681526020016101b6565b3480156102c057600080fd5b506101946102cf366004611505565b610747565b3480156102e057600080fd5b506101ac60005481565b3480156102f657600080fd5b506101ac61094d565b34801561030b57600080fd5b506003546101ac565b34801561032057600080fd5b506101ac60405169756c747261706c6f6e6b60b01b6020820152602a016040516020818303038152906040528051906020012081565b34801561036257600080fd5b50610386610371366004611399565b60056020526000908152604090205460ff1681565b60405190151581526020016101b6565b3480156103a257600080fd5b506101ac60015481565b3480156103b857600080fd5b506103cc6103c7366004611571565b6109ad565b6040516101b69190611679565b3480156103e557600080fd5b506101ac60025481565b3480156103fb57600080fd5b5061019461040a366004611377565b610c85565b34801561041b57600080fd5b506101ac7f30644e72e131a029b85045b68181585d2833e84879b9709143e1f593f000000181565b34801561044f57600080fd5b506101ac61045e366004611377565b610e8f565b34801561046f57600080fd5b50610478610f80565b6040516101b69190611693565b3330146104ad5760405162461bcd60e51b81526004016104a4906116d7565b60405180910390fd5b816000036104f25760405162461bcd60e51b8152602060048201526012602482015271125b9d985b1a590818dbdb5b5a5d1b595b9d60721b60448201526064016104a4565b60035460101161053a5760405162461bcd60e51b815260206004820152601360248201527213585e081cda59db995c9cc81c995858da1959606a1b60448201526064016104a4565b6000811161055a5760405162461bcd60e51b81526004016104a4906116f9565b600354610568906001611746565b8111156105875760405162461bcd60e51b81526004016104a490611759565b60005b6003548110156106065782600382815481106105a8576105a8611789565b9060005260206000200154036105f45760405162461bcd60e51b8152602060048201526011602482015270436f6d6d69746d656e742065786973747360781b60448201526064016104a4565b806105fe8161179f565b91505061058a565b50600380546001810182556000919091527fc2575a0e9e593c00f959f8c92f12db2869c3395a3b0502d05e2516446f71f85b018290556002819055610649610fd8565b6040516001815282907f33129f9e36e06e860f22ce83276273f4d83d31e9fd4a0d3a4dbac9d2da4f9d0d9060200160405180910390a25050565b3330146106a25760405162461bcd60e51b81526004016104a4906116d7565b600081116106c25760405162461bcd60e51b81526004016104a4906116f9565b6003548111156106e45760405162461bcd60e51b81526004016104a490611759565b600255565b600381815481106106f957600080fd5b600091825260209091200154905081565b6000805460405161072791309188908890889088906020016117b8565b604051602081830303815290604052805190602001209050949350505050565b3330146107665760405162461bcd60e51b81526004016104a4906116d7565b8281146107a75760405162461bcd60e51b815260206004820152600f60248201526e098cadccee8d040dad2e6dac2e8c6d608b1b60448201526064016104a4565b826107e25760405162461bcd60e51b815260206004820152600b60248201526a08adae0e8f240c4c2e8c6d60ab1b60448201526064016104a4565b60005b8381101561094657600085858381811061080157610801611789565b90506020020160208101906108169190611813565b6001600160a01b0316036108605760405162461bcd60e51b8152602060048201526011602482015270125b9d985b1a59081c9958da5c1a595b9d607a1b60448201526064016104a4565b600085858381811061087457610874611789565b90506020020160208101906108899190611813565b6001600160a01b03168484848181106108a4576108a4611789565b9050602002013560405160006040518083038185875af1925050503d80600081146108eb576040519150601f19603f3d011682016040523d82523d6000602084013e6108f0565b606091505b50509050806109335760405162461bcd60e51b815260206004820152600f60248201526e151c985b9cd9995c8819985a5b1959608a1b60448201526064016104a4565b508061093e8161179f565b9150506107e5565b5050505050565b6040805160008152602081019182905260029161096a919061182e565b602060405180830381855afa158015610987573d6000803e3d6000fd5b5050506040513d601f19601f820116820180604052508101906109aa919061184a565b81565b6002546060908210156109f65760405162461bcd60e51b81526020600482015260116024820152704e6f7420656e6f7567682070726f6f667360781b60448201526064016104a4565b60015460008054604051610a1891309185908d908d908d908d90602001611863565b60405160208183030381529060405280519060200120905060005b84811015610b835760056000878784818110610a5157610a51611789565b9050602002810190610a6391906118b5565b35815260208101919091526040016000205460ff1615610abe5760405162461bcd60e51b8152602060048201526016602482015275139d5b1b1a599a595c88185b1c9958591e481d5cd95960521b60448201526064016104a4565b610aeb82878784818110610ad457610ad4611789565b9050602002810190610ae691906118b5565b61117c565b610b275760405162461bcd60e51b815260206004820152600d60248201526c24b73b30b634b210383937b7b360991b60448201526064016104a4565b600160056000888885818110610b3f57610b3f611789565b9050602002810190610b5191906118b5565b3581526020810191909152604001600020805460ff191691151591909117905580610b7b8161179f565b915050610a33565b5060018054906000610b948361179f565b91905055506000808a6001600160a01b03168a8a8a604051610bb79291906118cb565b60006040518083038185875af1925050503d8060008114610bf4576040519150601f19603f3d011682016040523d82523d6000602084013e610bf9565b606091505b509150915081610c375760405162461bcd60e51b8152602060048201526009602482015268151e0819985a5b195960ba1b60448201526064016104a4565b837f1654479f61781d185c419742a20e599a227ae1840317c8a74ceda5eb6166b8268c8c8c8c86604051610c6f9594939291906118db565b60405180910390a29a9950505050505050505050565b333014610ca45760405162461bcd60e51b81526004016104a4906116d7565b600354600110610cf65760405162461bcd60e51b815260206004820152601960248201527f43616e6e6f742072656d6f7665206c617374207369676e65720000000000000060448201526064016104a4565b60008111610d165760405162461bcd60e51b81526004016104a4906116f9565b600354610d259060019061193c565b811115610d445760405162461bcd60e51b81526004016104a490611759565b6000805b600354811015610e02578360038281548110610d6657610d66611789565b906000526020600020015403610df05760038054610d869060019061193c565b81548110610d9657610d96611789565b906000526020600020015460038281548110610db457610db4611789565b6000918252602090912001556003805480610dd157610dd161194f565b6001900381819060005260206000200160009055905560019150610e02565b80610dfa8161179f565b915050610d48565b5080610e475760405162461bcd60e51b815260206004820152601460248201527310dbdb5b5a5d1b595b9d081b9bdd08199bdd5b9960621b60448201526064016104a4565b6002829055610e54610fd8565b6040516000815283907f33129f9e36e06e860f22ce83276273f4d83d31e9fd4a0d3a4dbac9d2da4f9d0d9060200160405180910390a2505050565b600080610ebc7f30644e72e131a029b85045b68181585d2833e84879b9709143e1f593f00000018561197b565b90506000610eea7f30644e72e131a029b85045b68181585d2833e84879b9709143e1f593f00000018561197b565b604080518082018252848152602081018390529051632b0aac7f60e11b8152919250733333333C0A88F9BE4fd23ed0536F9B6c427e3B939163561558fe91610f349160040161198f565b602060405180830381865af4158015610f51573d6000803e3d6000fd5b505050506040513d601f19601f82011682018060405250810190610f75919061184a565b925050505b92915050565b60606003805480602002602001604051908101604052809291908181526020018280548015610fce57602002820191906000526020600020905b815481526020019060010190808311610fba575b5050505050905090565b6040805160108082526102208201909252600091602082016102008036833701905050905060005b600354811015611057576003818154811061101d5761101d611789565b906000526020600020015482828151811061103a5761103a611789565b60209081029190910101528061104f8161179f565b915050611000565b506003545b601081101561109657600182828151811061107957611079611789565b60209081029190910101528061108e8161179f565b91505061105c565b5060105b60018111156111575760005b6110b16002836119c0565b81101561114457611115836110c78360026119d4565b815181106110d7576110d7611789565b6020026020010151848360026110ed91906119d4565b6110f8906001611746565b8151811061110857611108611789565b6020026020010151610e8f565b83828151811061112757611127611789565b60209081029190910101528061113c8161179f565b9150506110a6565b506111506002826119c0565b905061109a565b8160008151811061116a5761116a611789565b60200260200101516004819055505050565b60008061118a846001610e8f565b6004546040805160208101849052908101919091528435606082015290915060009060800160408051601f198184030181529082905269756c747261706c6f6e6b60b01b60208301529150600090602a0160408051601f1981840301815282825280516020918201206000845290830191829052917f00000000000000000000000000000000000000000000000000000000000000009160029161122d9161182e565b602060405180830381855afa15801561124a573d6000803e3d6000fd5b5050506040513d601f19601f8201168201806040525081019061126d919061184a565b848051906020012060405160200161129e949392919093845260208401929092526040830152606082015260800190565b6040516020818303038152906040528051906020012090507f00000000000000000000000000000000000000000000000000000000000000006001600160a01b031663a78f9e36866040013587602001358489806060019061130091906119eb565b8b608001358c60a001356040518863ffffffff1660e01b815260040161132c9796959493929190611a35565b602060405180830381865afa158015611349573d6000803e3d6000fd5b505050506040513d601f19601f8201168201806040525081019061136d9190611a8f565b9695505050505050565b6000806040838503121561138a57600080fd5b50508035926020909101359150565b6000602082840312156113ab57600080fd5b5035919050565b80356001600160a01b03811681146113c957600080fd5b919050565b634e487b7160e01b600052604160045260246000fd5b600080600080608085870312156113fa57600080fd5b8435935061140a602086016113b2565b925060408501359150606085013567ffffffffffffffff8082111561142e57600080fd5b818701915087601f83011261144257600080fd5b813581811115611454576114546113ce565b604051601f8201601f19908116603f0116810190838211818310171561147c5761147c6113ce565b816040528281528a602084870101111561149557600080fd5b82602086016020830137600060208483010152809550505050505092959194509250565b60008083601f8401126114cb57600080fd5b50813567ffffffffffffffff8111156114e357600080fd5b6020830191508360208260051b85010111156114fe57600080fd5b9250929050565b6000806000806040858703121561151b57600080fd5b843567ffffffffffffffff8082111561153357600080fd5b61153f888389016114b9565b9096509450602087013591508082111561155857600080fd5b50611565878288016114b9565b95989497509550505050565b6000806000806000806080878903121561158a57600080fd5b611593876113b2565b955060208701359450604087013567ffffffffffffffff808211156115b757600080fd5b818901915089601f8301126115cb57600080fd5b8135818111156115da57600080fd5b8a60208285010111156115ec57600080fd5b60208301965080955050606089013591508082111561160a57600080fd5b5061161789828a016114b9565b979a9699509497509295939492505050565b60005b8381101561164457818101518382015260200161162c565b50506000910152565b60008151808452611665816020860160208601611629565b601f01601f19169290920160200192915050565b60208152600061168c602083018461164d565b9392505050565b6020808252825182820181905260009190848201906040850190845b818110156116cb578351835292840192918401916001016116af565b50909695505050505050565b6020808252600890820152672737ba1029b2b63360c11b604082015260600190565b6020808252601e908201527f4d757374206265206e6f6e2d7a65726f20736967732072657175697265640000604082015260600190565b634e487b7160e01b600052601160045260246000fd5b80820180821115610f7a57610f7a611730565b6020808252601690820152750a6d2cee640e4cae2ead2e4cac840e8dede40d0d2ced60531b604082015260600190565b634e487b7160e01b600052603260045260246000fd5b6000600182016117b1576117b1611730565b5060010190565b60006bffffffffffffffffffffffff19808960601b168352876014840152866034840152808660601b166054840152508360688301528251611801816088850160208701611629565b91909101608801979650505050505050565b60006020828403121561182557600080fd5b61168c826113b2565b60008251611840818460208701611629565b9190910192915050565b60006020828403121561185c57600080fd5b5051919050565b60006bffffffffffffffffffffffff19808a60601b168352886014840152876034840152808760601b166054840152508460688301528284608884013750600091016088019081529695505050505050565b6000823560be1983360301811261184057600080fd5b8183823760009101908152919050565b6001600160a01b0386168152602081018590526080604082018190528101839052828460a0830137600060a084830101526000601f19601f850116820160a083820301606084015261193060a082018561164d565b98975050505050505050565b81810381811115610f7a57610f7a611730565b634e487b7160e01b600052603160045260246000fd5b634e487b7160e01b600052601260045260246000fd5b60008261198a5761198a611965565b500690565b60408101818360005b60028110156119b7578151835260209283019290910190600101611998565b50505092915050565b6000826119cf576119cf611965565b500490565b8082028115828204841417610f7a57610f7a611730565b6000808335601e19843603018112611a0257600080fd5b83018035915067ffffffffffffffff821115611a1d57600080fd5b6020019150600581901b36038213156114fe57600080fd5b87815286602082015285604082015260c060608201528360c0820152600060018060fb1b03851115611a6657600080fd5b8460051b808760e085013760808301949094525060a08101919091520160e00195945050505050565b600060208284031215611aa157600080fd5b8151801515811461168c57600080fdfea2646970667358221220d643e37dac0e35239acfced2148b7a1a069ccedbd057921106953bb966b67c4b64736f6c63430008140033",
  "deployedBytecode": "0x60806040526004361061012e5760003560e01c80639e4e7318116100ab578063c903fe971161006f578063c903fe97146103ac578063ce757d29146103d9578063d84989f2146103ef578063e4cf5a2c1461040f578063eaaba55914610443578063f1ea66d41461046357600080fd5b80639e4e7318146102ea578063a0c1deb4146102ff578063a8898a2014610314578063aad2406114610356578063affed0e01461039657600080fd5b8063545a4a3c116100f2578063545a4a3c1461023357806359ecd657146102535780637ee683731461026857806388d695b2146102b45780639a8a0592146102d457600080fd5b806316ad6a9b146101745780632eb4a7ab146101965780633034a742146101bf57806349ce8997146101df5780634fe840f5146101ff57600080fd5b3661016f576040805134815247602082015233917f90890809c654f11d6e72a28fa60149770a0d11ec6c92319d6ceb2bb0a4ea1a15910160405180910390a2005b600080fd5b34801561018057600080fd5b5061019461018f366004611377565b610485565b005b3480156101a257600080fd5b506101ac60045481565b6040519081526020015b60405180910390f35b3480156101cb57600080fd5b506101946101da366004611399565b610683565b3480156101eb57600080fd5b506101ac6101fa366004611399565b6106e9565b34801561020b57600080fd5b506101ac7f000000000000000000000000000000000000000000000000000000000000000081565b34801561023f57600080fd5b506101ac61024e3660046113e4565b61070a565b34801561025f57600080fd5b506101ac601081565b34801561027457600080fd5b5061029c7f000000000000000000000000000000000000000000000000000000000000000081565b6040516001600160a01b0390911681526020016101b6565b3480156102c057600080fd5b506101946102cf366004611505565b610747565b3480156102e057600080fd5b506101ac60005481565b3480156102f657600080fd5b506101ac61094d565b34801561030b57600080fd5b506003546101ac565b34801561032057600080fd5b506101ac60405169756c747261706c6f6e6b60b01b6020820152602a016040516020818303038152906040528051906020012081565b34801561036257600080fd5b50610386610371366004611399565b60056020526000908152604090205460ff1681565b60405190151581526020016101b6565b3480156103a257600080fd5b506101ac60015481565b3480156103b857600080fd5b506103cc6103c7366004611571565b6109ad565b6040516101b69190611679565b3480156103e557600080fd5b506101ac60025481565b3480156103fb57600080fd5b5061019461040a366004611377565b610c85565b34801561041b57600080fd5b506101ac7f30644e72e131a029b85045b68181585d2833e84879b9709143e1f593f000000181565b34801561044f57600080fd5b506101ac61045e366004611377565b610e8f565b34801561046f57600080fd5b50610478610f80565b6040516101b69190611693565b3330146104ad5760405162461bcd60e51b81526004016104a4906116d7565b60405180910390fd5b816000036104f25760405162461bcd60e51b8152602060048201526012602482015271125b9d985b1a590818dbdb5b5a5d1b595b9d60721b60448201526064016104a4565b60035460101161053a5760405162461bcd60e51b815260206004820152601360248201527213585e081cda59db995c9cc81c995858da1959606a1b60448201526064016104a4565b6000811161055a5760405162461bcd60e51b81526004016104a4906116f9565b600354610568906001611746565b8111156105875760405162461bcd60e51b81526004016104a490611759565b60005b6003548110156106065782600382815481106105a8576105a8611789565b9060005260206000200154036105f45760405162461bcd60e51b8152602060048201526011602482015270436f6d6d69746d656e742065786973747360781b60448201526064016104a4565b806105fe8161179f565b91505061058a565b50600380546001810182556000919091527fc2575a0e9e593c00f959f8c92f12db2869c3395a3b0502d05e2516446f71f85b018290556002819055610649610fd8565b6040516001815282907f33129f9e36e06e860f22ce83276273f4d83d31e9fd4a0d3a4dbac9d2da4f9d0d9060200160405180910390a25050565b3330146106a25760405162461bcd60e51b81526004016104a4906116d7565b600081116106c25760405162461bcd60e51b81526004016104a4906116f9565b6003548111156106e45760405162461bcd60e51b81526004016104a490611759565b600255565b600381815481106106f957600080fd5b600091825260209091200154905081565b6000805460405161072791309188908890889088906020016117b8565b604051602081830303815290604052805190602001209050949350505050565b3330146107665760405162461bcd60e51b81526004016104a4906116d7565b8281146107a75760405162461bcd60e51b815260206004820152600f60248201526e098cadccee8d040dad2e6dac2e8c6d608b1b60448201526064016104a4565b826107e25760405162461bcd60e51b815260206004820152600b60248201526a08adae0e8f240c4c2e8c6d60ab1b60448201526064016104a4565b60005b8381101561094657600085858381811061080157610801611789565b90506020020160208101906108169190611813565b6001600160a01b0316036108605760405162461bcd60e51b8152602060048201526011602482015270125b9d985b1a59081c9958da5c1a595b9d607a1b60448201526064016104a4565b600085858381811061087457610874611789565b90506020020160208101906108899190611813565b6001600160a01b03168484848181106108a4576108a4611789565b9050602002013560405160006040518083038185875af1925050503d80600081146108eb576040519150601f19603f3d011682016040523d82523d6000602084013e6108f0565b606091505b50509050806109335760405162461bcd60e51b815260206004820152600f60248201526e151c985b9cd9995c8819985a5b1959608a1b60448201526064016104a4565b508061093e8161179f565b9150506107e5565b5050505050565b6040805160008152602081019182905260029161096a919061182e565b602060405180830381855afa158015610987573d6000803e3d6000fd5b5050506040513d601f19601f820116820180604052508101906109aa919061184a565b81565b6002546060908210156109f65760405162461bcd60e51b81526020600482015260116024820152704e6f7420656e6f7567682070726f6f667360781b60448201526064016104a4565b60015460008054604051610a1891309185908d908d908d908d90602001611863565b60405160208183030381529060405280519060200120905060005b84811015610b835760056000878784818110610a5157610a51611789565b9050602002810190610a6391906118b5565b35815260208101919091526040016000205460ff1615610abe5760405162461bcd60e51b8152602060048201526016602482015275139d5b1b1a599a595c88185b1c9958591e481d5cd95960521b60448201526064016104a4565b610aeb82878784818110610ad457610ad4611789565b9050602002810190610ae691906118b5565b61117c565b610b275760405162461bcd60e51b815260206004820152600d60248201526c24b73b30b634b210383937b7b360991b60448201526064016104a4565b600160056000888885818110610b3f57610b3f611789565b9050602002810190610b5191906118b5565b3581526020810191909152604001600020805460ff191691151591909117905580610b7b8161179f565b915050610a33565b5060018054906000610b948361179f565b91905055506000808a6001600160a01b03168a8a8a604051610bb79291906118cb565b60006040518083038185875af1925050503d8060008114610bf4576040519150601f19603f3d011682016040523d82523d6000602084013e610bf9565b606091505b509150915081610c375760405162461bcd60e51b8152602060048201526009602482015268151e0819985a5b195960ba1b60448201526064016104a4565b837f1654479f61781d185c419742a20e599a227ae1840317c8a74ceda5eb6166b8268c8c8c8c86604051610c6f9594939291906118db565b60405180910390a29a9950505050505050505050565b333014610ca45760405162461bcd60e51b81526004016104a4906116d7565b600354600110610cf65760405162461bcd60e51b815260206004820152601960248201527f43616e6e6f742072656d6f7665206c617374207369676e65720000000000000060448201526064016104a4565b60008111610d165760405162461bcd60e51b81526004016104a4906116f9565b600354610d259060019061193c565b811115610d445760405162461bcd60e51b81526004016104a490611759565b6000805b600354811015610e02578360038281548110610d6657610d66611789565b906000526020600020015403610df05760038054610d869060019061193c565b81548110610d9657610d96611789565b906000526020600020015460038281548110610db457610db4611789565b6000918252602090912001556003805480610dd157610dd161194f565b6001900381819060005260206000200160009055905560019150610e02565b80610dfa8161179f565b915050610d48565b5080610e475760405162461bcd60e51b815260206004820152601460248201527310dbdb5b5a5d1b595b9d081b9bdd08199bdd5b9960621b60448201526064016104a4565b6002829055610e54610fd8565b6040516000815283907f33129f9e36e06e860f22ce83276273f4d83d31e9fd4a0d3a4dbac9d2da4f9d0d9060200160405180910390a2505050565b600080610ebc7f30644e72e131a029b85045b68181585d2833e84879b9709143e1f593f00000018561197b565b90506000610eea7f30644e72e131a029b85045b68181585d2833e84879b9709143e1f593f00000018561197b565b604080518082018252848152602081018390529051632b0aac7f60e11b815291925073__$75f79a42d9bcbdbb69ad79ebd80f556f39$__9163561558fe91610f349160040161198f565b602060405180830381865af4158015610f51573d6000803e3d6000fd5b505050506040513d601f19601f82011682018060405250810190610f75919061184a565b925050505b92915050565b60606003805480602002602001604051908101604052809291908181526020018280548015610fce57602002820191906000526020600020905b815481526020019060010190808311610fba575b5050505050905090565b6040805160108082526102208201909252600091602082016102008036833701905050905060005b600354811015611057576003818154811061101d5761101d611789565b906000526020600020015482828151811061103a5761103a611789565b60209081029190910101528061104f8161179f565b915050611000565b506003545b601081101561109657600182828151811061107957611079611789565b60209081029190910101528061108e8161179f565b91505061105c565b5060105b60018111156111575760005b6110b16002836119c0565b81101561114457611115836110c78360026119d4565b815181106110d7576110d7611789565b6020026020010151848360026110ed91906119d4565b6110f8906001611746565b8151811061110857611108611789565b6020026020010151610e8f565b83828151811061112757611127611789565b60209081029190910101528061113c8161179f565b9150506110a6565b506111506002826119c0565b905061109a565b8160008151811061116a5761116a611789565b60200260200101516004819055505050565b60008061118a846001610e8f565b6004546040805160208101849052908101919091528435606082015290915060009060800160408051601f198184030181529082905269756c747261706c6f6e6b60b01b60208301529150600090602a0160408051601f1981840301815282825280516020918201206000845290830191829052917f00000000000000000000000000000000000000000000000000000000000000009160029161122d9161182e565b602060405180830381855afa15801561124a573d6000803e3d6000fd5b5050506040513d601f19601f8201168201806040525081019061126d919061184a565b848051906020012060405160200161129e949392919093845260208401929092526040830152606082015260800190565b6040516020818303038152906040528051906020012090507f00000000000000000000000000000000000000000000000000000000000000006001600160a01b031663a78f9e36866040013587602001358489806060019061130091906119eb565b8b608001358c60a001356040518863ffffffff1660e01b815260040161132c9796959493929190611a35565b602060405180830381865afa158015611349573d6000803e3d6000fd5b505050506040513d601f19601f8201168201806040525081019061136d9190611a8f565b9695505050505050565b6000806040838503121561138a57600080fd5b50508035926020909101359150565b6000602082840312156113ab57600080fd5b5035919050565b80356001600160a01b03811681146113c957600080fd5b919050565b634e487b7160e01b600052604160045260246000fd5b600080600080608085870312156113fa57600080fd5b8435935061140a602086016113b2565b925060408501359150606085013567ffffffffffffffff8082111561142e57600080fd5b818701915087601f83011261144257600080fd5b813581811115611454576114546113ce565b604051601f8201601f19908116603f0116810190838211818310171561147c5761147c6113ce565b816040528281528a602084870101111561149557600080fd5b82602086016020830137600060208483010152809550505050505092959194509250565b60008083601f8401126114cb57600080fd5b50813567ffffffffffffffff8111156114e357600080fd5b6020830191508360208260051b85010111156114fe57600080fd5b9250929050565b6000806000806040858703121561151b57600080fd5b843567ffffffffffffffff8082111561153357600080fd5b61153f888389016114b9565b9096509450602087013591508082111561155857600080fd5b50611565878288016114b9565b95989497509550505050565b6000806000806000806080878903121561158a57600080fd5b611593876113b2565b955060208701359450604087013567ffffffffffffffff808211156115b757600080fd5b818901915089601f8301126115cb57600080fd5b8135818111156115da57600080fd5b8a60208285010111156115ec57600080fd5b60208301965080955050606089013591508082111561160a57600080fd5b5061161789828a016114b9565b979a9699509497509295939492505050565b60005b8381101561164457818101518382015260200161162c565b50506000910152565b60008151808452611665816020860160208601611629565b601f01601f19169290920160200192915050565b60208152600061168c602083018461164d565b9392505050565b6020808252825182820181905260009190848201906040850190845b818110156116cb578351835292840192918401916001016116af565b50909695505050505050565b6020808252600890820152672737ba1029b2b63360c11b604082015260600190565b6020808252601e908201527f4d757374206265206e6f6e2d7a65726f20736967732072657175697265640000604082015260600190565b634e487b7160e01b600052601160045260246000fd5b80820180821115610f7a57610f7a611730565b6020808252601690820152750a6d2cee640e4cae2ead2e4cac840e8dede40d0d2ced60531b604082015260600190565b634e487b7160e01b600052603260045260246000fd5b6000600182016117b1576117b1611730565b5060010190565b60006bffffffffffffffffffffffff19808960601b168352876014840152866034840152808660601b166054840152508360688301528251611801816088850160208701611629565b91909101608801979650505050505050565b60006020828403121561182557600080fd5b61168c826113b2565b60008251611840818460208701611629565b9190910192915050565b60006020828403121561185c57600080fd5b5051919050565b60006bffffffffffffffffffffffff19808a60601b168352886014840152876034840152808760601b166054840152508460688301528284608884013750600091016088019081529695505050505050565b6000823560be1983360301811261184057600080fd5b8183823760009101908152919050565b6001600160a01b0386168152602081018590526080604082018190528101839052828460a0830137600060a084830101526000601f19601f850116820160a083820301606084015261193060a082018561164d565b98975050505050505050565b81810381811115610f7a57610f7a611730565b634e487b7160e01b600052603160045260246000fd5b634e487b7160e01b600052601260045260246000fd5b60008261198a5761198a611965565b500690565b60408101818360005b60028110156119b7578151835260209283019290910190600101611998565b50505092915050565b6000826119cf576119cf611965565b500490565b8082028115828204841417610f7a57610f7a611730565b6000808335601e19843603018112611a0257600080fd5b83018035915067ffffffffffffffff821115611a1d57600080fd5b6020019150600581901b36038213156114fe57600080fd5b87815286602082015285604082015260c060608201528360c0820152600060018060fb1b03851115611a6657600080fd5b8460051b808760e085013760808301949094525060a08101919091520160e00195945050505050565b600060208284031215611aa157600080fd5b8151801515811461168c57600080fdfea2646970667358221220d643e37dac0e35239acfced2148b7a1a069ccedbd057921106953bb966b67c4b64736f6c63430008140033",
  "libraries": {
    "PoseidonT3": "0x3333333C0A88F9BE4fd23ed0536F9B6c427e3B93"
  },
  "devdoc": {
    "kind": "dev",
    "methods": {
      "batchTransfer(address[],uint256[])": {
        "params": {
          "amounts": "Array of amounts to send",
          "recipients": "Array of recipient addresses"
        }
      },
      "execute(address,uint256,bytes,(uint256,uint256,uint256,bytes32[],uint256,uint256)[])": {
        "params": {
          "data": "Call data",
          "proofs": "Array of ZK proofs (must have >= signaturesRequired)",
          "to": "Target address",
          "value": "ETH value"
        }
      }
    },
    "version": 1
  },
  "userdoc": {
    "kind": "user",
    "methods": {
      "batchTransfer(address[],uint256[])": {
        "notice": "Execute multiple transfers in one transaction"
      },
      "execute(address,uint256,bytes,(uint256,uint256,uint256,bytes32[],uint256,uint256)[])": {
        "notice": "Execute transaction with ZK proofs"
      }
    },
    "version": 1
  },
  "storageLayout": {
    "storage": [
      {
        "astId": 89,
        "contract": "contracts/MetaMultiSigWallet.sol:MetaMultiSigWallet",
        "label": "chainId",
        "offset": 0,
        "slot": "0",
        "type": "t_uint256"
      },
      {
        "astId": 91,
        "contract": "contracts/MetaMultiSigWallet.sol:MetaMultiSigWallet",
        "label": "nonce",
        "offset": 0,
        "slot": "1",
        "type": "t_uint256"
      },
      {
        "astId": 93,
        "contract": "contracts/MetaMultiSigWallet.sol:MetaMultiSigWallet",
        "label": "signaturesRequired",
        "offset": 0,
        "slot": "2",
        "type": "t_uint256"
      },
      {
        "astId": 96,
        "contract": "contracts/MetaMultiSigWallet.sol:MetaMultiSigWallet",
        "label": "commitments",
        "offset": 0,
        "slot": "3",
        "type": "t_array(t_uint256)dyn_storage"
      },
      {
        "astId": 98,
        "contract": "contracts/MetaMultiSigWallet.sol:MetaMultiSigWallet",
        "label": "merkleRoot",
        "offset": 0,
        "slot": "4",
        "type": "t_uint256"
      },
      {
        "astId": 102,
        "contract": "contracts/MetaMultiSigWallet.sol:MetaMultiSigWallet",
        "label": "usedNullifiers",
        "offset": 0,
        "slot": "5",
        "type": "t_mapping(t_uint256,t_bool)"
      }
    ],
    "types": {
      "t_array(t_uint256)dyn_storage": {
        "base": "t_uint256",
        "encoding": "dynamic_array",
        "label": "uint256[]",
        "numberOfBytes": "32"
      },
      "t_bool": {
        "encoding": "inplace",
        "label": "bool",
        "numberOfBytes": "1"
      },
      "t_mapping(t_uint256,t_bool)": {
        "encoding": "mapping",
        "key": "t_uint256",
        "label": "mapping(uint256 => bool)",
        "numberOfBytes": "32",
        "value": "t_bool"
      },
      "t_uint256": {
        "encoding": "inplace",
        "label": "uint256",
        "numberOfBytes": "32"
      }
    }
  }
}