{
  "address": "0xa9c95A08850d294017902160d3047149A03984fC",
  "abi": [
    {
      "inputs": [
        {
          "internalType": "address",
          "name": "_zkvContract",
          "type": "address"
        },
        {
          "internalType": "bytes32",
          "name": "_vkHash",
          "type": "bytes32"
        },
        {
          "internalType": "uint256",
          "name": "_chainId",
          "type": "uint256"
        },
        {
          "internalType": "uint256[]",
          "name": "_initialCommitments",
          "type": "uint256[]"
        },
        {
          "internalType": "uint256",
          "name": "_signaturesRequired",
          "type": "uint256"
        }
      ],
      "stateMutability": "nonpayable",
      "type": "constructor"
    },
    {
      "anonymous": false,
      "inputs": [
        {
          "indexed": true,
          "internalType": "address",
          "name": "sender",
          "type": "address"
        },
        {
          "indexed": false,
          "internalType": "uint256",
          "name": "amount",
          "type": "uint256"
        },
        {
          "indexed": false,
          "internalType": "uint256",
          "name": "balance",
          "type": "uint256"
        }
      ],
      "name": "Deposit",
      "type": "event"
    },
    {
      "anonymous": false,
      "inputs": [
        {
          "indexed": true,
          "internalType": "uint256",
          "name": "commitment",
          "type": "uint256"
        },
        {
          "indexed": false,
          "internalType": "bool",
          "name": "isAdded",
          "type": "bool"
        }
      ],
      "name": "Owner",
      "type": "event"
    },
    {
      "anonymous": false,
      "inputs": [
        {
          "indexed": true,
          "internalType": "uint256",
          "name": "nonce",
          "type": "uint256"
        },
        {
          "indexed": false,
          "internalType": "address",
          "name": "to",
          "type": "address"
        },
        {
          "indexed": false,
          "internalType": "uint256",
          "name": "value",
          "type": "uint256"
        },
        {
          "indexed": false,
          "internalType": "bytes",
          "name": "data",
          "type": "bytes"
        },
        {
          "indexed": false,
          "internalType": "bytes",
          "name": "result",
          "type": "bytes"
        }
      ],
      "name": "TransactionExecuted",
      "type": "event"
    },
    {
      "inputs": [],
      "name": "BN254_PRIME",
      "outputs": [
        {
          "internalType": "uint256",
          "name": "",
          "type": "uint256"
        }
      ],
      "stateMutability": "view",
      "type": "function"
    },
    {
      "inputs": [],
      "name": "MAX_SIGNERS",
      "outputs": [
        {
          "internalType": "uint256",
          "name": "",
          "type": "uint256"
        }
      ],
      "stateMutability": "view",
      "type": "function"
    },
    {
      "inputs": [],
      "name": "PROVING_SYSTEM_ID",
      "outputs": [
        {
          "internalType": "bytes32",
          "name": "",
          "type": "bytes32"
        }
      ],
      "stateMutability": "view",
      "type": "function"
    },
    {
      "inputs": [],
      "name": "VERSION_HASH",
      "outputs": [
        {
          "internalType": "bytes32",
          "name": "",
          "type": "bytes32"
        }
      ],
      "stateMutability": "view",
      "type": "function"
    },
    {
      "inputs": [
        {
          "internalType": "uint256",
          "name": "newCommitment",
          "type": "uint256"
        },
        {
          "internalType": "uint256",
          "name": "newSigRequired",
          "type": "uint256"
        }
      ],
      "name": "addSigner",
      "outputs": [],
      "stateMutability": "nonpayable",
      "type": "function"
    },
    {
      "inputs": [
        {
          "internalType": "address[]",
          "name": "recipients",
          "type": "address[]"
        },
        {
          "internalType": "uint256[]",
          "name": "amounts",
          "type": "uint256[]"
        }
      ],
      "name": "batchTransfer",
      "outputs": [],
      "stateMutability": "nonpayable",
      "type": "function"
    },
    {
      "inputs": [
        {
          "internalType": "address[]",
          "name": "recipients",
          "type": "address[]"
        },
        {
          "internalType": "uint256[]",
          "name": "amounts",
          "type": "uint256[]"
        },
        {
          "internalType": "address[]",
          "name": "tokenAddresses",
          "type": "address[]"
        }
      ],
      "name": "batchTransferMulti",
      "outputs": [],
      "stateMutability": "nonpayable",
      "type": "function"
    },
    {
      "inputs": [],
      "name": "chainId",
      "outputs": [
        {
          "internalType": "uint256",
          "name": "",
          "type": "uint256"
        }
      ],
      "stateMutability": "view",
      "type": "function"
    },
    {
      "inputs": [
        {
          "internalType": "uint256",
          "name": "",
          "type": "uint256"
        }
      ],
      "name": "commitments",
      "outputs": [
        {
          "internalType": "uint256",
          "name": "",
          "type": "uint256"
        }
      ],
      "stateMutability": "view",
      "type": "function"
    },
    {
      "inputs": [
        {
          "internalType": "uint256",
          "name": "_nonce",
          "type": "uint256"
        },
        {
          "internalType": "address",
          "name": "to",
          "type": "address"
        },
        {
          "internalType": "uint256",
          "name": "value",
          "type": "uint256"
        },
        {
          "internalType": "bytes",
          "name": "data",
          "type": "bytes"
        },
        {
          "components": [
            {
              "internalType": "uint256",
              "name": "commitment",
              "type": "uint256"
            },
            {
              "internalType": "uint256",
              "name": "nullifier",
              "type": "uint256"
            },
            {
              "internalType": "uint256",
              "name": "aggregationId",
              "type": "uint256"
            },
            {
              "internalType": "uint256",
              "name": "domainId",
              "type": "uint256"
            },
            {
              "internalType": "bytes32[]",
              "name": "zkMerklePath",
              "type": "bytes32[]"
            },
            {
              "internalType": "uint256",
              "name": "leafCount",
              "type": "uint256"
            },
            {
              "internalType": "uint256",
              "name": "index",
              "type": "uint256"
            }
          ],
          "internalType": "struct MetaMultiSigWallet.ZkProof[]",
          "name": "proofs",
          "type": "tuple[]"
        }
      ],
      "name": "execute",
      "outputs": [
        {
          "internalType": "bytes",
          "name": "",
          "type": "bytes"
        }
      ],
      "stateMutability": "nonpayable",
      "type": "function"
    },
    {
      "inputs": [],
      "name": "getCommitments",
      "outputs": [
        {
          "internalType": "uint256[]",
          "name": "",
          "type": "uint256[]"
        }
      ],
      "stateMutability": "view",
      "type": "function"
    },
    {
      "inputs": [],
      "name": "getSignersCount",
      "outputs": [
        {
          "internalType": "uint256",
          "name": "",
          "type": "uint256"
        }
      ],
      "stateMutability": "view",
      "type": "function"
    },
    {
      "inputs": [
        {
          "internalType": "uint256",
          "name": "_nonce",
          "type": "uint256"
        },
        {
          "internalType": "address",
          "name": "to",
          "type": "address"
        },
        {
          "internalType": "uint256",
          "name": "value",
          "type": "uint256"
        },
        {
          "internalType": "bytes",
          "name": "data",
          "type": "bytes"
        }
      ],
      "name": "getTransactionHash",
      "outputs": [
        {
          "internalType": "bytes32",
          "name": "",
          "type": "bytes32"
        }
      ],
      "stateMutability": "view",
      "type": "function"
    },
    {
      "inputs": [
        {
          "internalType": "uint256",
          "name": "a",
          "type": "uint256"
        },
        {
          "internalType": "uint256",
          "name": "b",
          "type": "uint256"
        }
      ],
      "name": "poseidonHash2",
      "outputs": [
        {
          "internalType": "uint256",
          "name": "",
          "type": "uint256"
        }
      ],
      "stateMutability": "pure",
      "type": "function"
    },
    {
      "inputs": [
        {
          "internalType": "uint256",
          "name": "commitment",
          "type": "uint256"
        },
        {
          "internalType": "uint256",
          "name": "newSigRequired",
          "type": "uint256"
        }
      ],
      "name": "removeSigner",
      "outputs": [],
      "stateMutability": "nonpayable",
      "type": "function"
    },
    {
      "inputs": [],
      "name": "signaturesRequired",
      "outputs": [
        {
          "internalType": "uint256",
          "name": "",
          "type": "uint256"
        }
      ],
      "stateMutability": "view",
      "type": "function"
    },
    {
      "inputs": [
        {
          "internalType": "uint256",
          "name": "newSigRequired",
          "type": "uint256"
        }
      ],
      "name": "updateSignaturesRequired",
      "outputs": [],
      "stateMutability": "nonpayable",
      "type": "function"
    },
    {
      "inputs": [
        {
          "internalType": "uint256",
          "name": "",
          "type": "uint256"
        }
      ],
      "name": "usedNonces",
      "outputs": [
        {
          "internalType": "bool",
          "name": "",
          "type": "bool"
        }
      ],
      "stateMutability": "view",
      "type": "function"
    },
    {
      "inputs": [
        {
          "internalType": "uint256",
          "name": "",
          "type": "uint256"
        }
      ],
      "name": "usedNullifiers",
      "outputs": [
        {
          "internalType": "bool",
          "name": "",
          "type": "bool"
        }
      ],
      "stateMutability": "view",
      "type": "function"
    },
    {
      "inputs": [],
      "name": "vkHash",
      "outputs": [
        {
          "internalType": "bytes32",
          "name": "",
          "type": "bytes32"
        }
      ],
      "stateMutability": "view",
      "type": "function"
    },
    {
      "inputs": [],
      "name": "zkvContract",
      "outputs": [
        {
          "internalType": "address",
          "name": "",
          "type": "address"
        }
      ],
      "stateMutability": "view",
      "type": "function"
    },
    {
      "stateMutability": "payable",
      "type": "receive"
    }
  ],
  "transactionHash": "0xbc417143988b8634299141f674831aed6bc8e027eac5312f85360fc59475e087",
  "args": [
    "0xCC02D0A54F3184dF4c88811E5b9FAb7ff8131e4a",
    "0x104717314e0c94ef15d6992292b713aa2ffc48c74e0c41f7344a611caa606dde",
    2651420,
    [
      "7777412979265397193925220040726445950599854595059203997869095364409346949110",
      "3893960714193187677642727159938790123674441621624357680276520538080166792249"
    ],
    2
  ],
  "numDeployments": 1,
  "solcInputHash": "2d10d961f9b9e763c3e53f7553d0c6f8",
  "bytecode": "0x60c06040523480156200001157600080fd5b5060405162002301380380620023018339810160408190526200003491620002db565b6001600160a01b038516620000905760405162461bcd60e51b815260206004820152601360248201527f496e76616c6964207a6b7620616464726573730000000000000000000000000060448201526064015b60405180910390fd5b60008111620000e25760405162461bcd60e51b815260206004820152601e60248201527f4d757374206265206e6f6e2d7a65726f20736967732072657175697265640000604482015260640162000087565b6000825111620001355760405162461bcd60e51b815260206004820152601660248201527f4e656564206174206c656173742031207369676e657200000000000000000000604482015260640162000087565b8151811115620001885760405162461bcd60e51b815260206004820152601660248201527f5369677320726571756972656420746f6f206869676800000000000000000000604482015260640162000087565b6001600160a01b03851660805260a0849052600083815560018290555b8251811015620002b957828181518110620001c457620001c4620003e6565b6020026020010151600003620002125760405162461bcd60e51b8152602060048201526012602482015271125b9d985b1a590818dbdb5b5a5d1b595b9d60721b604482015260640162000087565b6002838281518110620002295762000229620003e6565b6020908102919091018101518254600181018455600093845291909220015582518390829081106200025f576200025f620003e6565b60200260200101517f33129f9e36e06e860f22ce83276273f4d83d31e9fd4a0d3a4dbac9d2da4f9d0d60016040516200029c911515815260200190565b60405180910390a280620002b081620003fc565b915050620001a5565b50505050505062000424565b634e487b7160e01b600052604160045260246000fd5b600080600080600060a08688031215620002f457600080fd5b85516001600160a01b03811681146200030c57600080fd5b602087810151604089015160608a01519398509096509450906001600160401b03808211156200033b57600080fd5b818901915089601f8301126200035057600080fd5b815181811115620003655762000365620002c5565b8060051b604051601f19603f830116810181811085821117156200038d576200038d620002c5565b60405291825284820192508381018501918c831115620003ac57600080fd5b938501935b82851015620003cc57845184529385019392850192620003b1565b809750505050505050608086015190509295509295909350565b634e487b7160e01b600052603260045260246000fd5b6000600182016200041d57634e487b7160e01b600052601160045260246000fd5b5060010190565b60805160a051611ea9620004586000396000818161022c01526115280152600081816102f501526115e00152611ea96000f3fe60806040526004361061012e5760003560e01c806388d695b2116100ab578063aad240611161006f578063aad24061146103d1578063ce757d2914610401578063d84989f214610417578063e4cf5a2c14610437578063eaaba5591461046b578063f1ea66d41461048b57600080fd5b806388d695b21461032f5780639a8a05921461034f5780639e4e731814610365578063a0c1deb41461037a578063a8898a201461038f57600080fd5b8063545a4a3c116100f2578063545a4a3c1461024e57806359ecd6571461026e57806364451212146102835780636717e41c146102a35780637ee68373146102e357600080fd5b806316ad6a9b146101745780631b108c07146101965780633034a742146101cc57806349ce8997146101ec5780634fe840f51461021a57600080fd5b3661016f576040805134815247602082015233917f90890809c654f11d6e72a28fa60149770a0d11ec6c92319d6ceb2bb0a4ea1a15910160405180910390a2005b600080fd5b34801561018057600080fd5b5061019461018f36600461169f565b6104ad565b005b3480156101a257600080fd5b506101b66101b1366004611729565b6106a1565b6040516101c3919061183b565b60405180910390f35b3480156101d857600080fd5b506101946101e7366004611855565b610a44565b3480156101f857600080fd5b5061020c610207366004611855565b610aaa565b6040519081526020016101c3565b34801561022657600080fd5b5061020c7f000000000000000000000000000000000000000000000000000000000000000081565b34801561025a57600080fd5b5061020c610269366004611884565b610acb565b34801561027a57600080fd5b5061020c601081565b34801561028f57600080fd5b5061019461029e366004611959565b610b08565b3480156102af57600080fd5b506102d36102be366004611855565b60036020526000908152604090205460ff1681565b60405190151581526020016101c3565b3480156102ef57600080fd5b506103177f000000000000000000000000000000000000000000000000000000000000000081565b6040516001600160a01b0390911681526020016101c3565b34801561033b57600080fd5b5061019461034a3660046119f3565b610ec5565b34801561035b57600080fd5b5061020c60005481565b34801561037157600080fd5b5061020c6110a9565b34801561038657600080fd5b5060025461020c565b34801561039b57600080fd5b5061020c60405169756c747261706c6f6e6b60b01b6020820152602a016040516020818303038152906040528051906020012081565b3480156103dd57600080fd5b506102d36103ec366004611855565b60046020526000908152604090205460ff1681565b34801561040d57600080fd5b5061020c60015481565b34801561042357600080fd5b5061019461043236600461169f565b611109565b34801561044357600080fd5b5061020c7f30644e72e131a029b85045b68181585d2833e84879b9709143e1f593f000000181565b34801561047757600080fd5b5061020c61048636600461169f565b61130b565b34801561049757600080fd5b506104a06113fc565b6040516101c39190611a5f565b3330146104d55760405162461bcd60e51b81526004016104cc90611aa3565b60405180910390fd5b8160000361051a5760405162461bcd60e51b8152602060048201526012602482015271125b9d985b1a590818dbdb5b5a5d1b595b9d60721b60448201526064016104cc565b6002546010116105625760405162461bcd60e51b815260206004820152601360248201527213585e081cda59db995c9cc81c995858da1959606a1b60448201526064016104cc565b600081116105825760405162461bcd60e51b81526004016104cc90611ac5565b600254610590906001611b12565b8111156105af5760405162461bcd60e51b81526004016104cc90611b25565b60005b60025481101561062e5782600282815481106105d0576105d0611b55565b90600052602060002001540361061c5760405162461bcd60e51b8152602060048201526011602482015270436f6d6d69746d656e742065786973747360781b60448201526064016104cc565b8061062681611b6b565b9150506105b2565b5060028054600180820183556000929092527f405787fa12a823e0f2b7631cc41b3ba8828b3321ca811111fa75cd3aa3bb5ace0183905581815560405190815282907f33129f9e36e06e860f22ce83276273f4d83d31e9fd4a0d3a4dbac9d2da4f9d0d9060200160405180910390a25050565b60008781526003602052604090205460609060ff16156106f85760405162461bcd60e51b8152602060048201526012602482015271139bdb98d948185b1c9958591e481d5cd95960721b60448201526064016104cc565b60015482101561073e5760405162461bcd60e51b81526020600482015260116024820152704e6f7420656e6f7567682070726f6f667360781b60448201526064016104cc565b6000805460405161075d9130918c908c908c908c908c90602001611b84565b60405160208183030381529060405280519060200120905060005b8381101561093e576004600086868481811061079657610796611b55565b90506020028101906107a89190611bd6565b60209081013582528101919091526040016000205460ff16156108065760405162461bcd60e51b8152602060048201526016602482015275139d5b1b1a599a595c88185b1c9958591e481d5cd95960521b60448201526064016104cc565b61083385858381811061081b5761081b611b55565b905060200281019061082d9190611bd6565b35611454565b6108765760405162461bcd60e51b81526020600482015260146024820152732737ba10309031bab93932b73a1039b4b3b732b960611b60448201526064016104cc565b6108a38286868481811061088c5761088c611b55565b905060200281019061089e9190611bd6565b6114aa565b6108df5760405162461bcd60e51b815260206004820152600d60248201526c24b73b30b634b210383937b7b360991b60448201526064016104cc565b6001600460008787858181106108f7576108f7611b55565b90506020028101906109099190611bd6565b6020908101358252810191909152604001600020805460ff19169115159190911790558061093681611b6b565b915050610778565b50600089815260036020526040808220805460ff191660011790555181906001600160a01b038b16908a90610976908b908b90611bf6565b60006040518083038185875af1925050503d80600081146109b3576040519150601f19603f3d011682016040523d82523d6000602084013e6109b8565b606091505b5091509150816109f65760405162461bcd60e51b8152602060048201526009602482015268151e0819985a5b195960ba1b60448201526064016104cc565b8a7f1654479f61781d185c419742a20e599a227ae1840317c8a74ceda5eb6166b8268b8b8b8b86604051610a2e959493929190611c06565b60405180910390a29a9950505050505050505050565b333014610a635760405162461bcd60e51b81526004016104cc90611aa3565b60008111610a835760405162461bcd60e51b81526004016104cc90611ac5565b600254811115610aa55760405162461bcd60e51b81526004016104cc90611b25565b600155565b60028181548110610aba57600080fd5b600091825260209091200154905081565b60008054604051610ae89130918890889088908890602001611c67565b604051602081830303815290604052805190602001209050949350505050565b333014610b275760405162461bcd60e51b81526004016104cc90611aa3565b848314610b465760405162461bcd60e51b81526004016104cc90611cc2565b848114610b655760405162461bcd60e51b81526004016104cc90611cc2565b84610ba05760405162461bcd60e51b815260206004820152600b60248201526a08adae0e8f240c4c2e8c6d60ab1b60448201526064016104cc565b60005b85811015610ebc576000878783818110610bbf57610bbf611b55565b9050602002016020810190610bd49190611ceb565b6001600160a01b031603610c1e5760405162461bcd60e51b8152602060048201526011602482015270125b9d985b1a59081c9958da5c1a595b9d607a1b60448201526064016104cc565b6000838383818110610c3257610c32611b55565b9050602002016020810190610c479190611ceb565b6001600160a01b031603610d32576000878783818110610c6957610c69611b55565b9050602002016020810190610c7e9190611ceb565b6001600160a01b0316868684818110610c9957610c99611b55565b9050602002013560405160006040518083038185875af1925050503d8060008114610ce0576040519150601f19603f3d011682016040523d82523d6000602084013e610ce5565b606091505b5050905080610d2c5760405162461bcd60e51b8152602060048201526013602482015272115512081d1c985b9cd9995c8819985a5b1959606a1b60448201526064016104cc565b50610eaa565b600080848484818110610d4757610d47611b55565b9050602002016020810190610d5c9190611ceb565b6001600160a01b0316898985818110610d7757610d77611b55565b9050602002016020810190610d8c9190611ceb565b888886818110610d9e57610d9e611b55565b6040516001600160a01b039094166024850152602002919091013560448301525060640160408051601f198184030181529181526020820180516001600160e01b031663a9059cbb60e01b17905251610df79190611d06565b6000604051808303816000865af19150503d8060008114610e34576040519150601f19603f3d011682016040523d82523d6000602084013e610e39565b606091505b5091509150818015610e63575080511580610e63575080806020019051810190610e639190611d18565b610ea75760405162461bcd60e51b8152602060048201526015602482015274115490cc8c081d1c985b9cd9995c8819985a5b1959605a1b60448201526064016104cc565b50505b80610eb481611b6b565b915050610ba3565b50505050505050565b333014610ee45760405162461bcd60e51b81526004016104cc90611aa3565b828114610f035760405162461bcd60e51b81526004016104cc90611cc2565b82610f3e5760405162461bcd60e51b815260206004820152600b60248201526a08adae0e8f240c4c2e8c6d60ab1b60448201526064016104cc565b60005b838110156110a2576000858583818110610f5d57610f5d611b55565b9050602002016020810190610f729190611ceb565b6001600160a01b031603610fbc5760405162461bcd60e51b8152602060048201526011602482015270125b9d985b1a59081c9958da5c1a595b9d607a1b60448201526064016104cc565b6000858583818110610fd057610fd0611b55565b9050602002016020810190610fe59190611ceb565b6001600160a01b031684848481811061100057611000611b55565b9050602002013560405160006040518083038185875af1925050503d8060008114611047576040519150601f19603f3d011682016040523d82523d6000602084013e61104c565b606091505b505090508061108f5760405162461bcd60e51b815260206004820152600f60248201526e151c985b9cd9995c8819985a5b1959608a1b60448201526064016104cc565b508061109a81611b6b565b915050610f41565b5050505050565b604080516000815260208101918290526002916110c69190611d06565b602060405180830381855afa1580156110e3573d6000803e3d6000fd5b5050506040513d601f19601f820116820180604052508101906111069190611d3a565b81565b3330146111285760405162461bcd60e51b81526004016104cc90611aa3565b60025460011061117a5760405162461bcd60e51b815260206004820152601960248201527f43616e6e6f742072656d6f7665206c617374207369676e65720000000000000060448201526064016104cc565b6000811161119a5760405162461bcd60e51b81526004016104cc90611ac5565b6002546111a990600190611d53565b8111156111c85760405162461bcd60e51b81526004016104cc90611b25565b6000805b6002548110156112865783600282815481106111ea576111ea611b55565b906000526020600020015403611274576002805461120a90600190611d53565b8154811061121a5761121a611b55565b90600052602060002001546002828154811061123857611238611b55565b600091825260209091200155600280548061125557611255611d66565b6001900381819060005260206000200160009055905560019150611286565b8061127e81611b6b565b9150506111cc565b50806112cb5760405162461bcd60e51b815260206004820152601460248201527310dbdb5b5a5d1b595b9d081b9bdd08199bdd5b9960621b60448201526064016104cc565b60018290556040516000815283907f33129f9e36e06e860f22ce83276273f4d83d31e9fd4a0d3a4dbac9d2da4f9d0d9060200160405180910390a2505050565b6000806113387f30644e72e131a029b85045b68181585d2833e84879b9709143e1f593f000000185611d7c565b905060006113667f30644e72e131a029b85045b68181585d2833e84879b9709143e1f593f000000185611d7c565b604080518082018252848152602081018390529051632b0aac7f60e11b8152919250733333333C0A88F9BE4fd23ed0536F9B6c427e3B939163561558fe916113b091600401611d9e565b602060405180830381865af41580156113cd573d6000803e3d6000fd5b505050506040513d601f19601f820116820180604052508101906113f19190611d3a565b925050505b92915050565b6060600280548060200260200160405190810160405280929190818152602001828054801561144a57602002820191906000526020600020905b815481526020019060010190808311611436575b5050505050905090565b6000805b6002548110156114a157826002828154811061147657611476611b55565b90600052602060002001540361148f5750600192915050565b8061149981611b6b565b915050611458565b50600092915050565b6000806114b884600161130b565b604080516020808201849052863582840152868101356060808401919091528351808403909101815260808301845269756c747261706c6f6e6b60b01b60a08401528351608a81850301815260aa840180865281519190930120600080845260ca909401948590529495509391927f0000000000000000000000000000000000000000000000000000000000000000916002916115559190611d06565b602060405180830381855afa158015611572573d6000803e3d6000fd5b5050506040513d601f19601f820116820180604052508101906115959190611d3a565b84805190602001206040516020016115c6949392919093845260208401929092526040830152606082015260800190565b6040516020818303038152906040528051906020012090507f00000000000000000000000000000000000000000000000000000000000000006001600160a01b031663a78f9e3686606001358760400135848980608001906116289190611dcf565b8b60a001358c60c001356040518863ffffffff1660e01b81526004016116549796959493929190611e19565b602060405180830381865afa158015611671573d6000803e3d6000fd5b505050506040513d601f19601f820116820180604052508101906116959190611d18565b9695505050505050565b600080604083850312156116b257600080fd5b50508035926020909101359150565b80356001600160a01b03811681146116d857600080fd5b919050565b60008083601f8401126116ef57600080fd5b50813567ffffffffffffffff81111561170757600080fd5b6020830191508360208260051b850101111561172257600080fd5b9250929050565b600080600080600080600060a0888a03121561174457600080fd5b87359650611754602089016116c1565b955060408801359450606088013567ffffffffffffffff8082111561177857600080fd5b818a0191508a601f83011261178c57600080fd5b81358181111561179b57600080fd5b8b60208285010111156117ad57600080fd5b6020830196508095505060808a01359150808211156117cb57600080fd5b506117d88a828b016116dd565b989b979a50959850939692959293505050565b60005b838110156118065781810151838201526020016117ee565b50506000910152565b600081518084526118278160208601602086016117eb565b601f01601f19169290920160200192915050565b60208152600061184e602083018461180f565b9392505050565b60006020828403121561186757600080fd5b5035919050565b634e487b7160e01b600052604160045260246000fd5b6000806000806080858703121561189a57600080fd5b843593506118aa602086016116c1565b925060408501359150606085013567ffffffffffffffff808211156118ce57600080fd5b818701915087601f8301126118e257600080fd5b8135818111156118f4576118f461186e565b604051601f8201601f19908116603f0116810190838211818310171561191c5761191c61186e565b816040528281528a602084870101111561193557600080fd5b82602086016020830137600060208483010152809550505050505092959194509250565b6000806000806000806060878903121561197257600080fd5b863567ffffffffffffffff8082111561198a57600080fd5b6119968a838b016116dd565b909850965060208901359150808211156119af57600080fd5b6119bb8a838b016116dd565b909650945060408901359150808211156119d457600080fd5b506119e189828a016116dd565b979a9699509497509295939492505050565b60008060008060408587031215611a0957600080fd5b843567ffffffffffffffff80821115611a2157600080fd5b611a2d888389016116dd565b90965094506020870135915080821115611a4657600080fd5b50611a53878288016116dd565b95989497509550505050565b6020808252825182820181905260009190848201906040850190845b81811015611a9757835183529284019291840191600101611a7b565b50909695505050505050565b6020808252600890820152672737ba1029b2b63360c11b604082015260600190565b6020808252601e908201527f4d757374206265206e6f6e2d7a65726f20736967732072657175697265640000604082015260600190565b634e487b7160e01b600052601160045260246000fd5b808201808211156113f6576113f6611afc565b6020808252601690820152750a6d2cee640e4cae2ead2e4cac840e8dede40d0d2ced60531b604082015260600190565b634e487b7160e01b600052603260045260246000fd5b600060018201611b7d57611b7d611afc565b5060010190565b60006bffffffffffffffffffffffff19808a60601b168352886014840152876034840152808760601b166054840152508460688301528284608884013750600091016088019081529695505050505050565b6000823560de19833603018112611bec57600080fd5b9190910192915050565b8183823760009101908152919050565b6001600160a01b0386168152602081018590526080604082018190528101839052828460a0830137600060a084830101526000601f19601f850116820160a0838203016060840152611c5b60a082018561180f565b98975050505050505050565b60006bffffffffffffffffffffffff19808960601b168352876014840152866034840152808660601b166054840152508360688301528251611cb08160888501602087016117eb565b91909101608801979650505050505050565b6020808252600f908201526e098cadccee8d040dad2e6dac2e8c6d608b1b604082015260600190565b600060208284031215611cfd57600080fd5b61184e826116c1565b60008251611bec8184602087016117eb565b600060208284031215611d2a57600080fd5b8151801515811461184e57600080fd5b600060208284031215611d4c57600080fd5b5051919050565b818103818111156113f6576113f6611afc565b634e487b7160e01b600052603160045260246000fd5b600082611d9957634e487b7160e01b600052601260045260246000fd5b500690565b60408101818360005b6002811015611dc6578151835260209283019290910190600101611da7565b50505092915050565b6000808335601e19843603018112611de657600080fd5b83018035915067ffffffffffffffff821115611e0157600080fd5b6020019150600581901b360382131561172257600080fd5b87815286602082015285604082015260c060608201528360c0820152600060018060fb1b03851115611e4a57600080fd5b8460051b808760e085013760808301949094525060a08101919091520160e0019594505050505056fea2646970667358221220b0cca86be30ea1a686685624327a9072304c2fc4f8164a297391d742030646ee64736f6c63430008140033",
  "deployedBytecode": "0x60806040526004361061012e5760003560e01c806388d695b2116100ab578063aad240611161006f578063aad24061146103d1578063ce757d2914610401578063d84989f214610417578063e4cf5a2c14610437578063eaaba5591461046b578063f1ea66d41461048b57600080fd5b806388d695b21461032f5780639a8a05921461034f5780639e4e731814610365578063a0c1deb41461037a578063a8898a201461038f57600080fd5b8063545a4a3c116100f2578063545a4a3c1461024e57806359ecd6571461026e57806364451212146102835780636717e41c146102a35780637ee68373146102e357600080fd5b806316ad6a9b146101745780631b108c07146101965780633034a742146101cc57806349ce8997146101ec5780634fe840f51461021a57600080fd5b3661016f576040805134815247602082015233917f90890809c654f11d6e72a28fa60149770a0d11ec6c92319d6ceb2bb0a4ea1a15910160405180910390a2005b600080fd5b34801561018057600080fd5b5061019461018f36600461169f565b6104ad565b005b3480156101a257600080fd5b506101b66101b1366004611729565b6106a1565b6040516101c3919061183b565b60405180910390f35b3480156101d857600080fd5b506101946101e7366004611855565b610a44565b3480156101f857600080fd5b5061020c610207366004611855565b610aaa565b6040519081526020016101c3565b34801561022657600080fd5b5061020c7f000000000000000000000000000000000000000000000000000000000000000081565b34801561025a57600080fd5b5061020c610269366004611884565b610acb565b34801561027a57600080fd5b5061020c601081565b34801561028f57600080fd5b5061019461029e366004611959565b610b08565b3480156102af57600080fd5b506102d36102be366004611855565b60036020526000908152604090205460ff1681565b60405190151581526020016101c3565b3480156102ef57600080fd5b506103177f000000000000000000000000000000000000000000000000000000000000000081565b6040516001600160a01b0390911681526020016101c3565b34801561033b57600080fd5b5061019461034a3660046119f3565b610ec5565b34801561035b57600080fd5b5061020c60005481565b34801561037157600080fd5b5061020c6110a9565b34801561038657600080fd5b5060025461020c565b34801561039b57600080fd5b5061020c60405169756c747261706c6f6e6b60b01b6020820152602a016040516020818303038152906040528051906020012081565b3480156103dd57600080fd5b506102d36103ec366004611855565b60046020526000908152604090205460ff1681565b34801561040d57600080fd5b5061020c60015481565b34801561042357600080fd5b5061019461043236600461169f565b611109565b34801561044357600080fd5b5061020c7f30644e72e131a029b85045b68181585d2833e84879b9709143e1f593f000000181565b34801561047757600080fd5b5061020c61048636600461169f565b61130b565b34801561049757600080fd5b506104a06113fc565b6040516101c39190611a5f565b3330146104d55760405162461bcd60e51b81526004016104cc90611aa3565b60405180910390fd5b8160000361051a5760405162461bcd60e51b8152602060048201526012602482015271125b9d985b1a590818dbdb5b5a5d1b595b9d60721b60448201526064016104cc565b6002546010116105625760405162461bcd60e51b815260206004820152601360248201527213585e081cda59db995c9cc81c995858da1959606a1b60448201526064016104cc565b600081116105825760405162461bcd60e51b81526004016104cc90611ac5565b600254610590906001611b12565b8111156105af5760405162461bcd60e51b81526004016104cc90611b25565b60005b60025481101561062e5782600282815481106105d0576105d0611b55565b90600052602060002001540361061c5760405162461bcd60e51b8152602060048201526011602482015270436f6d6d69746d656e742065786973747360781b60448201526064016104cc565b8061062681611b6b565b9150506105b2565b5060028054600180820183556000929092527f405787fa12a823e0f2b7631cc41b3ba8828b3321ca811111fa75cd3aa3bb5ace0183905581815560405190815282907f33129f9e36e06e860f22ce83276273f4d83d31e9fd4a0d3a4dbac9d2da4f9d0d9060200160405180910390a25050565b60008781526003602052604090205460609060ff16156106f85760405162461bcd60e51b8152602060048201526012602482015271139bdb98d948185b1c9958591e481d5cd95960721b60448201526064016104cc565b60015482101561073e5760405162461bcd60e51b81526020600482015260116024820152704e6f7420656e6f7567682070726f6f667360781b60448201526064016104cc565b6000805460405161075d9130918c908c908c908c908c90602001611b84565b60405160208183030381529060405280519060200120905060005b8381101561093e576004600086868481811061079657610796611b55565b90506020028101906107a89190611bd6565b60209081013582528101919091526040016000205460ff16156108065760405162461bcd60e51b8152602060048201526016602482015275139d5b1b1a599a595c88185b1c9958591e481d5cd95960521b60448201526064016104cc565b61083385858381811061081b5761081b611b55565b905060200281019061082d9190611bd6565b35611454565b6108765760405162461bcd60e51b81526020600482015260146024820152732737ba10309031bab93932b73a1039b4b3b732b960611b60448201526064016104cc565b6108a38286868481811061088c5761088c611b55565b905060200281019061089e9190611bd6565b6114aa565b6108df5760405162461bcd60e51b815260206004820152600d60248201526c24b73b30b634b210383937b7b360991b60448201526064016104cc565b6001600460008787858181106108f7576108f7611b55565b90506020028101906109099190611bd6565b6020908101358252810191909152604001600020805460ff19169115159190911790558061093681611b6b565b915050610778565b50600089815260036020526040808220805460ff191660011790555181906001600160a01b038b16908a90610976908b908b90611bf6565b60006040518083038185875af1925050503d80600081146109b3576040519150601f19603f3d011682016040523d82523d6000602084013e6109b8565b606091505b5091509150816109f65760405162461bcd60e51b8152602060048201526009602482015268151e0819985a5b195960ba1b60448201526064016104cc565b8a7f1654479f61781d185c419742a20e599a227ae1840317c8a74ceda5eb6166b8268b8b8b8b86604051610a2e959493929190611c06565b60405180910390a29a9950505050505050505050565b333014610a635760405162461bcd60e51b81526004016104cc90611aa3565b60008111610a835760405162461bcd60e51b81526004016104cc90611ac5565b600254811115610aa55760405162461bcd60e51b81526004016104cc90611b25565b600155565b60028181548110610aba57600080fd5b600091825260209091200154905081565b60008054604051610ae89130918890889088908890602001611c67565b604051602081830303815290604052805190602001209050949350505050565b333014610b275760405162461bcd60e51b81526004016104cc90611aa3565b848314610b465760405162461bcd60e51b81526004016104cc90611cc2565b848114610b655760405162461bcd60e51b81526004016104cc90611cc2565b84610ba05760405162461bcd60e51b815260206004820152600b60248201526a08adae0e8f240c4c2e8c6d60ab1b60448201526064016104cc565b60005b85811015610ebc576000878783818110610bbf57610bbf611b55565b9050602002016020810190610bd49190611ceb565b6001600160a01b031603610c1e5760405162461bcd60e51b8152602060048201526011602482015270125b9d985b1a59081c9958da5c1a595b9d607a1b60448201526064016104cc565b6000838383818110610c3257610c32611b55565b9050602002016020810190610c479190611ceb565b6001600160a01b031603610d32576000878783818110610c6957610c69611b55565b9050602002016020810190610c7e9190611ceb565b6001600160a01b0316868684818110610c9957610c99611b55565b9050602002013560405160006040518083038185875af1925050503d8060008114610ce0576040519150601f19603f3d011682016040523d82523d6000602084013e610ce5565b606091505b5050905080610d2c5760405162461bcd60e51b8152602060048201526013602482015272115512081d1c985b9cd9995c8819985a5b1959606a1b60448201526064016104cc565b50610eaa565b600080848484818110610d4757610d47611b55565b9050602002016020810190610d5c9190611ceb565b6001600160a01b0316898985818110610d7757610d77611b55565b9050602002016020810190610d8c9190611ceb565b888886818110610d9e57610d9e611b55565b6040516001600160a01b039094166024850152602002919091013560448301525060640160408051601f198184030181529181526020820180516001600160e01b031663a9059cbb60e01b17905251610df79190611d06565b6000604051808303816000865af19150503d8060008114610e34576040519150601f19603f3d011682016040523d82523d6000602084013e610e39565b606091505b5091509150818015610e63575080511580610e63575080806020019051810190610e639190611d18565b610ea75760405162461bcd60e51b8152602060048201526015602482015274115490cc8c081d1c985b9cd9995c8819985a5b1959605a1b60448201526064016104cc565b50505b80610eb481611b6b565b915050610ba3565b50505050505050565b333014610ee45760405162461bcd60e51b81526004016104cc90611aa3565b828114610f035760405162461bcd60e51b81526004016104cc90611cc2565b82610f3e5760405162461bcd60e51b815260206004820152600b60248201526a08adae0e8f240c4c2e8c6d60ab1b60448201526064016104cc565b60005b838110156110a2576000858583818110610f5d57610f5d611b55565b9050602002016020810190610f729190611ceb565b6001600160a01b031603610fbc5760405162461bcd60e51b8152602060048201526011602482015270125b9d985b1a59081c9958da5c1a595b9d607a1b60448201526064016104cc565b6000858583818110610fd057610fd0611b55565b9050602002016020810190610fe59190611ceb565b6001600160a01b031684848481811061100057611000611b55565b9050602002013560405160006040518083038185875af1925050503d8060008114611047576040519150601f19603f3d011682016040523d82523d6000602084013e61104c565b606091505b505090508061108f5760405162461bcd60e51b815260206004820152600f60248201526e151c985b9cd9995c8819985a5b1959608a1b60448201526064016104cc565b508061109a81611b6b565b915050610f41565b5050505050565b604080516000815260208101918290526002916110c69190611d06565b602060405180830381855afa1580156110e3573d6000803e3d6000fd5b5050506040513d601f19601f820116820180604052508101906111069190611d3a565b81565b3330146111285760405162461bcd60e51b81526004016104cc90611aa3565b60025460011061117a5760405162461bcd60e51b815260206004820152601960248201527f43616e6e6f742072656d6f7665206c617374207369676e65720000000000000060448201526064016104cc565b6000811161119a5760405162461bcd60e51b81526004016104cc90611ac5565b6002546111a990600190611d53565b8111156111c85760405162461bcd60e51b81526004016104cc90611b25565b6000805b6002548110156112865783600282815481106111ea576111ea611b55565b906000526020600020015403611274576002805461120a90600190611d53565b8154811061121a5761121a611b55565b90600052602060002001546002828154811061123857611238611b55565b600091825260209091200155600280548061125557611255611d66565b6001900381819060005260206000200160009055905560019150611286565b8061127e81611b6b565b9150506111cc565b50806112cb5760405162461bcd60e51b815260206004820152601460248201527310dbdb5b5a5d1b595b9d081b9bdd08199bdd5b9960621b60448201526064016104cc565b60018290556040516000815283907f33129f9e36e06e860f22ce83276273f4d83d31e9fd4a0d3a4dbac9d2da4f9d0d9060200160405180910390a2505050565b6000806113387f30644e72e131a029b85045b68181585d2833e84879b9709143e1f593f000000185611d7c565b905060006113667f30644e72e131a029b85045b68181585d2833e84879b9709143e1f593f000000185611d7c565b604080518082018252848152602081018390529051632b0aac7f60e11b815291925073__$75f79a42d9bcbdbb69ad79ebd80f556f39$__9163561558fe916113b091600401611d9e565b602060405180830381865af41580156113cd573d6000803e3d6000fd5b505050506040513d601f19601f820116820180604052508101906113f19190611d3a565b925050505b92915050565b6060600280548060200260200160405190810160405280929190818152602001828054801561144a57602002820191906000526020600020905b815481526020019060010190808311611436575b5050505050905090565b6000805b6002548110156114a157826002828154811061147657611476611b55565b90600052602060002001540361148f5750600192915050565b8061149981611b6b565b915050611458565b50600092915050565b6000806114b884600161130b565b604080516020808201849052863582840152868101356060808401919091528351808403909101815260808301845269756c747261706c6f6e6b60b01b60a08401528351608a81850301815260aa840180865281519190930120600080845260ca909401948590529495509391927f0000000000000000000000000000000000000000000000000000000000000000916002916115559190611d06565b602060405180830381855afa158015611572573d6000803e3d6000fd5b5050506040513d601f19601f820116820180604052508101906115959190611d3a565b84805190602001206040516020016115c6949392919093845260208401929092526040830152606082015260800190565b6040516020818303038152906040528051906020012090507f00000000000000000000000000000000000000000000000000000000000000006001600160a01b031663a78f9e3686606001358760400135848980608001906116289190611dcf565b8b60a001358c60c001356040518863ffffffff1660e01b81526004016116549796959493929190611e19565b602060405180830381865afa158015611671573d6000803e3d6000fd5b505050506040513d601f19601f820116820180604052508101906116959190611d18565b9695505050505050565b600080604083850312156116b257600080fd5b50508035926020909101359150565b80356001600160a01b03811681146116d857600080fd5b919050565b60008083601f8401126116ef57600080fd5b50813567ffffffffffffffff81111561170757600080fd5b6020830191508360208260051b850101111561172257600080fd5b9250929050565b600080600080600080600060a0888a03121561174457600080fd5b87359650611754602089016116c1565b955060408801359450606088013567ffffffffffffffff8082111561177857600080fd5b818a0191508a601f83011261178c57600080fd5b81358181111561179b57600080fd5b8b60208285010111156117ad57600080fd5b6020830196508095505060808a01359150808211156117cb57600080fd5b506117d88a828b016116dd565b989b979a50959850939692959293505050565b60005b838110156118065781810151838201526020016117ee565b50506000910152565b600081518084526118278160208601602086016117eb565b601f01601f19169290920160200192915050565b60208152600061184e602083018461180f565b9392505050565b60006020828403121561186757600080fd5b5035919050565b634e487b7160e01b600052604160045260246000fd5b6000806000806080858703121561189a57600080fd5b843593506118aa602086016116c1565b925060408501359150606085013567ffffffffffffffff808211156118ce57600080fd5b818701915087601f8301126118e257600080fd5b8135818111156118f4576118f461186e565b604051601f8201601f19908116603f0116810190838211818310171561191c5761191c61186e565b816040528281528a602084870101111561193557600080fd5b82602086016020830137600060208483010152809550505050505092959194509250565b6000806000806000806060878903121561197257600080fd5b863567ffffffffffffffff8082111561198a57600080fd5b6119968a838b016116dd565b909850965060208901359150808211156119af57600080fd5b6119bb8a838b016116dd565b909650945060408901359150808211156119d457600080fd5b506119e189828a016116dd565b979a9699509497509295939492505050565b60008060008060408587031215611a0957600080fd5b843567ffffffffffffffff80821115611a2157600080fd5b611a2d888389016116dd565b90965094506020870135915080821115611a4657600080fd5b50611a53878288016116dd565b95989497509550505050565b6020808252825182820181905260009190848201906040850190845b81811015611a9757835183529284019291840191600101611a7b565b50909695505050505050565b6020808252600890820152672737ba1029b2b63360c11b604082015260600190565b6020808252601e908201527f4d757374206265206e6f6e2d7a65726f20736967732072657175697265640000604082015260600190565b634e487b7160e01b600052601160045260246000fd5b808201808211156113f6576113f6611afc565b6020808252601690820152750a6d2cee640e4cae2ead2e4cac840e8dede40d0d2ced60531b604082015260600190565b634e487b7160e01b600052603260045260246000fd5b600060018201611b7d57611b7d611afc565b5060010190565b60006bffffffffffffffffffffffff19808a60601b168352886014840152876034840152808760601b166054840152508460688301528284608884013750600091016088019081529695505050505050565b6000823560de19833603018112611bec57600080fd5b9190910192915050565b8183823760009101908152919050565b6001600160a01b0386168152602081018590526080604082018190528101839052828460a0830137600060a084830101526000601f19601f850116820160a0838203016060840152611c5b60a082018561180f565b98975050505050505050565b60006bffffffffffffffffffffffff19808960601b168352876014840152866034840152808660601b166054840152508360688301528251611cb08160888501602087016117eb565b91909101608801979650505050505050565b6020808252600f908201526e098cadccee8d040dad2e6dac2e8c6d608b1b604082015260600190565b600060208284031215611cfd57600080fd5b61184e826116c1565b60008251611bec8184602087016117eb565b600060208284031215611d2a57600080fd5b8151801515811461184e57600080fd5b600060208284031215611d4c57600080fd5b5051919050565b818103818111156113f6576113f6611afc565b634e487b7160e01b600052603160045260246000fd5b600082611d9957634e487b7160e01b600052601260045260246000fd5b500690565b60408101818360005b6002811015611dc6578151835260209283019290910190600101611da7565b50505092915050565b6000808335601e19843603018112611de657600080fd5b83018035915067ffffffffffffffff821115611e0157600080fd5b6020019150600581901b360382131561172257600080fd5b87815286602082015285604082015260c060608201528360c0820152600060018060fb1b03851115611e4a57600080fd5b8460051b808760e085013760808301949094525060a08101919091520160e0019594505050505056fea2646970667358221220b0cca86be30ea1a686685624327a9072304c2fc4f8164a297391d742030646ee64736f6c63430008140033",
  "libraries": {
    "PoseidonT3": "0x3333333C0A88F9BE4fd23ed0536F9B6c427e3B93"
  },
  "devdoc": {
    "kind": "dev",
    "methods": {
      "batchTransfer(address[],uint256[])": {
        "params": {
          "amounts": "Array of amounts to send",
          "recipients": "Array of recipient addresses"
        }
      },
      "batchTransferMulti(address[],uint256[],address[])": {
        "params": {
          "amounts": "Array of amounts to send",
          "recipients": "Array of recipient addresses",
          "tokenAddresses": "Array of token addresses (address(0) = native ETH)"
        }
      }
    },
    "version": 1
  },
  "userdoc": {
    "kind": "user",
    "methods": {
      "batchTransfer(address[],uint256[])": {
        "notice": "Execute multiple transfers in one transaction"
      },
      "batchTransferMulti(address[],uint256[],address[])": {
        "notice": "Execute multiple transfers with mixed token types"
      }
    },
    "version": 1
  },
  "storageLayout": {
    "storage": [
      {
        "astId": 91,
        "contract": "contracts/MetaMultiSigWallet.sol:MetaMultiSigWallet",
        "label": "chainId",
        "offset": 0,
        "slot": "0",
        "type": "t_uint256"
      },
      {
        "astId": 93,
        "contract": "contracts/MetaMultiSigWallet.sol:MetaMultiSigWallet",
        "label": "signaturesRequired",
        "offset": 0,
        "slot": "1",
        "type": "t_uint256"
      },
      {
        "astId": 96,
        "contract": "contracts/MetaMultiSigWallet.sol:MetaMultiSigWallet",
        "label": "commitments",
        "offset": 0,
        "slot": "2",
        "type": "t_array(t_uint256)dyn_storage"
      },
      {
        "astId": 100,
        "contract": "contracts/MetaMultiSigWallet.sol:MetaMultiSigWallet",
        "label": "usedNonces",
        "offset": 0,
        "slot": "3",
        "type": "t_mapping(t_uint256,t_bool)"
      },
      {
        "astId": 104,
        "contract": "contracts/MetaMultiSigWallet.sol:MetaMultiSigWallet",
        "label": "usedNullifiers",
        "offset": 0,
        "slot": "4",
        "type": "t_mapping(t_uint256,t_bool)"
      }
    ],
    "types": {
      "t_array(t_uint256)dyn_storage": {
        "base": "t_uint256",
        "encoding": "dynamic_array",
        "label": "uint256[]",
        "numberOfBytes": "32"
      },
      "t_bool": {
        "encoding": "inplace",
        "label": "bool",
        "numberOfBytes": "1"
      },
      "t_mapping(t_uint256,t_bool)": {
        "encoding": "mapping",
        "key": "t_uint256",
        "label": "mapping(uint256 => bool)",
        "numberOfBytes": "32",
        "value": "t_bool"
      },
      "t_uint256": {
        "encoding": "inplace",
        "label": "uint256",
        "numberOfBytes": "32"
      }
    }
  }
}